:100000000C9465060C94AC060C94AC060C94AC06EF
:100010000C94AC060C94AC060C94AC060C94AC0698
:100020000C94AC060C94AC060C9461150C94D91A83
:100030000C94D22B0C94AC060C94AC060C94AC062D
:100040000C94AC060C94AC060C94AC060C94AC0668
:100050000C94AC060C943A160C94AC060C94AC06BA
:100060000C94AC060C94AC060C94AC060C94AC0648
:100070000C94AC060C94AC060C94AC060C94AC0638
:100080000C94AC060C94AC060C94AC060C94AC0628
:100090000C94AC060C94AC060C94AC060C94AC0618
:1000A0000C94AC060C94AC060C94AC0605010980CB
:1000B000A101850319012AB700150126B700950192
:1000C00075108100C0050C0901A101850419012AE0
:1000D000A002150126A002950175108100C00660DE
:1000E000FF0961A1010962150026FF00952075082E
:1000F00081020963150026FF00952075089102C052
:1001000005010906A101050719E029E715002501E8
:10011000950875018102950175088101050719008F
:1001200029FF150026FF00950675088100050819AE
:10013000012905950575019102950175039101C08D
:1001400000000000000000000000000000000000AF
:10015000000000000000000000000000000000009F
:10016000000000007E0F00D4FFFFFFC700000078F2
:1001700000000000000000002A2B28000000000002
:100180000000000000000000000000290000000046
:100190002C1E3420212224342627252E362D3738B4
:1001A000271E1F202122232425263333362E3738BD
:1001B0001F0405060708090A0B0C0D0E0F1011127B
:1001C000131415161718191A1B1C1D2F3130232D47
:1001D000350405060708090A0B0C0D0E0F10111245
:1001E000131415161718191A1B1C1D2F3130354CF6
:1001F00000DA0281FFD9F1DB20A4A62EAF00A0C057
:1002000000A1C800AED580A81FD300408D142000E7
:1002100000047F3F1F643214643214783C1E1E14A5
:100220000A0500000103060C183123664444C4C4C7
:1002300084848484C4C44446662311180C060300D5
:1002400000001F78C10F38E0C00000020E0E8EC6FD
:10025000C04040C0C68E0E0E020080C060380FC085
:100260007C0FF81EC3F85C767B6D755555756D7BFC
:10027000765E7E775B6D755555754D7B665CF0C31C
:100280003EF0000080C06030180C040682C3436159
:10029000A1A1A1A16143C38206040C183060C080F3
:1002A0000000202020005343522000202020004343
:1002B00041502000202020004E554D2000537461F5
:1002C0007475733A20004E2F412000464E202020A6
:1002D0002000524742202020004C61796572730053
:1002E0004D61696E2020004C617965723A2000549E
:1002F0006865204D6164204E6F6F646C6500FD374A
:100300007A585A000004E6D6B446020021011600CD
:100310000000742FE5A3E0012500B25D003D88894F
:10032000C65436C3174FE4E75435DDB612B7B2B53D
:1003300058BE14DD9022DCEB0A70076E95AB0FBE41
:100340006549BC19AA4AEF6BB57BF99579AEC733FD
:10035000923F0136D648DF0EC2FEDC847AB22ED739
:10036000C362828EBABEC7C78F415FDB502176550C
:100370008B403D030576DDD67317F5F680DE6C2ADB
:10038000B41B2BB841B12EC457B89CF77158A6BA0C
:100390000FCE7957120AD9C17181A6F214BA13B7D8
:1003A000F4D5879712E543659B5338ED31FCD3FEB6
:1003B0002E0283EA4D2732CA766F7747EB965DE8C7
:1003C00065B853B53AEA43FA8FFD8A3FD9B32200A4
:1003D0000000E89E0CEB5D9AC68A0001CE01A602E1
:1003E00000001E1053BEB1C467FB020000000004F1
:1003F000595A000101010101010101010202020239
:1004000002020202020303030303030303040404BE
:100410000404040405050505050606060606070787
:1004200007070708080808090909090A0A0A0B0B3F
:100430000B0C0C0C0D0D0D0E0E0E0F0F0F101011DE
:100440001111121213131414151516161717181864
:1004500019191A1A1B1B1C1D1D1E1E1F20202122CC
:1004600022232424252626272829292A2B2C2D2D12
:100470002E2F30313232333435363738393A3B3C2F
:100480003D3E3F404142434445464748494A4C4D22
:100490004E4F50515354555658595A5B5D5E5F61EB
:1004A0006264656668696B6C6D6F7072737577787E
:1004B0007A7B7D7E8082838587888A8C8E8F9193DC
:1004C0009596989A9C9EA0A2A3A5A7A9ABADAFB103
:1004D000B3B5B7BABCBEC0C2C4C6C9CBCDCFD1D4E8
:1004E000D6D8DBDDDFE2E4E7E9EBEEF0F3F5F8FA8E
:1004F000FDFFFFAA7F55402223252628292A2C2DDF
:100500002F3032333536383A3B3D3E404243454743
:10051000494A4C4E5051535557595A5C5E6062647B
:100520006668696B6D6F71737577797B7D7F818389
:100530008587898A8C8E90929496989A9C9E9FA18A
:10054000A3A5A7A8AAACAEAFB1B3B4B6B8B9BBBCAB
:10055000BEBFC1C2C3C5C6C7C9CACBCCCDCED0D120
:10056000D2D2D3D4D5D6D7D7D8D9D9DADADBDBDB18
:10057000DCDCDCDCDCDDDDDDDDDCDCDCDCDCDBDBB9
:10058000DBDADAD9D9D8D7D7D6D5D4D3D2D2D1D00D
:10059000CECDCCCBCAC9C7C6C5C3C2C1BFBEBCBB0A
:1005A000B9B8B6B4B3B1AFAEACAAA8A7A5A3A19F82
:1005B0009E9C9A98969492908E8C8A898785838146
:1005C0007F7D7B79777573716F6D6B696866646227
:1005D000605E5C5A5957555351504E4C4A494745F5
:1005E0004342403E3D3B3A3836353332302F2D2C96
:1005F0002A292826252322000000000000A843AE57
:1006000000AC00AB00AF007A00B200B100B3007CD8
:10061000007B007D0011500000000000000000126F
:100620005013500000000000000000000000000017
:1006300000000000001050000000000000C25CC379
:100640005CC55CC65CC45CCB5CCC5CC95CCA5CC78A
:100650005CC85CD55C105000000000000000000089
:10066000000000000000000000000000000000008A
:1006700000000000001050010001001503000002FE
:100680000002001103000003000100160300000433
:10069000000200FB02260905000100170300000606
:1006A000000200FD02000007000200130300000822
:1006B00000010018030000120002001903000013DB
:1006C0000002001B03000000AF00AE09025B000344
:1006D0000100A0FA09040000010301010009211131
:1006E0000100012240000705810308000A090401F6
:1006F000000203000000092111010001222200076D
:1007000005820320000107050303200001090402FC
:10071000000103000000092111010001223200073D
:1007200005840320000A1201000200000008EDFE0B
:1007300001170100010203011C037600690061003A
:100740006C003A006600360034006300320062003C
:100750003300630000000E03550064006F006E005C
:100760003100330000001E035400680065002000C3
:100770004D006100640020004E006F006F006400B7
:100780006C00650000000403090407087F080700E7
:100790003E5B4F5B3E003E6B4F6B3E001C3E7C3E23
:1007A0001C00183C7E3C18001C577D571C001C5E2A
:1007B0007F5E1C0000183C180000FFE7C3E7FF0045
:1007C000001824180000FFE7DBE7FF0030483A0676
:1007D0000E00262979292600407F05050700407F65
:1007E00005253F005A3CE73C5A007F3E1C1C080090
:1007F000081C1C3E7F0014227F2214005F5F005FF4
:100800005F0006097F017F00006689956A006060CD
:100810006060600094A2FFA2940008047E040800B7
:1008200010207E20100008082A1C0800081C2A0836
:1008300008001E10101010000C1E0C1E0C0030388A
:100840003E383000060E3E0E06000000000000009C
:1008500000005F000000000700070000147F147F05
:100860001400242A7F2A12002313086462003649E8
:1008700056205000000807030000001C2241000021
:100880000041221C00002A1C7F1C2A0008083E0888
:100890000800008070300000080808080800000008
:1008A000606000002010080402003E5149453E00EF
:1008B00000427F4000007249494946002141494DAC
:1008C00033001814127F10002745454539003C4A73
:1008D000494931004121110907003649494936008B
:1008E000464949291E000000140000000040340061
:1008F00000000008142241001414141414000041D4
:10090000221408000201590906003E415D594E00BB
:100910007C1211127C007F49494936003E41414119
:1009200022007F4141413E007F49494941007F0902
:10093000090901003E41415173007F0808087F000A
:1009400000417F4100002040413F01007F08142208
:1009500041007F40404040007F021C027F007F0436
:1009600008107F003E4141413E007F090909060011
:100970003E4151215E007F09192946002649494917
:10098000320003017F0103003F4040403F001F2031
:1009900040201F003F4038403F00631408146300AC
:1009A0000304780403006159494D4300007F41412D
:1009B0004100020408102000004141417F00040270
:1009C00001020400404040404000000307080000CE
:1009D0002054547840007F2844443800384444442C
:1009E0002800384444287F00385454541800000824
:1009F0007E09020018A4A49C78007F0804047800F3
:100A000000447D4000002040403D00007F1028440D
:100A1000000000417F4000007C04780478007C08DE
:100A200004047800384444443800FC182424180096
:100A300018242418FC007C0804040800485454546A
:100A4000240004043F4424003C4040207C001C203F
:100A500040201C003C4030403C004428102844000A
:100A60004C9090907C004464544C44000008364103
:100A7000000000007700000000413608000002017D
:100A8000020402003C2623263C0000000000000077
:100A9000404040F0F8F8FF38FFF8F83FF8F8FF382A
:100AA000FFF8F8F040404000000000000080C0C0A7
:100AB000C0800000C0C08000000080C0C000C0C076
:100AC000000080C0C00000000000C0C0C0C0C00066
:100AD000C0C0000000000000000000000000000096
:100AE0000000000000000000000000000000000006
:100AF00000000000000000000000000000000000F6
:100B0000000000000000000000C0F0F8FC3E1E06DF
:100B1000010000007F4141417F007F4141417F0052
:100B20000080C0E07E5B4F5BFEC00000C000DCD7F1
:100B3000DEDEDED7DC00C0000000000000000000A8
:100B400000000000000000000000000000000000A5
:100B5000494949FFFFFFFFE0DFBFBF00BFBFDFE044
:100B6000FFFFFFFF49494900000000001F3F606090
:100B7000E0BF1F007F7F071E381E077F7F007F7F3B
:100B80000E1F3B716000000000007F7F0C0C0C000A
:100B90007E7E007F7E0303007F7E03037E7E030351
:100BA0007F7E000F3E703C063C703E0F00327B495A
:100BB000493F7E007F7E0303001E3F69696F260068
:100BC000000000000000000000030F1F3F3C787091
:100BD000600000007F4141417F007F4141417F0033
:100BE000307B7F7830202030787F3B0003000F7F00
:100BF0000F0F0F7F0F000300000000000000000037
:100C000000000000000000000000000000000000E4
:100C1000010101070F0F7F0F7F0F0F7E0F0F7F0F57
:100C20007F0F0F070101010000000000000000001D
:100C300000010100000000000000000000000000B2
:100C400000000000000000000000000000000000A4
:100C50000000000000000000000000000000000094
:100C60000000000000000000000000000000000084
:100C70000000000000000000000000000000000074
:100C80000000000000000000000000000000000064
:100C90000000000000000000000000000000000054
:100CA0000000000000000000000000000000000044
:100CB0000000000000000000000000000000000034
:100CC0000000000000000000000011241FBECFEF54
:100CD000DAE0DEBFCDBF04B603FE27C08091FD057C
:100CE0009091FE05A091FF05B09100068730904BD2
:100CF000A740B04BD1F41092FD051092FE05109262
:100D0000FF051092000614BE84B7877F84BF0FB61C
:100D1000F894A8958091600088618093600010929B
:100D200060000FBEE0E0F8E3099511E0A0E0B1E05B
:100D3000EAE7FDE602C005900D92A63BB107D9F7A0
:100D400025E0A6EBB1E001C01D92AD3FB207E1F78F
:100D50000E94F92B0C9489360C940000CF93DF93FA
:100D60004091FB055091FC054B5F53409A01205E7A
:100D70003F4F21303240C0F020E032E0241B350BE1
:100D80006091F9037091FA03FC01CA01240F351F29
:100D9000C1E0D0E08217930750F07093FA0360939C
:100DA000F903DF91CF91089520E230E0E9CF44913B
:100DB000DC01A550BC4F5C91451781F04C93AC0110
:100DC000A5E056954795AA95E1F7DE0102C0AA0F66
:100DD000BB1F4A95E2F7AD016A2B752B0196319640
:100DE000D9CFE8EDF0E080818E7F80831092E20021
:100DF0001092DA001092E100A0EEB0E08C918160D8
:100E00008C9380818F77808319BCA7EDB0E08C91A3
:100E10008E7F8C9380818F7E80831092D70308957C
:100E20002091E4003091E50095E6A9012091EC00C5
:100E3000822F817020FF06C08091E80080FF06C0ED
:100E400080E008952091E80022FD1AC08091E5031A
:100E5000882389F0853089F08091EB0085FD0FC0F3
:100E60002091E4003091E50042175307F9F29150C8
:100E7000E1F684E0089582E0089583E0089581E03A
:100E80000895EF92FF920F931F93CF937C018B01F4
:100E90000E941007C82F811117C08091E80085FDBE
:100EA0000BC08091E8008E778093E8000E941007C5
:100EB000882399F3C82F08C0F70181917F0180939F
:100EC000F1000150110949F78C2FCF911F910F911B
:100ED000FF90EF9008958091E70387FF13C0809102
:100EE000E80082FF06C08091E8008B778093E800DD
:100EF00004C08091E5038111F2CF08958091E5034C
:100F00008823D9F38091E80080FFF8CF8091E80032
:100F10008E77ECCF982F9093E900242F762F50E016
:100F2000891731F07091EC002091ED005091F000A4
:100F300021FD07C09F5F973071F78093E90081E042
:100F400008953091EB003E7F3093EB003091ED003F
:100F50003D7F3093ED003091EB0031603093EB003A
:100F60007093EC002093ED005093F0002091EE0080
:100F700027FDE0CF80E00895CF92DF92EF92FF92BD
:100F80000F931F93CF93DF93C8EDD0E088818F7EBE
:100F90008883E7EDF0E080818160808384E082BF18
:100FA00081E08093D70388818E7F888302EE10E0F2
:100FB000F80110821092DA0081EEC82ED12CF601D1
:100FC000108288818F778883888180688883888170
:100FD0008F7D888319BC1092E5031092E60310926E
:100FE000E4031092E30390EEE92EF12CF7018081E7
:100FF0008B7F808388818160888342E060E080E02D
:101000000E948A07F60180818E7F8083F8018081AB
:1010100081608083808188608083F70180818E7FFA
:101020008083888180618883DF91CF911F910F91A8
:10103000FF90EF90DF90CF900895FC018091ED0339
:101040009091EE0386179707A0F06115710529F4BA
:101050009091E8009E779093E80090E0611571050B
:1010600051F4911108C08091E80082FF34C080E003
:101070000895BC01F2CF8091E5038823C1F185304A
:10108000C1F18091E80083FD30C08091E80082FDCD
:10109000EACF8091E80080FFE1CF8091F3002091BA
:1010A000F200382F6115710519F02830310558F01C
:1010B00091E02830310509F090E02091E8002E778A
:1010C0002093E800CBCF81918093F10061507109AA
:1010D0002F5F3F4FE7CF8091E503882341F08530B4
:1010E00041F08091E80083FFBECF81E0089582E067
:1010F000089583E008950895089508958091DA038E
:1011000008952FB7F8946091D0037091D103809126
:10111000D2039091D3032FBF08952091CD03309136
:10112000CE032817390771F09093CE038093CD0337
:10113000E091CB03F091CC03309721F00084F1854E
:10114000E02D099408952091C9033091CA0328170E
:10115000390771F09093CA038093C903E091CB03E0
:10116000F091CC03309721F00680F781E02D0994AF
:101170000895E091CB03F091CC03309721F00190DA
:10118000F081E02D099480E00895452B39F0682323
:1011900081E06F3F09F080E08170089581E0FCCF2D
:1011A000DC016091C5038091C603962F891301C0AD
:1011B0000895292F30E0F901EE0FFF1FE354FC4F93
:1011C000408151814A175B07A1F487E08A9FA00103
:1011D0008B9F500D11244B575C4F81E0FA018483A3
:1011E0009613E6CF2F5F3F4F237033272093C5031D
:1011F00008952F5F3F4F922F9370D8CF1092220304
:1012000010922103E5E8F3E08581811102C0148288
:101210001682379683E0ED3BF807B1F708952091E9
:10122000F20336E0839FC0011124629F800D911D5F
:101230001124811522E0920714F090E080E085509F
:101240009C4F9093FC058093FB0508958091FB02D1
:101250009091FC0290932401809323010895FA0158
:10126000811101C0FB01099480917C02982F9E7F1F
:1012700029F48170826080937C0208958A34E8F3B7
:1012800081708864F8CFAF92BF92DF92EF92FF92A5
:101290000F931F93CF93DF93082F162FE901E42FAD
:1012A000F0E0EE50FC4F611110C0E4915E2F4E2F24
:1012B0004983E8835A83DF91CF911F910F91FF906B
:1012C000EF90DF90BF90AF900895E62EF12C4491FF
:1012D000D42EE42FF0E026E0829FC00111242FEFEE
:1012E00030E0B9010E945435802F90E0880F991F9B
:1012F00055E5569FD001579FB00D11248A1B9B0BBB
:10130000982F990F890F5901AE18BF08AE9ED001D2
:10131000AF9EB00DBE9EB00D11245B2F189F8001B3
:101320001124012F11275901A01AB10AAE9E800184
:10133000AF9E100DBE9E100D11245901A81AB108C0
:10134000AE9CC001AF9C900DBE9C900D1124892FC6
:101350009927281B390B2E9FC0012F9F900D3E9F70
:10136000900D1124E92F62307105A1F050F4611540
:10137000710509F49DCF6130710581F0EB2F512F7C
:1013800097CF6430710569F080F06630710509F41B
:101390008FCFF4CFE42F4B2F592F8ACFE42F412F3B
:1013A00087CFEB2F542F492F83CF4B2F5D2DE12F6C
:1013B0007FCF80E00895F894E82FE295EF70F0E099
:1013C00031A1282F2F7081E090E001C0880F2A956D
:1013D000EAF7982F9095932391A392A1892B82A34A
:1013E000789408959091250292FF06C0282F2871C5
:1013F0002830F9F4877F846093FF06C0282F287176
:101400002831F1F4877E84612091260220FF06C0F6
:10141000382F38713830D9F4877F816021FF06C0BA
:10142000282F28712831D1F4877E816194FD877E31
:101430000895282F24712430F9F68B7F8860DCCF43
:10144000282F2471243101F78B7E8861DDCF382F5E
:101450003171313019F78E7F8860E0CF282F2171EC
:10146000213121F78E7E8861E1CFCF93DF93EC01AC
:1014700082389105A9F1D8F58133910509F496C018
:1014800048F58932910509F48AC08A9709F495C014
:10149000C11522E5D20708F0B6C0C11531E5D30762
:1014A00008F026C1C83ED10508F09CC0C03ED10559
:1014B00060F5C83AD10508F087C0C53AD10508F0F3
:1014C000EFC0C130D10509F12097F9F0C430D10542
:1014D000E0F440C08533910509F45AC0C997C1F6BC
:1014E00080912502837089F0C0EED0E00EC0833E6B
:1014F000910599F170F4803E910501F1823E9105CC
:1015000039F68091250282FD21C0CE01DF91CF9175
:101510000895863E910561F1873E910571F1843E03
:10152000910509F0B5CF8091260281FFEECF809121
:101530002502C7EED0E084FD0DC0E7CF80912502E3
:1015400080FD07C19091260290FFDFCFC3EED0E06F
:1015500084FFDBCFD0E0C0E0D8CF8091250282FDB0
:10156000FBC09091260290FDBFCF84FFCECFF2CF7B
:101570008091250283FDDDCFC8CF8091250283FDB8
:10158000EEC09091260291FFF0CFC4EED0E0BDCF27
:101590008091250285FFB9CFC9E2D0E0B6CF809116
:1015A000250285FFB2CFC5E3D0E0AFCF8091250201
:1015B00086FFABCFCAE2D0E0A8CF8091250286FF9C
:1015C000A4CFC1E3D0E0A1CFCF3BD10518F6C85AD4
:1015D000D0E0CC0FDD1FCD5CDE4F0990D881C02D4F
:1015E000D46493CFC11540E5D40708F064C0C11599
:1015F00080E4D80708F05CC0CE019A9581159F4120
:1016000008F483CFA7CFC11536E5D30718F5C11568
:1016100045E5D40708F084C0C11584E5D80708F073
:101620007AC09C2F969596959E0123703327C115FD
:10163000D34508F462C0C1E0D0E002C0CC0FDD1F8A
:101640002A95E2F730E2939FC0011124C82BD92BD1
:10165000DA685BCFC1158AE5D80778F4C11599E53A
:10166000D90708F068C0C11528E5D20708F472CF81
:10167000DC2FCC27C06FD06A48CFCE0190568115A1
:10168000904208F067CF8D2F8F710E94F20990E091
:10169000982F882788279F719C012C2BE90149C02E
:1016A000C55AD0E0C05DDE4FC881D0E0D0642DCFF8
:1016B000DF70D06A2ACFCE01E4E096958795EA954F
:1016C000E1F783702C2F26952695237040E2249F06
:1016D00090011124382B8C2F8370C1E0D0E002C020
:1016E000CC0FDD1F8A95E2F7C22BD32BDC680DCF20
:1016F000DC2FCC27C16FD06A08CFC1E0D0E002C098
:10170000CC0FDD1F2A95E2F720E2929FC001112441
:10171000C82BD92BEBCFDC2FCC27C46FD06AF5CEEA
:101720008C2F0E94F209C82FD0E0DC2FCC27CC27C9
:10173000DF71D062EACE8C2F8F700E94F20934E004
:10174000D695C7953A95E1F7CF709C2FEC01D069FB
:10175000DCCEC9E3D0E0D9CEC2EED0E0D6CEC6EE24
:10176000D0E0D3CE80911902882331F01092190273
:101770001092180210921702089580959091D80344
:1017800098239093D80308959091D803892B809340
:10179000D8030895109215021092140210921302A9
:1017A00008958091120281111092120208952091E1
:1017B00011029091D001291302C080E0089530E019
:1017C000F90153E0EE0FFF1F5A95E1F7EF52FE4F7C
:1017D0005181561306C05081581303C052815413CF
:1017E00004C02F5F3F4F2770E6CF81E008958091BE
:1017F00011029091D001981301C008958F5F8770F6
:10180000FACF9E3F41F1990F990FE92FE80F9E2FD4
:101810009770E695E695E69583E0E89FF001112440
:10182000EE53FE4F50E040E080E0219130E0092E81
:1018300002C0369527950A94E2F721703327042ECB
:1018400001C0220F0A94EAF7822B4F5F5F4F4330AB
:10185000510559F7089580E008959E3F61F1990F71
:10186000990FE92FE80F8E2F877041E001C0440FD8
:101870008A95EAF7E695E695E69583E0E89FF0011C
:101880001124EE53FE4F30E020E070E05191DF0173
:101890001197CB01022E02C0969587950A94E2F724
:1018A000817081958527842385278C932F5F3F4FF7
:1018B0002330310559F70895E92FE295EF70E25092
:1018C000EE3070F4F0E0E557F94C0C94B835803FF9
:1018D00019F020F4883E20F481E00895843FE1F37C
:1018E00080E00895883EC0F3813FD1F7F5CF93FBA8
:1018F000882780F90895982F92959F7011F0892F6D
:1019000094E0282F2695269511F09E5F822F8695CC
:1019100009F09F5F892F08959C013A9521153F4159
:1019200050F5FC01EE27F170BC0166277270AC0126
:10193000442754709C012227387094FF0EC080E128
:10194000EF2B09F480E0672B09F08062452B09F04A
:101950008064232B89F08068089581E0EF2B09F4DF
:1019600080E0672B09F08260452B09F08460232B0F
:1019700019F08860089580E00895CF93DF93C091B7
:10198000FB05D091FC058A30C1F42091F203CE0111
:101990008B5F9340622F70E00E945435281B822F8A
:1019A00066E00E946835C82FC15018F4DF91CF91CE
:1019B000089580E20E94BD0CF7CF8D30E9F4CB5F33
:1019C000D3402091F203622F70E0CE010E94543583
:1019D000281B822F9E01280F311D2115324018F03F
:1019E00080E0D0E0C0E0C80FD11DC550DC4FD093DF
:1019F000FC05C093FB05DACF96E0FE01A3EFB3E050
:101A000001900D929A95E1F7803E08F458C086E067
:101A1000FE0111928A95E9F7C091FB05D091FC0572
:101A200046E050E0BE0183EF93E00E940C369E0139
:101A30002B5F3340892B41F1C90145E0969587958D
:101A40004A95E1F741E050E0BA0102C0660F771F06
:101A50008A95E2F7CB016091F9037091FA03862B26
:101A6000972BB9016B5F7F4FE5E076956795EA9517
:101A7000E1F702C0440F551F6A95E2F7842B952BBE
:101A80009093FA038093F9032A5F3F4F4091F2034A
:101A9000642F70E0C9010E945435481B463010F491
:101AA000240F311D211572E0370710F030E020E0DF
:101AB00025503C4F3093FC052093FB0577CFF6E093
:101AC0008F9FB00111246657784F46E050E0CE0159
:101AD0000E94F635A1CFCF93DF93EC01FE018491F4
:101AE000811103C0DF91CF9108950E94BD0C219612
:101AF000F5CFCF92DF92EF92FF920F931F93CF9388
:101B0000DF936C017B0164E670E088E70E94533448
:101B1000EC0197FD12C010E000E0F601E00FF11FAC
:101B2000849164E670E00E94CD34EC01892B29F4A5
:101B30000F5F1F4F0E151F0581F70E945035CE0114
:101B4000DF91CF911F910F91FF90EF90DF90CF9099
:101B500008958091D9029091DA02911103C091E029
:101B600089270895882369F062E070E089EC96E0A7
:101B70000E94790D892B19F08091D9020895109255
:101B8000D9028091D902EBCFCF93C091D902809135
:101B9000DA028823D1F00E948108605A75418F4F84
:101BA0009F4F6093D5027093D6028093D702909393
:101BB000D802C11108C062E070E087EC96E00E9494
:101BC000790D892B29F0C091D9028C2FCF910895DE
:101BD00081E08093D902F7CF8093D4037093D6032A
:101BE0006093D5038091E5038430F9F48093E90094
:101BF0008FEF9091E800815095FD06C095ED9A9584
:101C0000F1F700008111F5CF8091E80085FF0DC04C
:101C100050E040E063E070E084ED93E00E94410713
:101C20008091E8008E778093E8000895BC0184E0FD
:101C30000C94EC0DBC0183E00C94EC0DCF93DF937E
:101C4000EC0181E08093E9008FEF9091E8008150F2
:101C500095FD06C095ED9A95F1F700008111F5CF3D
:101C60008091E80085FF14C050E040E068E070E03B
:101C7000CE010E9441078091E8008E778093E800B2
:101C800088E0FE01ABEDB3E001900D928A95E1F79B
:101C9000DF91CF91089581E08093E00080E280930E
:101CA000D8001092C9008FE19EE40197F1F700C0BF
:101CB000000087E090EBDC018093FD059093FE052A
:101CC000A093FF05B093000688E19CE00FB6F8945E
:101CD000A895809360000FBE90936000FFCF01979E
:101CE00008F40895EFE9FFE03197F1F700C0000034
:101CF000F6CF80917C0280FD0AC0EAE6F2E0118214
:101D000010821282339652E0EC37F507C1F7279A1A
:101D100035B13F7725B120684FB7F8948AE692E055
:101D2000FC015191CF0168E025B9000000C057FFC8
:101D300035B9550F000000C000C000C035B900C063
:101D40006A9591F7F2E08C379F0751F74FBF8FE507
:101D500094E00197F1F700C000000895EF92FF9220
:101D60000F931F93CF93DF938C01CAE6D2E0F12C3F
:101D7000E12CF801948160917E0280917D02F3E074
:101D8000EF16F104FCF49923F9F09E0140917F02D3
:101D90000E9443092FEFE21AF20A239686E0E81622
:101DA000F10439F70E94790EF801848190E00196E0
:101DB000817099278483DF91CF911F910F91FF90BC
:101DC000EF900895992309F39E0140E0E1CF8F92AF
:101DD0009F92AF92BF92CF92DF92EF92FF920F93BA
:101DE0001F93CF93DF93EC014C81042F10E09801F7
:101DF000D8010E94CD359B01AC010E94E3354B0117
:101E00005C01E0E2F0E0E01BF10BA5E5B0E0AC0125
:101E10009B010E94E3356B017C019F01DF010E9461
:101E2000C5359B01AC010E94EE359B01AC01280D2C
:101E3000391D4A1D5B1DC701B6010E949635F22E61
:101E4000822F90E039E23F15D8F143E0249F9001C2
:101E5000112435952795122F10959AE6C92E92E0F8
:101E6000D92E00E085E5E82EEF188E2D01FD8F2D8F
:101E70009601412F60917E020E9443090F5F53E05B
:101E8000C50ED11C063089F70E94790E9C8181E035
:101E9000992319F0903219F48FEF809320018091EB
:101EA0002001890F8C83DF91CF911F910F91FF90BB
:101EB000EF90DF90CF90BF90AF909F908F9008955C
:101EC00025E530E0A901481B590BCA019A01220FF0
:101ED000331F280F391F37FFBCCF2F5F3F4FB9CFBC
:101EE0000F931F93CF93DF93CAE6D2E0FE011182D6
:101EF00010821282339682E0EC37F807C1F710E0C7
:101F000000E080916802082E000C990B0817190751
:101F10008CF180911F01082E000C990B80179107FE
:101F20004CF19E0140917F0260917E0280917D0282
:101F30000E9443090F5F1F4F23960630110509F7D2
:101F40000E94790E80911E0190916802980F9093E3
:101F5000680220911F01280F20931F01121614F40C
:101F600095301CF0819580931E01DF91CF911F91D8
:101F70000F910895198218821A82DCCFBF92CF92F6
:101F8000DF92EF92FF920F931F93CF93DF93FC01A9
:101F90008281DD24DA9480FD02C0DD24D3940AE638
:101FA00012E0D0E0C0E026E0B22EF80111821082EB
:101FB000128294E0E92EF12CC12C809167028C0DE5
:101FC00087300CF43DC06B2D0E947435892F082E8C
:101FD000000C990B8C179D0791F480917F028E9DC8
:101FE000A0018F9D500D1124559547955595479506
:101FF000980160917E0280917D020E944309CD0C80
:10200000F1E0EF1AF108C9F621960D5F1F4FC630B7
:10201000D10559F60E94790E8091670291E0D9129C
:1020200015C0811111C085E080936702DF91CF91C7
:102030001F910F91FF90EF90DF90CF90BF90089588
:1020400087FFC5CF8A5FC3CF8150EECF90E0019666
:10205000BE010E948235E8CFEF92FF921F93CF938B
:10206000DF93EC018AE6E82E82E0F82E10E08C8106
:10207000970140917F0260917E02810F0E94430987
:10208000165D83E0E80EF11C1C3F89F70E94790E73
:102090009A818C8190FF08C08F5F8C83DF91CF91F4
:1020A0001F91FF90EF9008958150F7CF90917C029F
:1020B00090FF0CC0EAE6F2E08183608342833396AE
:1020C00092E0EC37F907C1F70C94790E08950F935D
:1020D0001F93CF93DF9300D00F92CDB7DEB78C0163
:1020E0008091690281110AC09E012F5F3F4F4FEF1F
:1020F0006FEF0E9443098A8180936902F80164812D
:10210000613069F08091690240E0662361F040E04F
:10211000623011F44091690280E060E004C0609197
:10212000690240E080E00E945610F801848190E04E
:10213000019663E070E00E94823584830F900F90D7
:102140000F90DF91CF911F910F910895CF93DF935F
:1021500000D00F92CDB7DEB790917C0290FF0AC0FD
:102160009E012F5F3F4F0E9443094B8169818A8105
:102170000E9456100F900F900F90DF91CF9108950D
:10218000CF93DF93EC01ECE7F2E0438162818C8135
:102190000E94A6108C818F5F8C83DF91CF91089570
:1021A000CF93DF93EC01EC81F0E0E950FB4F4491D9
:1021B000ECE7F2E0628181810E94A6108C818F5F42
:1021C0008C83DF91CF9108950F931F93CF93DF936B
:1021D0000BEF12E0C7EBD0E0CE010E943936F801D8
:1021E00081938F012196C93DD105B1F7CDE7D6E0A6
:1021F000FE0185919491009711F0FC0109952896B4
:10220000F6E0CD3CDF07A1F7DF91CF911F910F9151
:1022100008950F931F93CF93DF93843000F56111DE
:102220001EC024E0829F8001112450E0440F551FFE
:10223000040F151F09551F4FC8010E943936C82FBA
:10224000D0E0DC2FCC27C80101960E9439369E01D0
:10225000282BC901DF91CF911F910F91089590E034
:1022600080E0F8CF0F931F93CF93DF93843038F53E
:10227000643028F5443018F528E0629F800111246D
:1022800050E0440F551F040F151F30E2839FC0011B
:102290001124080F191FC80187960E943936C82FCC
:1022A000D0E0DC2FCC27C80188960E9439369E01E9
:1022B000282BC901DF91CF911F910F91089590E0D4
:1022C00080E0F8CF462F2091D3023091D402232B07
:1022D00091F47E3F39F46E3F71F48091D102909178
:1022E000D2020895843038F4743028F4643018F43D
:1022F000672F0C94321190E080E00895CF92DF9226
:10230000FF920F931F93CF93DF936C010091F00323
:102310008091EF03082BC7E0D0E010E0FC2EC8014D
:102320000C2E02C0959587950A94E2F780FD0CC0AB
:102330002197A0F7F12C8F2DDF91CF911F910F9155
:10234000FF90DF90CF900895B6018C2F0E9462110C
:102350000E94350A019761F3EECFCF93DF93EC0132
:102360000E947E11BE010E946211DF91CF910C94F8
:10237000350AFC0186819781009721F00E94350A79
:102380000C945C0C808191810E94AD11F9CF1F9358
:10239000CF93DF9300D000D00F92CDB7DEB7498343
:1023A0005A8389819A816623B9F02223A9F00E9479
:1023B0007E11182F682F89819A810E942D0C6981C6
:1023C0007A81812F0F900F900F900F900F90DF91D7
:1023D000CF911F910C9462110E94010C182FEFCF26
:1023E000FC01262F86819781009739F44081518125
:1023F0006281738184810C94C711089583E290E017
:102400000E943936843B89F484E290E00E94393698
:102410008E3459F485E290E00E94393691E0833998
:1024200009F090E0892F8170089580E0FCCF0F9330
:102430001F93CF93DF930BEF12E0C7EBD0E0CE01F9
:102440000E943936F80161918F01681719F0CE01A9
:102450000E944D362196C93DD10589F7DF91CF9174
:102460001F910F910895EBEFF2E0128E138E8FEA19
:1024700090E09183808385E0848F88E893E1938363
:10248000828382E390E0978B868B88EC90E0918F3B
:10249000808F158E8AE090E0978F868F80E590E0A0
:1024A00091A380A30E9417120C94E410CF93DF93A2
:1024B000C9E2D1E060E0CE010E944D362196C115FF
:1024C00084E0D807B9F7DF91CF9108950F931F9358
:1024D000CF93DF938901843028F5611123C0423006
:1024E00008F521153C4531F420912101309122015C
:1024F000232BC1F094E0899FE001112450E0440FA8
:10250000551FC40FD51FC955DF4F612FCE010E9443
:102510004D36602FCE010196DF91CF911F910F9123
:102520000C944D36DF91CF911F910F9108950F9329
:102530001F93CF93DF938901843058F5643048F5B9
:10254000443038F501152CE5120731F420912101B2
:1025500030912201232BE9F098E0699FE0011124DA
:1025600050E0440F551FC40FD51F20E2829FC001C9
:102570001124C80FD91F612FCE0187960E944D36B6
:10258000602FCE018896DF91CF911F910F910C940F
:102590004D36DF91CF911F910F910895CF93C82FA2
:1025A0006FEF811164EB83E290E00E944D366FEF94
:1025B000C1116EE484E290E00E944D366FEFC111CC
:1025C00063E985E290E0CF910C944D367F928F9233
:1025D0009F92AF92BF92CF92DF92EF92FF920F93B2
:1025E0001F93CF93DF93CDB7DEB72A970FB6F8943A
:1025F000DEBF0FBECDBFA0902101B090220181E0CF
:1026000090E0909322018093210187EFC82E85E00E
:10261000D82E10E0760100E015C0F4012591349128
:10262000472D602F812F0E94971282E0880E911C07
:10263000739494E07912F1CFE8E0EE0EF11C0F5F95
:10264000043019F04701712CE8CF21E030E040E080
:1026500060E0812F0E94661221E030E041E060E0FE
:10266000812F0E9466121F5FF0E2CF0ED11C143042
:1026700089F60E943312CE0101967C018AE0F701AF
:1026800011928A95E9F709ED10E04AE050E0B801AF
:10269000C7010E947136065F1F4F0932F1E01F0724
:1026A000A1F7B0922201A09221012A960FB6F894C8
:1026B000DEBF0FBECDBFDF91CF911F910F91FF9075
:1026C000EF90DF90CF90BF90AF909F908F907F90D2
:1026D000089580E00E94CE1260E086E290E00E94C1
:1026E0004D360E94E6120E94561281E00C94CE12E2
:1026F000CF92DF92EF92FF920F931F93CF93DF93CE
:10270000CDB7DEB72A970FB6F894DEBF0FBECDBFA8
:10271000E1E8F2E080E5DF011D928A95E9F7E5E85E
:10272000F3E088E3DF011D928A95E9F781E8C82E7E
:1027300082E0D82E7F0109ED10E0F701D182C0823E
:102740004AE050E0B801CE0101960E94293688E0A7
:10275000FE013196D60101900D928A95E1F78985A7
:102760009A85D70113969C938E931297BAE0CB0E5D
:10277000D11CE7E0EE0EF11C065F1F4F0932F1E0BD
:102780001F07D9F62A960FB6F894DEBF0FBECDBF4D
:10279000DF91CF911F910F91FF90EF90DF90CF903D
:1027A0000895CF92DF92EF92FF926B017C010E941D
:1027B0003409B701A60188E090E0FF90EF90DF9028
:1027C000CF900C945F365F926F927F928F929F9220
:1027D000AF92BF92CF92DF92EF92FF920F931F932F
:1027E000CF93DF9300D00F92CDB7DEB7182F762EA0
:1027F000042F622E90917C0290FF29C0E92FE6956C
:10280000AE2FB0E0AF57BE4F8C91809365029E7F94
:10281000923081F59E012F5F3F4F812F0E94430927
:102820004B8169818A810E94561010937D027092BB
:102830007E0200937F02662051F060917C027091CD
:102840007D0280917E0290917F020E94D1130F90B1
:102850000F900F90DF91CF911F910F91FF90EF900C
:10286000DF90CF90BF90AF909F908F907F906F90B0
:102870005F900895823019F400917F02D6CF8630A0
:1028800019F410917D02D1CF8930D9F3893169F6DD
:10289000E9518E2F8170582EE695F0E0EE50FB4FF7
:1028A000A590B490BB248AE6E82E82E0F82ED12CC5
:1028B000C12C96E0892E912CC601B4010E9454359A
:1028C000812F511013C0860F9701402F672D0E9452
:1028D0004309CA0CDB1C83E0E80EF11C8CE7E81608
:1028E00082E0F80649F70E94790E9FCF861BECCF55
:1028F000ECE7F2E0438121E1421B08F440E021E0F3
:10290000628181810C94E313ECE7F2E0438121E1E1
:10291000420F08F44FEF21E0628181810C94E313B0
:10292000ECE7F2E0628121E1621B08F460E021E063
:10293000438181810C94E313ECE7F2E0628121E1B1
:10294000620F08F46FEF21E0438181810C94E3135F
:10295000ECE7F2E0818121E04381628188500C94B0
:10296000E313ECE7F2E0818121E043816281885F3B
:102970000C94E31380918002882319F08150809396
:10298000800260917C0270917D0280917E02909124
:102990007F020C94D11380918002833018F48F5FF2
:1029A0008093800260917C0270917D0280917E0212
:1029B00090917F020C94D113ECE7F2E083E18083E5
:1029C00011828FEF8283838383E0848360817181AE
:1029D000828193810C94D1136AEE7EEF90E080E0C7
:1029E0000E946B3660E082E090E00E944D3660E02D
:1029F00083E090E00E944D361092EF0360E084E0A7
:102A000090E00E944D3660E082E290E00E944D36F8
:102A100060E085E090E00E944D3660E086E090E066
:102A20000E944D366FEF87E090E00E944D3640E007
:102A300050E0BA0188E090E00E945F3660E08DE0EF
:102A400090E00E944D3640E050E0BA0188E190E00D
:102A50000E945F3660E087E190E00E944D3640E0E2
:102A600050E0BA018CE190E00E945F3670E060E0D7
:102A700080E290E00E946B3640E050E0BA0188E1CD
:102A800090E00E945F3680E00E94CE120E9469139F
:102A900040E050E0BA018FE090E00E945F3640E0F5
:102AA00050E0BA0183E190E00C945F3690E080E062
:102AB0000E9447368A3E9E4F11F40C94FE1180E02E
:102AC00008951F920F920FB60F9211242F933F93E8
:102AD0004F935F936F937F938F939F93AF93BF9326
:102AE000EF93FF938091E10082FF09C08091E200A3
:102AF00082FF05C08091E1008B7F8093E10080918F
:102B0000DA0080FF24C08091D80080FF20C080912F
:102B1000DA008E7F8093DA008091D90080FF9DC01B
:102B200080E189BD82E189BD09B400FEFDCF81E06D
:102B30008093E5038091D703811109C00E94F106BB
:102B40000E94BC078091E20084608093E200809143
:102B5000E10080FF17C08091E20080FF13C08091E8
:102B6000E2008E7F8093E2008091E200806180939A
:102B7000E2008091D80080628093D80019BC85E083
:102B80008093E5038091E10084FF2BC08091E200F7
:102B900084FF27C080E189BD82E189BD89B5982F76
:102BA000917080FFFBCF8091D8008F7D8093D800FB
:102BB0008091E1008F7E8093E1008091E2008F7E22
:102BC0008093E2008091E20081608093E200809136
:102BD000E603882309F447C084E08093E5038091ED
:102BE000E5038091E10083FF27C08091E20083FF2D
:102BF00023C08091E100877F8093E10082E0809391
:102C0000E5031092E6038091E1008E7F8093E1005E
:102C10008091E2008E7F8093E2008091E2008061EB
:102C20008093E20042E060E080E00E948A078091A9
:102C3000F00088608093F000FF91EF91BF91AF9119
:102C40009F918F917F916F915F914F913F912F91C4
:102C50000F900FBE0F901F90189519BC1092E503AE
:102C60001092D70374CF8091E30087FD93E0909397
:102C7000E503B5CF78941F921FB61F9211248F934E
:102C80009F93AF93BF938091D0039091D103A09174
:102C9000D203B091D3030196A11DB11D8093D0033F
:102CA0009093D103A093D203B093D303BF91AF917C
:102CB0009F918F911F901FBE1F9018959C014FB739
:102CC000F8948091D0039091D103A091D203B09158
:102CD000D3034FBF821B930B08952FB7F8948091B5
:102CE000D0039091D103A091D203B091D3032FBF11
:102CF000089560917C02669570E04BE050E083E1BE
:102D000091E00E94FF35892B19F481E080936602DF
:102D10000E946D169093600280935F0208959091D7
:102D20007C0290FF36C09170811129C0926090930F
:102D30007C02662351F060917C0270917D0280914B
:102D40007E0290917F020E94D11360917C02669571
:102D500070E04BE050E083E191E00E94FF35892B69
:102D6000A9F01092660281E08093620220E0409117
:102D70007F0260917E0280917D020C94E313853284
:102D800010F09864D4CF880F982BD1CF0E94791679
:102D9000EACF089580917C028695815009F484E2FF
:102DA00061E00C948F1680917C0286958F5F85324E
:102DB00008F081E061E00C948F1690917C0290FF06
:102DC00007C09695981720F0961710F40C94D31618
:102DD00061E00C948F16CF93C82F8091260282FD5C
:102DE0000CC0809119028C1741F00E946D169093CF
:102DF000180280931702C0931902CF910895809111
:102E0000FD029091FE02892B89F00E946D1620919F
:102E1000170230911802AC01421B530B81E0209144
:102E2000FD023091FE024217530708F480E08170E2
:102E300008958091D8039091F103892B9091160207
:102E4000892B8093B80180911902882309F1809120
:102E5000FD029091FE02892B29F00E94FF1681113C
:102E60000E94B20B8091B80190911902892B809336
:102E7000B80120E08AEB91E0FC013191CF013111E2
:102E80002F5FF1E0803C9F07B9F721110E94B20B40
:102E9000E091CB03F091CC03309731F00280F381C5
:102EA000E02D88EB91E00994089580912501877FBA
:102EB000809325019091F1039D7F9093F10384FF0E
:102EC00006C08F7E8093250182E00E94C40B809112
:102ED000250185FF06C08F7D8093250180E20E9439
:102EE000C40B0C94191790E080E00E94A30890E0B6
:102EF00080E00E948D081092F103109216020C944B
:102F000019178093F0030C9473178091F003982F96
:102F10009670963019F488600C948117877FFCCFE7
:102F200021E030E001C0220F8A95EAF720958091D8
:102F3000F00382230C9481179091150280958923C8
:102F400080931502282F277091F4282F082E000C4B
:102F5000330B9217130659F09091260292FD07C089
:102F60008595859585950E9490170C94CA0B0895B8
:102F7000CF93C0912602C2FB992790F9981799F038
:102F800080FBC2F9C09326026091250284E090E0A4
:102F90000E944D366C2F82E290E00E944D3682E016
:102FA000CF910C949C17CF91089521E030E001C09F
:102FB000220F8A95EAF78091F003822B0C948117F7
:102FC0009091260292FD10C098E0899F90011124F3
:102FD000622B609315020E94D5170E946D16909384
:102FE00014028093130208950C94D5178093EF0375
:102FF0000C947317EAEBF1E086E0DF011D928A95ED
:10300000E9F70C9473171F93CF93DF93CDB7DEB717
:10301000AA970FB6F894DEBF0FBECDBF87EE93E040
:103020002091F100DC012D93CD01B3E08F3E9B0791
:10303000B9F78091E803833009F472C0B8F48130A5
:1030400009F449C0823009F4B5C08091E80083FFDB
:1030500098C28091E7039091E8039A3008F091C2FA
:10306000E92FF0E0E756F94C0C94B8358A3009F4B2
:1030700090C08B3009F471C0893039F78091E70333
:10308000813219F78091EB039091EC03009711F0D6
:103090000297D9F68091E800877F8093E8008091BD
:1030A000E80082FF38C09091F3008091F20002970F
:1030B00031F48091F100813011F0863021F480915B
:1030C000F1008093DA038091E8008B778093E80029
:1030D0000E946B07BACF8091E703813A09F0B5CF20
:1030E0008091E800877F8093E8008091EB039091C6
:1030F000EC03892B61F468E08BED93E070E00E94B3
:103100001D088091E8008B778093E8009ECF60E0F7
:1031100090E080E0F3CF8091E5038111C0CF95CF9F
:103120008091E703813A09F090CF8091EB03909171
:10313000EC03892B09F089CF8091E800877F809389
:10314000E8008091E80080FFFCCF80912701809308
:10315000F1008091E8008E77B9CF8091E70381324A
:1031600009F073CF8091EB039091EC03892B09F068
:103170006CCF8091E800877F8093E8000E946B0706
:103180008091E903809327011092D8030E94FA17D7
:103190005CCF8091E703813209F057CF8091E8003E
:1031A000877F8093E8000E946B078091EA038093F9
:1031B000D9034BCF8091E703813A09F046CF809144
:1031C000E800877F8093E8008091E80080FFFCCFD3
:1031D0008091D903BCCF803899F0823809F0D1C1F1
:1031E0008091EB038F70873008F0CBC18093E900AA
:1031F0008091EB0085FB882780F91092E90006C0DA
:103200008091E3039091E403911182609091E80032
:10321000977F9093E8008093F1001092F1008091E5
:10322000E8008E77AAC1882309F498C1823009F09A
:10323000A8C18091E90381119BC18091EB038F703C
:103240002FEF280F263008F09CC18093E9002091D1
:10325000EB0020FF8DC1933031F48091EB00806250
:103260008093EB0085C19091EB0090619093EB000F
:1032700021E030E001C0220F8A95EAF72093EA00AE
:103280001092EA008091EB008860EACF811179C149
:103290001091E9031F778091E3008078812B809360
:1032A000E3008091E800877F8093E8000E946B072D
:1032B0008091E80080FFFCCF8091E30080688093DC
:1032C000E30082E0111183E08093E5035AC1805846
:1032D000823008F056C12091E9033091EA032C3D79
:1032E000E3E03E07A1F583E08A838AE289834FB752
:1032F000F894DE01139620E03EE051E2E32FF0E087
:1033000050935700E49120FF03C0E295EF703F5FB8
:10331000EF708E2F90E0EA30C0F0C7968D939D93AA
:103320002F5F243159F74FBF8091E800877F80934A
:10333000E8006AE270E0CE0101960E941D088091CB
:10334000E8008B778093E8001CC1C096E7CF80919E
:10335000EB039091EC03432F55274330510509F4BB
:103360004AC078F54130510509F485C08BE590E0FD
:10337000EBECF6E04230510509F003C12091E80082
:10338000277F2093E8002091ED033091EE03821710
:10339000930708F49C0140E02115310509F070C045
:1033A00041116EC08091E80082FDC9CF8091E50394
:1033B000882329F2853019F28091E80083FFF2CF4B
:1033C000BECF4132510509F447C04232510509F0E0
:1033D000D8C08330910508F0D4C0FC01EE0FFF1F68
:1033E000E755FE4F0190F081E02D8A559E4FDC019C
:1033F0008C9190E01DC0332721303105E9F0211573
:10340000310579F022303105F9F02330310509F02A
:10341000B8C0E8E3F7E0E4918E2F90E0E8E3F7E04E
:1034200007C0E6E8F7E0E4918E2F90E0E6E8F7E0E9
:10343000009709F4A6C0A2CFE6E6F7E0E4918E2F4C
:1034400090E0E6E6F7E0F4CFE6E5F7E0E4918E2FD2
:1034500090E0E6E5F7E0ECCF8330910508F091C00D
:10346000880F991FFC01E155FE4F0190F081E02D7E
:1034700089E090E083CF82E190E0E6E2F7E07ECF62
:103480008091E503882309F45ACF853009F457CF9A
:103490008091E80083FD53CF8091E80082FD82CFC8
:1034A0008091E80080FF78CF9091F3008091F20046
:1034B0002115310519F08830910550F041E0089749
:1034C00009F040E08091E8008E778093E80064CFB7
:1034D00044914093F1003196215031090196E8CF93
:1034E000803809F04EC08091E800877F8093E80023
:1034F0008091E6038093F10092CE811142C0109139
:10350000E9031230F0F58091E800877F8093E800AE
:103510001093E6030E946B07112311F084E005C0AD
:103520008091E30087FDFACF81E08093E50342E0DC
:1035300061EC81E00E948A0742E261EC84E00E9433
:103540008A0742E261EC82E00E948A0742E260EC74
:1035500083E00E948A078091E50313C08091E9030C
:10356000813079F481E0933009F080E08093E403C6
:103570001092E9008091E800877F8093E8000E9424
:103580006B078091E80083FF0AC08091E800877F85
:103590008093E8008091EB0080628093EB00AA9614
:1035A0000FB6F894DEBF0FBECDBFDF91CF911F9154
:1035B00008951F920F920FB60F9211242F933F93ED
:1035C0004F935F936F937F938F939F93AF93BF932B
:1035D000CF93DF93EF93FF93D091E900DF70809159
:1035E000EC00C82FC17080FDC0E81092E900809106
:1035F000F000877F8093F00078940E940318109267
:10360000E9008091F00088608093F000CD2BCF70AE
:10361000C093E900FF91EF91DF91CF91BF91AF91FE
:103620009F918F917F916F915F914F913F912F91DA
:103630000F900FBE0F901F901895882341F0809532
:103640009091F10389238093F1030C941917089545
:10365000882339F09091F103982B9093F1030C9407
:1036600019170895882321F00E94BD0B0C94191797
:103670000895882321F00E94C40B0C941917089513
:10368000882381F19CEF980F913A78F4EAEBF1E00E
:1036900020EC31E09191891303C0DF0111971C9256
:1036A0002E173F07B9F70C94191790E2980F98302E
:1036B00050F4877091E001C0990F8A95EAF7892F3D
:1036C0000E94BD0BF0CF9BE5980F933020F490E063
:1036D00080E00C94A308885A873120F490E080E0C1
:1036E0000C948D080895CF93DF93EC010E94401B4A
:1036F000CE010E948C0C9E01205E310928303105DC
:1037000010F0CD2B21F4DF91CF910C94321BDF917F
:10371000CF910C941D1B0F931F93CF93C82F882319
:1037200009F465C08CEF8C0F813AB0F50AEB11E01B
:1037300080EC91E0F8012191C21701F121E0E03C19
:10374000F207C9F7EFEF80E0D8019D918D01C9170D
:1037500081F0EF3F19F4911101C0E82F8F5F86309F
:1037600099F7EF3F31F00E2E000CFF0BE854FE4F9F
:10377000C283CF911F910F910C941917EAEBF1E0DE
:103780002191C21303C0DF0111971C928E179F076E
:10379000B9F70E941917D6CF80E28C0F883048F411
:1037A000C77081E001C0880FCA95EAF70E94C40B78
:1037B000E0CFEBE5EC0FE33050F4F0E0E05DFE4FDE
:1037C000808190E0CF911F910F910C94A308C85A6B
:1037D000C73168F4EC2FF0E0EE0FFF1FED5CFE4FF9
:1037E00080819181CF911F910F910C948D08CF9181
:1037F0001F910F9108951F93CF93DF93182FC091BE
:103800001B03D0911C03893321F0C0911903D0917F
:103810001A03812F0E948B1B209731F4812FDF9197
:10382000CF911F910C94401B8FE99FE00197F1F716
:1038300000C000002197F0CFAF92BF92CF92DF92ED
:10384000EF92FF920F931F93CF93DF93EC018AE0E7
:10385000A82E2881222309F48CC02130C9F5998132
:103860008A81913021F422960E94FB1B05C0923080
:1038700029F422960E948B1B2196EBCF933021F4E2
:1038800022960E94401BF8CF943011F02196F4CF7D
:10389000229630E020E0AE014F5F5F4F8053990BDE
:1038A0008A30910550F02150310930F38FE99FE0C3
:1038B0000197F1F700C00000F6CFA29EB001A39ED1
:1038C000700D11249C01260F371F8981EA01E3CF77
:1038D000E22FF0E0E059FE4FB490822F8695869556
:1038E000869590E0FC01E05AFE4FE4902770F12CA1
:1038F000022E02C0F594E7940A94E2F731E0E32245
:10390000FF24FC01E05BFE4FC490D12C022E02C0CC
:10391000D594C7940A94E2F731E0C322DD24FC0178
:10392000E05CFE4F049110E002C0159507952A95C2
:10393000E2F701701127E114F10419F081EE0E9401
:103940008B1BC114D10419F086EE0E948B1B8B2DAA
:103950000E94FB1BCD2819F086EE0E94401BEF2829
:1039600019F081EE0E94401B012B09F485CF8CE2F7
:103970007BCFDF91CF911F910F91FF90EF90DF9060
:10398000CF90BF90AF900895CF93DF93EC010E944A
:103990008C0C9E01205E31092830310510F02097F3
:1039A00039F40E94391B8C2FDF91CF910C948B1B23
:1039B0000E94281BF8CF662329F02091F103226092
:1039C0002093F1039C013056211540E2340720F08A
:1039D000305E2115304108F499270C94C41CDF9205
:1039E000EF92FF920F931F93CF93DF937C018B0194
:1039F000D42E8091250182FF8CC0C0911F03D091ED
:103A00002003CE15DF0521F0E114F10409F081C097
:103A1000809125018B7F8093250181FD73C080916A
:103A20001D0390911E03A801481B590B81E02091B2
:103A30002301309124014217530708F480E081707C
:103A4000F82E80912501F0FA81F980932501FE017D
:103A500083E0F695E7958A95E1F7EE71FF27E55249
:103A6000FD4F20813181AE014F70552781E090E0FC
:103A700002C0880F991F4A95E2F7FF2009F444C05D
:103A8000822B932B918380838091D80381FF08C080
:103A90008091250180618093250182E00E94BD0B09
:103AA0008091D80385FF08C08091250180628093B2
:103AB000250180E20E94BD0B6F2DCE010E94DB1C10
:103AC000DD2031F08091160385FF02C086FF3BC0E8
:103AD0008091190390911A030E946F0E80911F0329
:103AE000909120039C013056211540E2340720F0CC
:103AF000305E2115304108F499270E94731B0E9403
:103B000055171DC081E09BCF80959095822393230C
:103B1000B9CFC701992797013056211540E23407E4
:103B200028F0305E2115304108F0C7010E94731B58
:103B300080911F03909120038E159F0501F3109330
:103B40001E0300931D03DF91CF911F910F91FF90F2
:103B5000EF90DF9008958F929F92AF92BF92CF9295
:103B6000DF92EF92FF920F931F93CF93DF9300D0DA
:103B700000D0CDB7DEB77C01FC0143815481618167
:103B800080810E94C50881112AC061E0C7010E949E
:103B9000F0118C01F7018281882309F4CBC5C8019B
:103BA00082519F45409708F013C58FEF93E00E9424
:103BB00039365EEED52ED00E09E211E0882361F190
:103BC00080911502877059F0F7018281882339F0BE
:103BD0008091260282FD03C082E00E949C170F9014
:103BE0000F900F900F90DF91CF911F910F91FF9049
:103BF000EF90DF90CF90BF90AF909F908F900895FF
:103C00000115F4E01F07E1F2C8010E943936811165
:103C100001C0DA940F5F1F4FD110F2CF19821A82C0
:103C20001B821C82CC24CA9448012FEF821A920A6C
:103C3000C8010E94393689831A82882309F4C0CFCB
:103C4000813009F048C0580132E0A30EB11CC40114
:103C50000E943936982E8A83882309F4B1CFC50192
:103C60000E943936D82E8FEF890D833068F45801C1
:103C700043E0A40EB11CDB82DD2021F0CE010196D1
:103C80000E941C1C8501D0CF54E09512FBCF580137
:103C900084E0A80EB11CC80103960E943936DD20CD
:103CA00009F48ECF882309F48BCF8150990BC89EDD
:103CB0009001C99E300D1124ED2DE150FF0BCF0175
:103CC000820F931F0197F0F2EFE9FFE03197F1F7D0
:103CD00000C00000F7CFCE0101960E941C1C5401C9
:103CE000D1CF81E00E94D5170E94851769CF81E06E
:103CF0000E949017F9CF82E0F5CF80912501816075
:103D0000809325019CC4809125018E7F809325019D
:103D10000E94551794C4809125018F7E013E1105A4
:103D200031F0053E1105C1F4809125018F7D80930E
:103D300025018091250180FF91C4F701828108321D
:103D4000110528F50E31110508F074C00430110575
:103D500080F581117FC482C4C80190568115E0E2CC
:103D60009E0720F0905E8115904118F78091250103
:103D700082FF74C48091180381FD70C42DE132E08C
:103D800040E0B60190E080E00E94EF1C67C4093378
:103D9000110558F40D32110518F40B321105C9F64E
:103DA0009091160392FDD5CF08C004361105C1F3DA
:103DB000D0CF9091160394FDCCCF882309F4A1C0F5
:103DC0009091D80380911902282F292B322F3D7F03
:103DD000B1F11092200310921F033091160331FDB0
:103DE0002EC0F80143E0F695E7954A95E1F7EE71AC
:103DF000FF27E552FD4F98012F70332781E090E0B7
:103E000002C0880F991F2A95E2F78095909520812E
:103E10003181822393239183808360E0C8010E94D3
:103E2000DB1C809119028D7F0E94EB1682E00E94BC
:103E30009C17C6CE9091160393FD8BCFBECF38E072
:103E4000F701ADE1B2E001900D923A95E1F71092E1
:103E50001F021092210210922002A0901F03B09026
:103E600020030A151B05B1F53091160335FF32C04A
:103E70004091250141FB992490F841FF02C036FF93
:103E800029C040911D0350911E03B601641B750BA0
:103E9000409113035091140364177507D8F491FFF0
:103EA00008C08091250180618093250182E00E94F5
:103EB000BD0B8091D80385FF08C0809125018062E9
:103EC0008093250180E20E94BD0B692DC5010E94EF
:103ED000DB1C76CE9091250121FB91F99093250171
:103EE0008D7F0E94EB161093200300931F03D09246
:103EF0001E03C0921D0380912501846080932501DB
:103F000095CF970140E0B601C8010E94EF1C58CE42
:103F1000043CFCE51F0709F493C048EA54E161EB57
:103F200074E1053C2CE5120709F0B9C30E942F0982
:103F300047CE093C3CE5130709F491C070F4073CF7
:103F40005CE5150709F486C04CE954E160E974E1C9
:103F5000083C9CE5190751F3A2C30A3CECE51E0797
:103F600009F482C04AEB54E16BEC74E10B3CFCE5D4
:103F70001F07E1F294C3013D2CE5120709F487C045
:103F8000B0F40E3C4CE5140709F47BC008F476C08D
:103F90000F3C8CE5180709F477C06EE089E0003D1E
:103FA0009CE5190709F07BC30E94DD1609CE043D8C
:103FB000ECE51E0709F471C078F4023D2CE5120708
:103FC00009F468C061E088E1033D3CE5130709F0AE
:103FD00066C30E948F16F4CD053D4CE5140709F425
:103FE0005FC00D35100709F4EBCD59C380917C02F9
:103FF00080FF1BC08E7F80937C0260917C02709159
:104000007D0280917E0290917F020E94D1131092D6
:1040100066028FEF90E7E2E081509040E040E1F7E8
:1040200000C000000E94790ECBCD816080937C029D
:1040300061E08695CECF4AEC56E163ED76E176CF2E
:1040400043ED56E16AEC76E171CF41EB54E168EA69
:1040500074E16CCF40E954E16CE974E167CF48E763
:1040600054E164E874E162CF44E854E168E774E144
:104070005DCF4BEC54E16AEB74E158CF61E081E035
:10408000A8CF65E082E090CF68E086E08DCF64E164
:104090008FE08ACF67E185E187CF62E289E184CF53
:1040A00061E083E296CF0B355DE5150711F10C3524
:1040B0001D4509F004C38091260282FB882780F900
:1040C00091E089270E94B817FAC21092D8030E9483
:1040D000FA179FEFE4E3FCE09150E040F040E1F795
:1040E00000C000000E944B0E0E94EC1469CD81E0DC
:1040F000E9CF80E0E7CF828100811181882369F0D8
:10410000C8010E947E11D82E682FC8010E942D0C74
:10411000B8018D2D0E946211D8C2C8010E94010C05
:10412000D82EF6CF202F2F70B22E802F807F19F03F
:10413000B29490EFB922CC20A9F0BB2059F080E2D4
:10414000810F883010F0111107C08B2D0E94C40B15
:104150000E941917812F56C08091F103B82AB0929E
:10416000F103F6CF812F0E94401BBB2009F44CC005
:1041700080E2810F883010F0111104C08B2D0E9455
:10418000BD0B06C0B0948091F103B822B092F10348
:104190000E94191739C0302F3F70B32E802F807FB7
:1041A000803219F0B29480EFB8221123E9F0113077
:1041B00009F49CC0CC2009F4A5C0DD2009F475C029
:1041C00020E0F701408151816281738184810E94E6
:1041D000C7118091180381FDBDCFF701858180FF54
:1041E000B9CF8F70858361C08091260282FF3FC066
:1041F000CC20B9F1BB2029F08B2D0E94C40B0E946A
:10420000191780E00E948B1BE92DE850FF0B3497B3
:1042100010F40E94B908812F902F0E945C0C81112C
:10422000B8C11092C1011092C001AA20A9F08091DA
:10423000150280FD11C0F70112828595859585953F
:104240000E94D517C7010E94AB1D8091150285956C
:10425000859585950E94901760E0C7010E94F01136
:10426000BECC80E00E94401BBB2071F287CFCC20E7
:1042700001F1D11004C0809119028B2917C041E0CF
:10428000D41206C0809119028B290E94EB16BCCF74
:1042900080911703823078F3D812EDCF0E94B20BD1
:1042A00080911202B812B09212028B2D0E94391B1B
:1042B000ABCFD11006C00E94B20B8B2D0E94321BD7
:1042C000A3CF8091170351E0D5120BC0823008F4C0
:1042D0009BCF8091D8038B2109F496CF0E94D10BFC
:1042E000EACF823040F3D812E6CF8ECFCC2029F02F
:1042F00085E08D1508F488CFD8CF94E09D1508F49B
:1043000083CFDBCFDD20C9F280911B0390911C038A
:10431000193321F08091190390911A030E946F0EB6
:10432000812F0E94401B70CF802F869586958370C9
:1043300069F0813009F068CF812F902F9370C11000
:1043400002C090E080E00E948D085ECF812F902F08
:104350009370C11002C090E080E00E94A30854CF87
:10436000802F837091F5C1104FCF412F4295469514
:104370004770440F440F812F8F70042E01C0880FA7
:104380000A94EAF7212F207114FF07C02FE030E0D4
:1043900001C0220F4A95EAF72095302F36953695C1
:1043A0003370323069F050F44091EF03313029F02E
:1043B000822B84230E94F61727CF842B822BFACFDF
:1043C000282B8091EF038227F5CF8695CC2011F022
:1043D000802F8170882309F417CF412F429546958D
:1043E0004770440F440F812F8F70042E01C0880F37
:1043F0000A94EAF7212F207114FF07C02FE030E064
:1044000001C0220F4A95EAF72095302F3695369550
:104410003370323069F050F44091F003313029F0BC
:10442000822B84230E948117EFCE842B822BFACF1C
:10443000282B8091F0038227F5CFF02FFF70BF2E3D
:10444000CC2029F08F2F0E94D517812F2FCF812FBD
:104450000E94321B8B2D0E949017D6CE123F89F1FD
:1044600060F4103FB9F0113F81F0CC2009F48CC00A
:10447000D11070CE802F8F7128C0133F49F1143FA7
:10448000A1F78091260282FF2FC0802F8F71CC2050
:1044900011F31BC0CC2081F024E02D1508F4B4CE1C
:1044A000202F2F7181E090E001C0880F2A95EAF754
:1044B0009091F0038927B6CF35E03D1508F4A4CEDE
:1044C000EFCF802F8F71C110C6CF0E94D5179CCE21
:1044D00080E0CC2009F4A6CF81E0902F9F7101C02D
:1044E000880F9A95EAF79ECF809117038230A0F14A
:1044F00080911202CC20F1F00E94BD0B8091150238
:104500008770843041F40E94CA0B802F8F710E9403
:104510009017A12C79CE80911703D816D0F7402F91
:104520004F71B42E842F0E94D51763E08B2D0E940B
:10453000E017EFCF0E94C40B80911703D81640F00C
:104540000E94CA0B0E94D10B64E0802F8F71EFCFC5
:1045500081E00E949C17DDCFCC2059F0502F5F7175
:10456000B52E852F0E94D51763E08B2D0E94E01792
:104570004BCE81E00E949C1781E08D1508F044CE5F
:1045800082E00E949C1740CED110BECE802F8F714A
:1045900062CFCC2019F0D11044CE47CED11041CEFD
:1045A00020E0F701408151816281738184810E9402
:1045B000C7118091180383FF34CE8091C001909180
:1045C000C101029709F02DCE812F0E94FB1B29CE3D
:1045D0000031FFE51F0709F484CB01312FE51207F5
:1045E00009F489CB8091160380FF38C00E946D16B4
:1045F0006C01F7018281882309F48DCB809125011C
:1046000082FF08C02DE132E040E0B60190E080E09A
:104610000E94EF1C0B31FCE51F0709F46ECB0C3137
:104620002CE5120709F46FCB90912501892F8E7F1D
:1046300090FF81600A313CE5130709F467CBC8019C
:104640009056811540E2940728F0905E81159041C4
:1046500008F06FCB1092200310921F03F7018281A4
:10466000882369F18091D80382720C3CFCE51F0716
:1046700009F4FFCC08F07FCC063C3CE5130709F4B5
:10468000E4CC08F056CC033C5CE5150709F4D3CC28
:1046900008F03ECC023CECE51E0709F4A7CC0A3535
:1046A000FDE51F0709F423CD08F0FDCC01153CE51D
:1046B000130709F40ACD0E3D1C4509F415CDF70189
:1046C00086819781009709F416CD0E94350A182F2C
:1046D000092FF701C280D580D2943FE0D322809188
:1046E00015028770C1F0AC2CCC20B1F0892F807FEF
:1046F000803421F080E2810F883068F080912602BA
:1047000082FD09C082E00E949C178091150287708B
:10471000AA24A3948111A12C902E92942FE092228E
:10472000FBE0F91508F470CDE92DF0E0ED55F94CFA
:104730000C94B83500313FE5130709F4D8CA0131AC
:104740004FE5140709F04ECF82E0D2CACF92DF9234
:10475000EF92FF920F931F93CF93DF938091CD0140
:10476000807F31F48091CA01C091110281110BC088
:10477000DF91CF911F910F91FF90EF90DF90CF903D
:1047800008952196C7708091D0018C1789F3F0901D
:10479000C801E090C901C090CB01D090CC01A60126
:1047A0006E2D8F2D0E94C508D0E08111EACF8E01B9
:1047B00083E0000F111F8A95E1F7F801EF52FE4FD9
:1047C00081818E11DECF80818F11DBCF82818111BB
:1047D000D8CFE380F480EC18FD0860E088EC91E02D
:1047E0000E94F0118091130390911403E816F906CA
:1047F00040F68091CD018F7080618093CD01F801EA
:10480000EA52FE4F80818F708061808388EC91E056
:104810000E94AB1DDF91CF911F910F91FF90EF9000
:10482000DF90CF900C94F70B3F924F925F926F9274
:104830007F928F929F92AF92BF92CF92DF92EF9230
:10484000FF920F931F93CF93DF93CDB7DEB765979A
:104850000FB6F894DEBF0FBECDBF8C0185E0F80126
:10486000DE01519601900D928A95E1F7D8014C90A6
:1048700011965C9011971296EC9012971396CD902A
:10488000DC9060E088EC91E00E94F01188ECA82EAA
:1048900081E0B82E8090CB019090CC01A401609172
:1048A000C9018091C8010E94C5088111CAC1F09058
:1048B000CA01F601E819F9094F0160E0FF2009F487
:1048C0006DC1C5010E94F011609013037090140334
:1048D0003090CD018614970408F013C14091CB01AC
:1048E0005091CC01B090C801A090C901832D807F68
:1048F0006A2D09F0ADC08B2D0E94C508FE2C8111D8
:104900003BC0D80111968C9111978A1135C08C91BA
:104910008B1132C02091CE013091CF0116968D912E
:104920009C912817390741F5E11026C0832D8F701F
:1049300080618093CD0188EC91E00E94AB1D809155
:10494000CD01F80185838F2D65960FB6F894DEBFF3
:104950000FBECDBFDF91CF911F910F91FF90EF90D0
:10496000DF90CF90BF90AF909F908F907F906F908F
:104970005F904F903F900895F4EF6F16F1E07F063F
:1049800020F48091180380FF21C0A601652D842D9D
:104990000E94C508811118C081E08E2580FF16C0D5
:1049A0004E2D652D842D0E94D70B882379F088EC3D
:1049B00091E00E94AB1D88E0E8ECF1E0DF011D9280
:1049C0008A95E9F7F12CBFCF80E0E8CFA601652DED
:1049D000842D0E94C508811124C081E08E25B82F46
:1049E000B170CB2E80FF2BC04E2D652D842D0E94E3
:1049F000D70BD82E811123C0498A5A8A89899A896E
:104A00000E94AD11292F22952F70223060F02430A2
:104A100088F49F7061F0F8019581907F41F4FD2C3E
:104A200092CF80E0DCCF9F7011F08823C1F3805ECD
:104A30008830A8F3C8010E94AB1DDC2CF0CFEE201B
:104A400009F481CF8091CD0181608093CD01BACFEF
:104A50008B2D0E94C508811124C0D80111968C911C
:104A600011978A111EC08C918B111BC02091CE0111
:104A70003091CF0116968D919C9117972817390781
:104A800081F4E1100EC015963C92C8010E94AB1D46
:104A900088E0F801A8ECB1E001900D928A95E1F769
:104AA00052CFC8010E94B911882339F1EE2029F1B3
:104AB0008091CD018032A0F02091C8013091C901D0
:104AC0003A8729871B86DD86CC868E878091CE012A
:104AD0009091CF01988B8F87CE0109960E94AB1DD4
:104AE00088E0F801A8ECB1E001900D928A95E1F719
:104AF0000E94A623FF24F39426CFC8010E94AB1D79
:104B0000F9CF832D807F09F452CF9090C801809017
:104B1000C9014091CB015091CC01682D892D0E9493
:104B2000C50881111CC0F8018181881118C08081DD
:104B3000891115C02091CE013091CF0186819781D6
:104B40002817390761F4E1100AC03582C8010E94B4
:104B5000AB1D88E0D5011D928A95E9F7F4CEC80116
:104B60000E94B911882349F2EE2039F28091CD01DB
:104B7000803208F4B5CF2091C8013091C9013A8341
:104B800029831B82DD82CC828E838091CE0190911D
:104B9000CF0198878F83CE010196A0CF88EC91E05A
:104BA0000E94F011809113039091140388169906C6
:104BB00080F6FE2CEE2009F4A0CFE090C801D09042
:104BC000C9014091CB015091CC016D2D8E2D0E94D9
:104BD000C508811128C0F80181818D1124C0808110
:104BE0008E1121C02091CE013091CF018681978115
:104BF00028173907C1F48091180382FD49CF90919D
:104C0000CD0190FD45CF907F09F442CF8091CD0139
:104C10008583903F09F439CF982F907F905F8F70F4
:104C2000892B858332CFC8010E94B911811158CFD9
:104C30008091CD0181608093CD01C8010E94AB1DA0
:104C400082CEEE2009F459CFC8010E94B911F82E86
:104C5000882309F452CF88E0F801A8ECB1E0019074
:104C60000D928A95E1F78091C8019091C9010E9447
:104C7000AD110E94A62367CECF93DF93CDB7DEB7E9
:104C800060970FB6F894DEBF0FBECDBF29873A8775
:104C90004B875C876D877E878F87988BCE010996BF
:104CA0000E94142481112FC088E0FE013996DE0194
:104CB000119601900D928A95E1F74C855D856A8584
:104CC00089850E94C50881111EC0A091D001B0E065
:104CD000CD01019687709927209111022817190696
:104CE00009F193E0AA0FBB1F9A95E1F7AF52BE4FAF
:104CF00098E0FE01319601900D929A95E1F780932C
:104D0000D0010E94F70B809111029091D00189137C
:104D100019C060960FB6F894DEBF0FBECDBFDF910D
:104D2000CF9108951092D8030E94FA171092D001E3
:104D30001092110288E0E8ECF1E0DF011D928A9503
:104D4000E9F7E1CFB8E08B9FC00111248F529E4F4D
:104D50000E9414248823E9F28091110290E00196C8
:104D60008770992780931102CECFEF92FF920F9315
:104D70001F93CF93DF9380912403882361F0C09128
:104D800023038CE0F82E80912403C81758F010926A
:104D9000240310922303DF91CF911F910F91FF9075
:104DA000EF900895EE24E394EC0EE09223030C2F91
:104DB00010E0CF9DE0011124CB5DDC4F4B815C8185
:104DC000698188810E94C50881111BC08E819F81E5
:104DD000892B21F488859985019651F428813981A0
:104DE0004A815B816C817D818E819F810E943C26FE
:104DF000F09EF001F19EF00D1124EB5DFC4F14824A
:104E00001382CE2DC0CF1092C8031092C703109208
:104E100026018091C6038093C5030E94FE080C946E
:104E2000B5263F924F925F926F927F928F929F92A0
:104E3000AF92BF92CF92DF92EF92FF920F931F93A8
:104E4000CF93DF93C091C50397E0892E01E010E076
:104E50002CE0322E3EEF932E442443948091C603DF
:104E60008C1315C00E94B526DF91CF911F910F9131
:104E7000FF90EF90DF90CF90BF90AF909F908F907A
:104E80007F906F905F904F903F900C94FE08D0E021
:104E9000FE01EE0FFF1FE354FC4F80819181889E3D
:104EA000D001899EB00D1124AB57BC4F14962C91A4
:104EB0001497211157C050902403E5E2F3E030E04D
:104EC00020E0712C5D01251508F04AC0E284F384CE
:104ED000D501CD90DC906FEF7FEF612C462D50E037
:104EE000DA01AA0FBB1FAC0DBD1D0D90BC91A02D0A
:104EF000109731F0EA16FB0609F4BA016394EECF7D
:104F00006F3F7607A1F1D80102C0AA0FBB1F6A95B7
:104F1000E2F77A2AB80102C0660F771F6A94E2F7B7
:104F2000AB014150510974161506F9F4329EF00197
:104F3000339EF00D1124EB5DFC4F889ED001899EBD
:104F4000B00D1124AB57BC4F12962D913C91139785
:104F500037832683908291829187808715964C9221
:104F60000E94D0082196C37079CF148213822F5FDC
:104F70003F4F3C96A8CFBF92CF92DF92EF92FF9225
:104F80000F931F93CF93DF9300D000D0CDB7DEB740
:104F900019821A821B821C8201E611E0BB24B394A1
:104FA000EE24E394F12C99E6C92E91E0D92ED80194
:104FB0008D918D018F3F09F444C0F894E82FE2955C
:104FC000EF70F0E021A18F70A70102C0440F551FC0
:104FD0008A95E2F7CA01922F982B91A392A180950E
:104FE000892382A3789400C065E671E0FE013196C2
:104FF0004B2D4095DB019D91BD0180819F3F09F4C0
:1050000065C0292F22952F7030E0D90190962C9100
:1050100030E09F7002C0359527959A95E2F720FD04
:1050200055C08B2980833196C616D70619F7F8012B
:10503000319780818F3F11F00E94DB09B0EABA9569
:10504000F1F7BB0CE1E005361E0709F0B0CF44E0F4
:1050500050E0BE016F5F7F4F87E292E00E940C3606
:1050600011E0009709F410E0892B91F189819A8170
:10507000AB81BC818093270290932802A0932902E0
:10508000B0932A0281E080931C020E946D169093D7
:105090001B0280931A0280911A0290911B020E94B7
:1050A0005E160597C8F08091270280935B0280917D
:1050B000280280935C028091290280935D02809196
:1050C0002A0280935E0210921C0206C08423AACF9B
:1050D00080911C028111DFCF809126018823F9F095
:1050E0008091C7039091C8030097C9F00E945E1693
:1050F00020912103309122032817390780F49091E1
:10510000C5038091C6039817D9F10E941127109208
:105110002203109221031092C8031092C7038091BA
:10512000160380FF1EC08091250182FF1AC00E94D5
:105130006D1620911D0330911E03AC01421B530BD1
:1051400020912301309124014217530750F02DE1A3
:1051500032E041E0BC0180911F03909120030E9446
:10516000EF1C812F0F900F900F900F90DF91CF9138
:105170001F910F91FF90EF90DF90CF90BF90089517
:105180000E94B5261092C8031092C7030E94FE0821
:10519000C6CF2F923F924F925F926F927F928F92E3
:1051A0009F92AF92BF92CF92DF92EF92FF920F93B6
:1051B0001F93CF93DF93CDB7DEB769970FB6F894FF
:1051C000DEBF0FBECDBF942F498B252F5A8B6B8B23
:1051D0007C8B8D8B4C895D89622F892F0E94C5083D
:1051E000811109C08091C0019091C10101969093F5
:1051F000C1018093C0018B8981111092F1031D863A
:105200001E861F86188A85E0FE017196DE011996BA
:1052100001900D928A95E1F78091260282FD1EC0D1
:105220008091FD029091FE02892BC1F00E946D16C3
:105230002091130230911402821B930B2091FD02E6
:105240003091FE028217930720F08091150282FFB1
:10525000F5C10E94FF1681110E94B20B4C855D853D
:105260006A8589850E94C508811111C061E0CE015F
:1052700009960E94F0116C018B8527EFC2162CE570
:10528000D20681F4882321F181E0809326012985CB
:105290003A854B855C856D857E858F8598890E94D2
:1052A0003C26C5C038EFC3163CE5D30629F4882355
:1052B00079F00E940327EBCF49EFC4164CE5D406E2
:1052C00039F4882329F0809126018111F2CFDCCFB7
:1052D00005E813E0512CB12CA12C22242394312C6D
:1052E0002EEF422EF8014081518188248A94982C17
:1052F00020E0822F90E0FC01EE0FFF1FE40FF51F6E
:10530000608171816115710531F0C616D70609F407
:105310004C012F5FEECFF12CFFEF8F169F0609F4A3
:1053200048C0F8014481F09026018F2D411180E0A2
:10533000F82FF170FF2EF801E58086819B85992377
:1053400009F40CC1FF2009F409C1609011037090A9
:105350001203E11012C0A10101C0440F8A94EAF7C0
:10536000842B8683809121039091220386159705D3
:1053700020F47092220360922103C10102C0880FC1
:10538000991F2A95E2F70197F80126812817190637
:1053900081F48091C7039091C803009709F460C01D
:1053A0000E945E166816790608F05AC021E0F801DE
:1053B00024835F28FFEFAF1ABF0A095F1F4F28E061
:1053C000A216B10409F08ECF8B85882309F421C180
:1053D000552009F41EC10E946D169093C803809356
:1053E000C70380912403883010F591E0980F9093C3
:1053F000240398E0FE013996DE01119601900D928A
:105400009A95E1F73CE0839FC00111248B5D9C4F8E
:1054100028E0FE013196DC0101900D922A95E1F71A
:105420002FEF3FEFFC0131872087D386C286699634
:105430000FB6F894DEBF0FBECDBFDF91CF911F91A5
:105440000F91FF90EF90DF90CF90BF90AF909F9023
:105450008F907F906F905F904F903F902F90089526
:105460008091C5035091C603982FF0E0E0E08513CA
:1054700014C09093C503E017F10709F49ACF90E0A8
:10548000FC01EE0FFF1FE354FC4FB182A082019696
:10549000837099278093C6038CCF682E712CF301FB
:1054A000EE0FFF1FE354FC4F2081318147E0429F04
:1054B000D001439FB00D1124AB57BC4F6D917C912F
:1054C0001197798F688F40E020E030E0E32FF0E023
:1054D000EE0FFF1F688D798DE60FF71F808091809A
:1054E00081149104E1F0F8010190F081E02DFF8B2F
:1054F000EE8B20E005C08616970609F44F2D2F5F2E
:10550000E22FF0E0EE0FFF1F6E897F89E60FF71F95
:10551000608171816115710571F73F5FD7CF4423B9
:10552000D1F0F801231708F0FD0121E024830E17C4
:105530001F0721F49093C503F42E3BCF981305C0A9
:10554000AE17BF0711F49F5F937093012F5F3F4F1A
:10555000822F83708CCFF0E0E0E0F7CF90E0E11095
:105560001FC0B10102C0660F771F2A95E2F79B01A9
:10557000215031098217930731F4442309F447C0BD
:10558000C5010E94D008C10101C0880F8A94EAF7C2
:10559000982F9095F801868189238683FE2C09CF68
:1055A0009C01082C02C0359527950A94E2F7A901C1
:1055B00041705527BC016150710986239723892BBF
:1055C00011F5452B01F1F80182819381892BC1F0FE
:1055D0001B821C821D821E8249824A820E946D1695
:1055E0008160582F9D838C83F801828193818F8302
:1055F000988729813A814B816D817E810E943C266A
:10560000F8011582C0CFF22FF170EF2EBCCFEF2C36
:10561000BACF9091C5038091C603981731F00E94CC
:105620001127552009F433CE02CF0E94B5261092DF
:10563000C8031092C7030E94FE08F3CF82E00E94C5
:105640009C1707CECF93DF9300D000D00F92CDB739
:10565000DEB79093D2028093D102811520E29207A7
:1056600048F40F900F900F900F900F90DF91CF9113
:105670000C94731B8EEF89838A831B820E946D16A4
:105680008160782F9D838C8349815A816B818D81C4
:105690000F900F900F900F900F90DF91CF910C947F
:1056A000C928CF93DF9300D000D00F92CDB7DEB7DB
:1056B0009093D2028093D102811520E2920748F4A0
:1056C0000F900F900F900F900F90DF91CF910C944F
:1056D000C41C8EEF89838A8381E08B830E946D16C0
:1056E0008160782F9D838C8349815A816B818D8164
:1056F0000F900F900F900F900F90DF91CF910C941F
:10570000C928BF92CF92DF92EF92FF920F931F931F
:10571000CF93DF93B82EC090F0038091EF03C82A97
:10572000C7E0D0E0D12CF12CE12CD701C6010C2E22
:1057300004C0B695A795979587950A94D2F780FFF0
:105740001FC04B2D60E08C2F0E9409118C0181300D
:105750009105B1F00E94512B8FE39CE90197F1F77D
:1057600000C00000C8010E94222B81E0DF91CF9190
:105770001F910F91FF90EF90DF90CF90BF90089511
:10578000219798F64B2D60E080E00E940911EC0112
:105790000E94512B8FE39CE90197F1F700C00000B4
:1057A000CE01E1CF1F921FB61F9211248F939F93BA
:1057B000AF93BF938091CF03811113C08091D00329
:1057C0009091D103A091D203B091D3034196A11D32
:1057D000B11D8093D0039093D103A093D203B093D3
:1057E000D303BF91AF919F918F911F901FBE1F90C8
:1057F0001895CDB7DEB7E9970FB6F894DEBF0FBEA8
:10580000CDBF84B7877F84BF0FB6F894A8958091E9
:105810006000886180936000109260000FBE80E895
:1058200090E00FB6F89480936100909361000FBEF2
:1058300085B7806885BF85B7806885BF89ED99E0A9
:105840009093B7018093B6010E9478130E94E410F0
:105850000E94F1060E94BC078091E2008460809360
:10586000E20078948091E5038823A1F01091E9008B
:105870001F709091EC00892F817090FD80E8182BAB
:105880001092E9008091E80083FD0E9403181F70C8
:105890001093E90082E084BD93E095BD9AEF97BD37
:1058A00080936E000E94FE11811102C00E94691354
:1058B00080EF0E94DB0985EF0E94DB0984EF0E94E4
:1058C000DB0986EF0E94DB0987EF0E94DB0981EF8D
:1058D0000E94DB0986E90E94DB0987E90E94DB0957
:1058E00084E0EBE5F2E0DF01282F1D922A95E9F72D
:1058F000E7E2F2E0DF011D928A95E9F70E94561572
:10590000811102C00E94EC1482E090E00E943936BE
:105910008093540284E090E00E943936182F82E28E
:1059200090E00E943936982F812F90932602809321
:1059300025020E94BB27BFEFE6E7F1E0B150E0404F
:10594000F040E1F700C000000E94BB2780915B029D
:1059500080FF08C06FEF7FEF90E080E00E946B3621
:105960000E944B0E83E090E00E9439360E94F617A9
:105970001092510280E88093F2030E944D346DE052
:1059800070E083E092E00E94790D892BE9F5809127
:10599000510263E070E081FDB2C180E092E00E94BC
:1059A000790D892B89F56DE070E080EF91E00E9420
:1059B000790D892B49F50E948108605A75418F4FF6
:1059C0009F4F6093D5027093D6028093D702909335
:1059D000D802EBEFF3E080E092E0DF019C011D9242
:1059E00021503040E1F7F093FC05E093FB058FEF89
:1059F0009FEF9093FA038093F90381E08093DA029A
:105A00008093D9021092520280912B02811133C0EF
:105A10000E945615811104C00E94EC140E94DC14EF
:105A200088E090E00E94413660937C0270937D0292
:105A300080937E0290937F026E7F71F40E94DC144B
:105A400088E090E00E94413660937C0270937D0272
:105A500080937E0290937F020E9434091092660226
:105A600080917C0280FF04C060E086950E948F16C2
:105A700081E080932B0226982E9A25982D9A83B147
:105A800086FB882780F91D993DC190E0892B809382
:105A9000300280E091E09093CC038093CB038BE5C0
:105AA00092E034E0380F3FABCE0101967C0180914B
:105AB000E503853011F540E4D42ECC24C39400E1F5
:105AC00012E18091E503853009F41EC11092D803DC
:105AD0000E94FA170E94B90810922D0280912C02A0
