:100000000C947A030C94C1030C94C1030C94C103A7
:100010000C94C1030C94C1030C94C1030C94C10350
:100020000C94C1030C94C1030C94802B0C943C2BB6
:100030000C947D2C0C94C1030C94C1030C94C1034B
:100040000C94C1030C94C1030C94C1030C94C10320
:100050000C94C1030C94592C0C94C1030C94C1034F
:100060000C94C1030C94C1030C94C1030C94C10300
:100070000C94C1030C94C1030C94C1030C94C103F0
:100080000C94C1030C94C1030C94C1030C94C103E0
:100090000C94C1030C94C1030C94C1030C94C103D0
:1000A0000C94C1030C94C1030C94C1030501090213
:1000B000A10185020901A100050919012905150001
:1000C00025019505750181029501750381010501E1
:1000D000093009311581257F950275088106093897
:1000E0001581257F950175088106050C0A380215D2
:1000F00081257F950175088106C0C005010980A191
:1001000001850319012AB700150126B7009501756D
:10011000108100C0050C0901A101850419012AA064
:1001200002150126A002950175108100C00660FF2E
:100130000961A1010962150026FF0095207508815B
:10014000020963150026FF00952075089102C0057D
:10015000010906A101050719E029E7150025019508
:1001600008750181029501750881010507190029AB
:10017000FF150026FF009506750881000508190186
:100180002905950575019102950175039101C0003E
:10019000000000000000000000000000000000005F
:1001A000000000000000000000000000000000004F
:1001B0000000007E0F00D4FFFFFFC70000007800A2
:1001C000000000000000002A2B28000000000000B2
:1001D0000000000000000000000029000000002CCA
:1001E0001E3420212224342627252E362D37382769
:1001F0001E1F202122232425263333362E37381F75
:100200000405060708090A0B0C0D0E0F1011121336
:100210001415161718191A1B1C1D2F3130232D35D4
:100220000405060708090A0B0C0D0E0F1011121316
:100230001415161718191A1B1C1D2F3130354C00B8
:10024000047F3F1F643214643214783C1E1E140A6B
:1002500005FD377A585A000004E6D6B4460200215C
:100260000116000000742FE5A3E0011400AE5D004C
:100270003D8889C65436C3174FE4E33D72CAAE3792
:1002800040A66AB40DEB7BA319CDDF28C44AC698FB
:10029000E281153BF70CF6BFB59345A0AC34142AA8
:1002A000CB5E1D51330B82D6FC57DEF69343A9DF9C
:1002B000C9FDCFEAA34606B47E4B32DF220B3908D4
:1002C000F15297C285F08D65C2CEA26691838DE012
:1002D000D92F37AD23F45C2218EE890B123E65400E
:1002E000E7C423B67985355B519BD9D04FEF2E51AA
:1002F00035A5E485847BCBD3289C59D3A760CBB6A6
:100300008C822E4DF9138241D114A1F27C224D161C
:1003100058962CA65EF2A9063B90FD6580880000E9
:10032000006460C36C8CFCAC730001CA01950200D0
:100330000047055CC7B1C467FB0200000000045918
:100340005A00010101010101010101020202020240
:10035000020202020303030303030303040404046D
:100360000404040505050505060606060607070735
:10037000070708080808090909090A0A0A0B0B0BEC
:100380000C0C0C0D0D0D0E0E0E0F0F0F1010111189
:10039000111212131314141515161617171818190D
:1003A000191A1A1B1B1C1D1D1E1E1F202021222274
:1003B000232424252626272829292A2B2C2D2D2EB7
:1003C0002F30313232333435363738393A3B3C3DD1
:1003D0003E3F404142434445464748494A4C4D4EC2
:1003E0004F50515354555658595A5B5D5E5F616288
:1003F00064656668696B6C6D6F7072737577787A17
:100400007B7D7E8082838587888A8C8E8F91939571
:1004100096989A9C9EA0A2A3A5A7A9ABADAFB1B395
:10042000B5B7BABCBEC0C2C4C6C9CBCDCFD1D4D675
:10043000D8DBDDDFE2E4E7E9EBEEF0F3F5F8FAFD17
:10044000FFFFAA7F55402223252628292A2C2D2F5D
:100450003032333536383A3B3D3E404243454749DA
:100460004A4C4E5051535557595A5C5E606264660F
:1004700068696B6D6F71737577797B7D7F8183851B
:1004800087898A8C8E90929496989A9C9E9FA1A31D
:10049000A5A7A8AAACAEAFB1B3B4B6B8B9BBBCBE41
:1004A000BFC1C2C3C5C6C7C9CACBCCCDCED0D1D2BD
:1004B000D2D3D4D5D6D7D7D8D9D9DADADBDBDBDCBF
:1004C000DCDCDCDCDDDDDDDDDCDCDCDCDCDBDBDB6B
:1004D000DADAD9D9D8D7D7D6D5D4D3D2D2D1D0CECB
:1004E000CDCCCBCAC9C7C6C5C3C2C1BFBEBCBBB9D0
:1004F000B8B6B4B3B1AFAEACAAA8A7A5A3A19F9E4E
:100500009C9A98969492908E8C8A89878583817F15
:100510007D7B79777573716F6D6B696866646260F6
:100520005E5C5A5957555351504E4C4A49474543C2
:1005300042403E3D3B3A3836353332302F2D2C2A5F
:10054000292826252322AC00A842AB00AD00AE002E
:10055000AF00B200B100B341C35CC25CC45CCB5C11
:10056000CC5CC95CC75CC85C0100010001000100F3
:100570000100010001000100010001000100010073
:100580000100010001000100010001000100010063
:1005900001009C0300000200020098030000030019
:1005A00001009D0300000400020082032D060500E7
:1005B00001009E0300000600020084030000070003
:1005C00002009A030000080001009F0300000900D8
:1005D0000200860308060A000200880308060B00D2
:1005E00002008A0308060C0002008C0308060D00B6
:1005F00002008E0308060E000200900308060F009A
:10060000020092030806100002009403080611007D
:1006100002009603080612000200A0030000130067
:100620000200A203000009025B00030100A0FA0916
:100630000400000103010100092111010001224011
:10064000000705810308000A0904010002030000F5
:100650000009211101000122220007058203200068
:100660000107050303200001090402000103000043
:1006700000092111010001228100070584032000E7
:100680000A1201000200000008EDFE01170200013D
:100690000203011C037600690061006C003A0066E9
:1006A0000036003400630032006200330063000053
:1006B000001C034E006F006F0064006C006500209A
:1006C0000050006100640020007600320000001E2F
:1006D0000354006800650020004D006100640020A4
:1006E000004E006F006F0064006C006500000004A5
:1006F0000309040011241FBECFEFDAE0DEBFCDBF37
:1007000004B603FE27C08091CF039091D003A0913F
:10071000D103B091D2038730904BA740B04BD1F4B6
:100720001092CF031092D0031092D1031092D203F3
:1007300014BE84B7877F84BF0FB6F894A8958091C4
:100740006000886180936000109260000FBEE0E05E
:10075000F8E3099511E0A0E0B1E0E0E0FBE602C0BB
:1007600005900D92AC3AB107D9F723E0ACEAB1E0BD
:1007700001C01D92AF3CB207E1F70E94A42C0C947B
:100780004C350C940000E8EDF0E080818E7F808392
:100790001092E2001092DA001092E100A0EEB0E0B8
:1007A0008C9181608C9380818F77808319BCA7EDB9
:1007B000B0E08C918E7F8C9380818F7E80831092AD
:1007C000B50308952091E4003091E50095E6A90174
:1007D0002091EC00822F817020FF06C08091E800FC
:1007E00080FF06C080E008952091E80022FD1AC035
:1007F0008091C203882389F0853089F08091EB00D5
:1008000085FD0FC02091E4003091E50042175307A9
:10081000F9F29150E1F684E0089582E0089583E0D2
:10082000089581E00895EF92FF920F931F93CF9365
:100830007C018B010E94E203C82F811117C08091B7
:10084000E80085FD0BC08091E8008E778093E8007A
:100850000E94E203882399F3C82F08C0F701819111
:100860007F018093F1000150110949F78C2FCF913E
:100870001F910F91FF90EF9008958091C40387FF1F
:1008800013C08091E80082FF06C08091E8008B775A
:100890008093E80004C08091C2038111F2CF0895D3
:1008A0008091C2038823D9F38091E80080FFF8CFBC
:1008B0008091E8008E77ECCF982F9093E900242F59
:1008C000762F50E0891731F07091EC002091ED0007
:1008D0005091F00021FD07C09F5F973071F7809322
:1008E000E90081E008953091EB003E7F3093EB000A
:1008F0003091ED003D7F3093ED003091EB003160A1
:100900003093EB007093EC002093ED005093F000D7
:100910002091EE0027FDE0CF80E00895CF92DF9296
:10092000EF92FF920F931F93CF93DF93C8EDD0E028
:1009300088818F7E8883E7EDF0E08081816080830D
:1009400084E082BF81E08093B50388818E7F8883B5
:1009500002EE10E0F80110821092DA0081EEC82E4B
:10096000D12CF601108288818F77888388818068F6
:10097000888388818F7D888319BC1092C20310926E
:10098000C3031092C1031092C00390EEE92EF12C24
:10099000F70180818B7F808388818160888342E03A
:1009A00060E080E00E945C04F60180818E7F80839D
:1009B000F801808181608083808188608083F70175
:1009C00080818E7F8083888180618883DF91CF9151
:1009D0001F910F91FF90EF90DF90CF900895FC0151
:1009E0008091CA039091CB0386179707A0F06115F9
:1009F000710529F49091E8009E779093E80090E0CB
:100A00006115710551F4911108C08091E80082FFD1
:100A100034C080E00895BC01F2CF8091C2038823E6
:100A2000C1F18530C1F18091E80083FD30C0809133
:100A3000E80082FDEACF8091E80080FFE1CF80915D
:100A4000F3002091F200382F6115710519F028305C
:100A5000310558F091E02830310509F090E02091FF
:100A6000E8002E772093E800CBCF81918093F100AE
:100A7000615071092F5F3F4FE7CF8091C2038823F8
:100A800041F0853041F08091E80083FFBECF81E0E6
:100A9000089582E0089583E0089508958091B70352
:100AA00008959C014FB7F8948091AE039091AF03E5
:100AB000A091B003B091B1034FBF821B930B089577
:100AC0002FB7F8948091AE039091AF03A091B0033B
:100AD000B091B1032FBF08959C01FC0132969FEFA6
:100AE00080E04191461751F09F3F19F4411101C038
:100AF000982F8F5F8630A9F79F3F09F40895290F3B
:100B0000311D97FD3A95F901628308952091AB0359
:100B10003091AC032817390771F09093AC038093A0
:100B2000AB03E091A903F091AA03309721F0008470
:100B3000F185E02D099408952091A7033091A80331
:100B40002817390771F09093A8038093A703E091C9
:100B5000A903F091AA03309721F00680F781E02DD8
:100B600009940895E091A903F091AA03309721F028
:100B70000190F081E02D099480E00895452B39F033
:100B8000682381E06F3F09F080E08170089581E083
:100B9000FCCFDC0160917E0380917F03962F891347
:100BA00001C00895292F30E0F901EE0FFF1FEA5828
:100BB000FC4F408151814A175B07A1F487E08A9F6F
:100BC000A0018B9F500D1124425C5C4F81E0FA0123
:100BD00084839613E6CF2F5F3F4F237033272093F4
:100BE0007E0308952F5F3F4F922F9370D8CF1092BE
:100BF000DB021092DA02EEE3F3E08581811102C09C
:100C000014821682379683E0E637F807B1F7089525
:100C1000E2E8F3E0848195812AE030E0B9010E94A6
:100C200031346093230186818093220182858093F1
:100C3000210184858093200186859785B9010E94D2
:100C4000313460931F01808980931E0182898093D3
:100C50001D01848980931C010895809182039091E5
:100C6000830390932501809324010895FA01811153
:100C700001C0FB010994089580915C02982F9E7F2A
:100C800029F48170826080935C0208958A34E8F3CD
:100C900081708864F8CFAF92BF92DF92EF92FF929B
:100CA0000F931F93CF93DF93082F162FE901E42FA3
:100CB000F0E0EF5BFC4F611110C0E4915E2F4E2F0E
:100CC0004983E8835A83DF91CF911F910F91FF9061
:100CD000EF90DF90BF90AF900895E62EF12C4491F5
:100CE000D42EE42FF0E026E0829FC00111242FEFE4
:100CF00030E0B9010E943134802F90E0880F991FB5
:100D000055E5569FD001579FB00D11248A1B9B0BB0
:100D1000982F990F890F5901AE18BF08AE9ED001C8
:100D2000AF9EB00DBE9EB00D11245B2F189F8001A9
:100D30001124012F11275901A01AB10AAE9E80017A
:100D4000AF9E100DBE9E100D11245901A81AB108B6
:100D5000AE9CC001AF9C900DBE9C900D1124892FBC
:100D60009927281B390B2E9FC0012F9F900D3E9F66
:100D7000900D1124E92F62307105A1F050F4611536
:100D8000710509F49DCF6130710581F0EB2F512F72
:100D900097CF6430710569F080F06630710509F411
:100DA0008FCFF4CFE42F4B2F592F8ACFE42F412F31
:100DB00087CFEB2F542F492F83CF4B2F5D2DE12F62
:100DC0007FCF0E9460059C01909141028091420278
:100DD000982B21F030933E0220933D0290914302E4
:100DE00080914402982B21F030933C0220933B02E7
:100DF000E091A903F091AA03309749F082E0809333
:100E00003F020480F581E02D8FE392E0099408957C
:100E100090914102803F59F48091420287FF0DC0BA
:100E20001092420291110BC01092390208C0813F0A
:100E300081F48091420218169CF3992381F08091ED
:100E4000430290914402892B09F064C01092380249
:100E50000895823F49F497FFF0CF109241028091AC
:100E600042028111ECCFE0CF833F19F41916ACF3A5
:100E7000E4CF20914302893F29F41216F4F6109230
:100E80004302DBCF8A3F19F427FFD7CFF8CF209159
:100E900044028B3F29F427FFD0CF10924402CDCFDC
:100EA0008C3F19F41216CCF3C8CF843F31F48091F3
:100EB00040028E7F80934002C0CF853F21F4809115
:100EC00040028D7FF7CF863F21F4809140028B7FD7
:100ED000F1CF873F21F480914002877FEBCF883F9D
:100EE00021F4809140028F7EE5CF8D3F31F48091D7
:100EF0003A028E7F80933A02A0CF8E3F21F48091F8
:100F00003A028D7FF7CF8F3F09F097CF80913A0259
:100F10008B7FF0CF089580913A0280FF0CC06091E2
:100F20001D0170E07595679575956795611571055B
:100F300049F1862F089581FF06C060911D0170E080
:100F400075956795F3CF60911D0182FD0BC090915F
:100F500038029923A1F060911C0180911D01961720
:100F600038F0682F70E06038710500F38FE708955E
:100F7000899FC001112470E00E944534F4CF61E0E4
:100F800070E0D7CF81E0089580913A0260918A03A2
:100F900070918B0380FF16C020912101269FC00114
:100FA000279F900D1124BC017695679576956795DE
:100FB0006038710508F043C06115710509F441C03E
:100FC000862F089581FF0BC020912101269FC0012B
:100FD000279F900D1124BC0176956795E9CF82FF7C
:100FE00009C0809121019B01829FB001839F700DF8
:100FF0001124DECF209139022223D1F290912001D9
:1010000080912101482F50E0291748F0CB01849F9F
:10101000B001859F700D949F700D1124C9CF289F3A
:1010200090011124269FA001279F500D369F500D3F
:101030001124692F70E0CA010E943134B9CF8FE7C3
:10104000089581E00895803F31F40E94C40781959E
:10105000809342020895813F19F40E94C407F8CF9B
:10106000823F31F40E94C407819580934102089524
:10107000833F19F40E94C407F8CF893F29F40E94E6
:101080008B078093430208958A3F21F40E948B07C7
:101090008195F7CF8B3F31F40E948B078195809328
:1010A000440208958C3F19F40E948B07F8CF843FC7
:1010B00031F4809140028160809340020895853F21
:1010C00021F4809140028260F7CF863F21F4809125
:1010D00040028460F1CF873F21F480914002886014
:1010E000EBCF883F21F4809140028061E5CF8D3FB6
:1010F00031F480913A02816080933A0208958E3FE4
:1011000021F480913A028260F7CF8F3FB9F7809146
:101110003A028460F1CF80E00895F894E82FE295D8
:10112000EF70F0E031A1282F2F7081E090E001C036
:10113000880F2A95EAF7982F9095932391A392A16F
:10114000892B82A37894089590911F0292FF06C084
:10115000282F28712830F9F4877F846093FF06C018
:10116000282F28712831F1F4877E84612091200294
:1011700020FF06C0382F38713830D9F4877F81605E
:1011800021FF06C0282F28712831D1F4877E816184
:1011900094FD877E0895282F24712430F9F68B7FE3
:1011A0008860DCCF282F2471243101F78B7E886181
:1011B000DDCF382F3171313019F78E7F8860E0CF65
:1011C000282F2171213121F78E7E8861E1CFCF93C5
:1011D000DF93EC0182389105A9F1D8F581339105AF
:1011E00009F496C048F58932910509F48AC08A97B6
:1011F00009F495C0C11521E5D20708F0BCC0C1159E
:1012000030E5D30708F014C1C83ED10508F09CC0F2
:10121000C03ED10560F5C83AD10508F087C0C53A8F
:10122000D10508F0FDC0C130D10509F12097F9F0D2
:10123000C430D105E0F440C08533910509F45AC0AB
:10124000C997C1F680911F02837089F0C0EED0E08B
:101250000EC0833E910599F170F4803E910501F135
:10126000823E910539F680911F0282FD21C0CE0198
:10127000DF91CF910895863E910561F1873E9105FA
:1012800071F1843E910509F0B5CF8091200281FF74
:10129000EECF80911F02C7EED0E084FD0DC0E7CFF6
:1012A00080911F0280FD12C19091200290FFDFCF3C
:1012B000C3EED0E084FFDBCFD0E0C0E0D8CF809198
:1012C0001F0282FD06C19091200290FDBFCF84FFD6
:1012D000CECFF2CF80911F0283FDDDCFC8CF8091AA
:1012E0001F0283FDF9C09091200291FFF0CFC4EE60
:1012F000D0E0BDCF80911F0285FFB9CFC9E2D0E019
:10130000B6CF80911F0285FFB2CFC5E3D0E0AFCF4B
:1013100080911F0286FFABCFCAE2D0E0A8CF8091B8
:101320001F0286FFA4CFC1E3D0E0A1CFCF3BD10500
:1013300018F6C85AD0E0CC0FDD1FCC5CDE4F099008
:10134000D881C02DD46493CFC11540E2D40758F49E
:10135000C11581E0D80708F08ACFC03FD10508F455
:10136000ABCFD06584CFC11590E4D90708F4A4CFE2
:10137000DF70D06A7CCFC11525E5D20700F5C11515
:1013800034E5D30708F08AC0C11543E5D40708F057
:1013900071C0C11582E5D80708F467C0CE0183701B
:1013A000992721E030E002C0220F331F8A95E2F72F
:1013B000C695C69580E2C89FE001112452C0C115B0
:1013C00099E5D907A8F4C11528E5D20708F06BC044
:1013D000C11536E5D30708F06FCF8C2F0E94A40803
:1013E000C82FD0E0DC2FCC27CC27DF71D0623FCFD5
:1013F000C1154AE5D40708F45BC0CE0190568115AB
:10140000904208F059CF8D2F8F710E94A40890E070
:10141000982F882788279F719C012C2BE901E6CF04
:10142000C55AD0E0CF5CDE4FC881D0E0D0641FCF7A
:10143000CE01E4E096958795EA95E1F783702C2F2D
:1014400026952695237040E2249F90011124382B85
:101450008C2F8370C1E0D0E002C0CC0FDD1F8A95D5
:10146000E2F7C22BD32BDC6802CFDC2FCC27C16F75
:10147000D06AFDCECE018370992721E030E002C012
:10148000220F331F8A95E2F7C695C69590E2C99F51
:10149000E0011124C22BD32BDA68E9CEDC2FCC2754
:1014A000C46FD06AE4CEDC2FCC27C06FD06ADFCE09
:1014B0008C2F8F700E94A40834E0D695C7953A957A
:1014C000E1F7CF709C2FEC01D069D1CEC9E3D0E019
:1014D000CECEC2EED0E0CBCEC6EED0E0C8CE80916C
:1014E0001302882331F0109213021092120210920C
:1014F00011020895CF93C82F8091200282FD0CC065
:10150000809113028C1741F00E94600590931202A3
:1015100080931102C0931302CF910895809590910A
:10152000B50298239093B50208959091B502892B46
:101530008093B502089510920F0210920E0210923D
:101540000D0208958091840390918503892B89F081
:101550000E9460052091110230911202AC01421BE1
:10156000530B81E020918403309185034217530788
:1015700008F480E0817008958091B5029091CE03C7
:10158000892B90911002892B8093AE0180911302D8
:10159000882309F18091840390918503892B29F098
:1015A0000E94A20A81110E946F0A8091AE0190915F
:1015B0001302892B8093AE0120E080EB91E0FC01C7
:1015C0003191CF0131112F5FF1E0863B9F07B9F7D1
:1015D00021110E946F0AE091A903F091AA033097AC
:1015E00031F00280F381E02D8EEA91E009940895B4
:1015F00080912601877F809326019091CE039D7F65
:101600009093CE0384FF06C08F7E8093260182E0F4
:101610000E94950A8091260185FF06C08F7D8093E8
:10162000260180E20E94950A0C94BC0A80910C026B
:10163000811110920C02089520910B029091CA0121
:10164000291302C080E0089530E0F90153E0EE0F65
:10165000FF1F5A95E1F7E553FE4F5181561306C01F
:101660005081581303C05281541304C02F5F3F4F61
:101670002770E6CF81E0089580910B029091CA0116
:10168000981301C008958F5F8770FACF9E3F49F18C
:10169000292F220FE22FE90FE80F9E2F9770E69572
:1016A000E695E69583E0E89FF0011124E454FE4FAF
:1016B00050E040E080E0219130E0092E02C03695F4
:1016C00027950A94E2F721703327042E01C0220FD8
:1016D0000A94EAF7822B4F5F5F4F4330510559F769
:1016E000089580E008959E3F69F1292F220FE22F8F
:1016F000E90FE80F8E2F877041E001C0440F8A95F3
:10170000EAF7E695E695E69583E0E89FF001112477
:10171000E454FE4F30E020E070E05191DF0111977A
:10172000CB01022E02C0969587950A94E2F781704C
:1017300081958527842385278C932F5F3F4F233006
:10174000310559F70895E92FE295EF70E250EE3038
:1017500070F4F0E0E25BFA4C0C947B34803F19F0BB
:1017600020F4883E20F481E00895843FE1F380E096
:101770000895883EC0F3813FD1F7F5CF93FB8827CA
:1017800080F9089590E080E00E949C0590E080E060
:101790000E9486051092CE03109210020E94BC0A8D
:1017A00086E0EFE3F2E0DF011D928A95E9F71092FF
:1017B00039021092380210923A020C94E10680939A
:1017C000CD030C94C20B8091CD03982F9670963068
:1017D00019F488600C94DF0B877FFCCF21E030E0A8
:1017E00001C0220F8A95EAF720958091CD038223CC
:1017F0000C94DF0B90910F028095892380930F0248
:10180000282F277091F4282F082E000C330B9217E5
:10181000130659F09091200292FD07C08595859599
:1018200085950E94EE0B0C949B0A089521E030E010
:1018300001C0220F8A95EAF78091CD03822B0C9488
:10184000DF0B9091200292FD10C098E0899F9001DB
:101850001124622B60930F020E94160C0E946005F7
:1018600090930E0280930D0208950C94160C8093B1
:10187000CC030C94C20B882341F080959091CE0349
:1018800089238093CE030C94BC0A0895882339F0F1
:101890009091CE03982B9093CE030C94BC0A08959C
:1018A000882321F00E948E0A0C94BC0A0895882394
:1018B00021F00E94950A0C94BC0A08958823B1F186
:1018C0009CEF980F913A70F4E0EBF1E0919189135D
:1018D00003C0DF0111971C9291E0E63BF907B1F7D5
:1018E0000C94BC0A90E2980F983050F4877091E005
:1018F00001C0990F8A95EAF7892F0E948E0AF0CFCE
:101900009BE5980F933020F490E080E00C949C05C8
:1019100098E5980F973120F490E080E00C948605CC
:10192000803F20F00E9408070C94E1060895CF93B1
:10193000C82F882309F452C08CEF8C0F813AF8F439
:10194000E0EBF1E086EB91E0DF012D91C21759F059
:101950008A179B07D1F76C2F8EEA91E00E946C05E5
:10196000CF910C94BC0A2191C21303C0DF011197DF
:101970001C928E179F07B9F70E94BC0AECCF80E239
:101980008C0F883048F4C77081E001C0880FCA9579
:10199000EAF70E94950AE4CFEBE5EC0FE33040F460
:1019A000F0E0EF5CFE4F808190E0CF910C949C05BD
:1019B000E8E5EC0FE73150F4F0E0EE0FFF1FEC5CD0
:1019C000FE4F80819181CF910C948605C03F30F00D
:1019D0008C2F0E942308CF910C94E106CF9108959B
:1019E0009C013A9521153F4150F5FC01EE27F1701D
:1019F000BC0166277270AC01442754709C012227F9
:101A0000387094FF0EC080E1EF2B09F480E0672B63
:101A100009F08062452B09F08064232B89F08068EF
:101A2000089581E0EF2B09F480E0672B09F08260D4
:101A3000452B09F08460232B19F08860089580E01D
:101A40000895CF93DF93EC010E945E0CCE010E94BB
:101A5000F00C9E01205E31092830310510F0CD2BAD
:101A600021F4DF91CF910C94500CDF91CF910C9425
:101A70003B0CCF93DF93EC010E94F00C9E01205EA3
:101A800031092830310510F0209739F40E94570CA5
:101A90008C2FDF91CF910C94970C0E94460CF8CFBD
:101AA000662329F02091CE0322602093CE039C016F
:101AB0003056211540E2340720F0305E21153041C8
:101AC00008F499270C94390D8093B2037093B403F2
:101AD0006093B3038091C2038430F9F48093E900EA
:101AE0008FEF9091E800815095FD06C095ED9A9595
:101AF000F1F700008111F5CF8091E80085FF0DC05E
:101B000050E040E063E070E082EB93E00E94130459
:101B10008091E8008E778093E8000895BC0184E00E
:101B20000C94640DBC0183E00C94640D9C0184E072
:101B30008093E9009FEF8091E800915085FD06C0F9
:101B400085ED8A95F1F700009111F5CF8091E800BD
:101B500085FF0CC050E040E066E070E0C9010E94E3
:101B600013048091E8008E778093E8000895CF9366
:101B7000DF93EC0181E08093E9008FEF9091E80022
:101B8000815095FD06C095ED9A95F1F70000811101
:101B9000F5CF8091E80085FF14C050E040E068E098
:101BA00070E0CE010E9413048091E8008E7780934C
:101BB000E80088E0FE01A8EBB3E001900D928A9561
:101BC000E1F7DF91CF91089581E08093E00080E21A
:101BD0008093D8001092C9008FE19EE40197F1F73D
:101BE00000C0000087E090EBDC018093CF0390936E
:101BF000D003A093D103B093D20388E19CE00FB649
:101C0000F894A895809360000FBE90936000FFCF7A
:101C1000019708F40895EFE9FFE03197F1F700C06C
:101C20000000F6CFDF92EF92FF920F931F93CF93B6
:101C3000DF937C018B01D42E8091260182FF8CC022
:101C4000C091D802D091D902CE15DF0521F0E11460
:101C5000F10409F081C0809126018B7F80932601D9
:101C600081FD73C08091D6029091D702A801481BD4
:101C7000590B81E02091240130912501421753072F
:101C800008F480E08170F82E80912601F0FA81F945
:101C900080932601FE0183E0F695E7958A95E1F7AA
:101CA000EE71FF27EA54FD4F20813181AE014F7064
:101CB000552781E090E002C0880F991F4A95E2F70E
:101CC000FF2009F444C0822B932B91838083809161
:101CD000B50281FF08C080912601806180932601B2
:101CE00082E00E948E0A8091B50285FF08C0809133
:101CF000260180628093260180E20E948E0A6F2D69
:101D0000CE010E94500DDD2031F080919D0385FFB2
:101D100002C086FF3BC08091A0039091A1030E9466
:101D2000080E8091D8029091D9029C01305621155D
:101D300040E2340720F0305E2115304108F4992745
:101D40000E94210D0E94F80A1DC081E09BCF809562
:101D5000909582239323B9CFC701992797013056D5
:101D6000211540E2340728F0305E2115304108F09B
:101D7000C7010E94210D8091D8029091D9028E1541
:101D80009F0501F31093D7020093D602DF91CF9104
:101D90001F910F91FF90EF90DF90089580915C026A
:101DA00080FD0AC0E0E5F2E01182108212823396D3
:101DB00052E0EC35F507C1F7279A35B13F7725B1E9
:101DC00020684FB7F89480E592E0FC015191CF0173
:101DD00068E025B9000000C057FF35B9550F000075
:101DE00000C000C000C035B900C06A9591F7F2E0AC
:101DF0008C359F0751F74FBF8FE594E00197F1F7BE
:101E000000C000000895EF92FF920F931F93CF93AD
:101E1000DF938C01C0E5D2E0F12CE12CF801948134
:101E200060915E0280915D02F2E0EF16F104FCF435
:101E30009923F9F09E0140915F020E944B062FEF1B
:101E4000E21AF20A239684E0E816F10439F70E94B8
:101E5000CE0EF801848190E00196817099278483E9
:101E6000DF91CF911F910F91FF90EF9008959923EB
:101E700009F39E0140E0E1CF8F929F92AF92BF9213
:101E8000CF92DF92EF92FF920F931F93CF93DF9346
:101E9000EC014C81042F10E09801D8010E9490348D
:101EA0009B01AC010E94A6344B015C01E0E2F0E032
:101EB000E01BF10BA5E5B0E0AC019B010E94A6344C
:101EC0006B017C019F01DF010E9488349B01AC0102
:101ED0000E94B1349B01AC01280D391D4A1D5B1DC8
:101EE000C701B6010E945934F22E822F90E039E2E8
:101EF0003F15E0F143E0249F90011124359527958B
:101F0000122F109590E5C92E92E0D92E00E085E5BC
:101F1000E82EEF18802F8695C9F58E2D9601412F5A
:101F200060915E020E944B060F5F53E0C50ED11C0C
:101F3000043081F70E94CE0E9C8181E0992319F034
:101F4000903219F48FEF8093190180911901890F54
:101F50008C83DF91CF911F910F91FF90EF90DF90D5
:101F6000CF90BF90AF909F908F90089525E530E07F
:101F7000A901481B590BCA019A01220F331F280FD0
:101F8000391F37FFBBCF2F5F3F4FB8CF8F2DC6CF45
:101F90000F931F93CF93DF93C0E5D2E0FE01118230
:101FA00010821282339682E0EC35F807C1F710E018
:101FB00000E080914E02082E000C990B08171907BB
:101FC0008CF180911801082E000C990B8017910755
:101FD0004CF19E0140915F0260915E0280915D0232
:101FE0000E944B060F5F1F4F23960430110509F71F
:101FF0000E94CE0E8091170190914E02980F9093FF
:102000004E0220911801280F20931801121614F483
:1020100093301CF0819580931701DF91CF911F9130
:102020000F910895198218821A82DCCFCF92DF9225
:10203000EF92FF920F931F93CF93DF93FC01828166
:10204000DD24DA9480FD02C0DD24D394C0E5D2E023
:1020500010E000E0198218821A8294E0E92EF12C37
:10206000C12C80914D028C0D8530CCF18370082EEF
:10207000000C990B8017910791F480915F028E9D5F
:10208000A0018F9D500D1124559547955595479565
:102090009E0160915E0280915D020E944B06CD0C14
:1020A000F1E0EF1AF108E9F60F5F1F4F23960430B5
:1020B000110581F60E94CE0E80914D0291E0D91259
:1020C00014C0811110C083E080934D02DF91CF9145
:1020D0001F910F91FF90EF90DF90CF90089587FFB1
:1020E000C6CF8C5FC4CF8150EFCF90E00196837054
:1020F0009927EACFEF92FF921F93CF93DF93EC01E2
:1021000080E5E82E82E0F82E10E08C819701409166
:102110005F0260915E02810F0E944B06115C83E0BA
:10212000E80EF11C1C3F89F70E94CE0E9A818C812B
:1021300090FF08C08F5F8C83DF91CF911F91FF903C
:10214000EF9008958150F7CF90915C0290FF0CC002
:10215000E0E5F2E0818360834283339692E0EC35E0
:10216000F907C1F70C94CE0E08950F931F93CF93E8
:10217000DF9300D00F92CDB7DEB78C0180914F0274
:1021800081110AC09E012F5F3F4F4FEF6FEF0E94FA
:102190004B068A8180934F02F8016481613069F0B7
:1021A00080914F0240E0662361F040E0623011F41C
:1021B00040914F0280E060E004C060914F0240E037
:1021C00080E00E94A410F801848190E0019663E011
:1021D00070E00E94453484830F900F900F90DF9140
:1021E000CF911F910F910895CF93DF9300D00F925D
:1021F000CDB7DEB790915C0290FF0AC09E012F5FC1
:102200003F4F0E944B064B8169818A810E94A41036
:102210000F900F900F90DF91CF910895CF93DF93A0
:10222000EC01ECE5F2E0438162818C810E94F410C4
:102230008C818F5F8C83DF91CF910895CF93DF9353
:10224000EC01EC81F0E0EA5BFB4F4491ECE5F2E05D
:10225000628181810E94F4108C818F5F8C83DF9179
:10226000CF9108951F93CF93DF93182FC091A203AE
:10227000D091A303893321F0C091A003D091A10391
:10228000812F0E94970C209731F4812FDF91CF91FD
:102290001F910C945E0C8FE99FE00197F1F700C04D
:1022A00000002197F0CF0F931F93CF93DF93C42F9C
:1022B000D22FFC0182818823A1F04093A6030E94C3
:1022C00060059093A5038093A403C77081E001C0CB
:1022D000880FCA95EAF7DF91CF911F910F910C9467
:1022E000570C1091A603141339C08091A403909148
:1022F000A5030E94510520919A0330919B038217F8
:10230000930760F5C0E2CD0F1D17B9F080E2810F91
:10231000883040F4177081E001C0880F1A95EAF701
:102320000E94500CC83048F481E09D2F977001C086
:10233000880F9A95EAF70E94570C802F0E9432115D
:10234000C83098F4D77081E001C0880FDA95EAF7B9
:10235000DF91CF911F910F910C94500CC77081E0C9
:1023600001C0880FCA95EAF7F3CFDF91CF911F9193
:102370000F910895DF92EF92FF920F931F93CF93E7
:10238000DF93E82FF0E0E154FE4FD490282F2695FC
:102390002695269530E0F901E155FE4F04918770AE
:1023A00010E0082E02C0159507950A94E2F7017017
:1023B0001127F901E156FE4FE490F12C082E02C0DE
:1023C000F594E7940A94E2F791E0E922FF24F901F9
:1023D000E157FE4FC491D0E002C0D595C7958A95CC
:1023E000E2F7C170DD270115110519F081EE0E9499
:1023F000970CE114F10419F086EE0E94970C8D2DD4
:102400000E943211EF2819F086EE0E945E0C012B1B
:1024100019F081EE0E945E0CCD2B51F08CE2DF9121
:10242000CF911F910F91FF90EF90DF900C9432119C
:10243000DF91CF911F910F91FF90EF90DF90089562
:102440001F93CF93DF93EC011AE08881882309F46E
:102450003EC08130C9F599818A81913029F4229654
:102460000E9432112196F1CF923021F422960E94DF
:10247000970CF8CF933021F422960E945E0CF2CF95
:10248000943011F02196EECF229630E020E0AE019C
:102490004F5F5F4F8053990B8A30910550F0215068
:1024A000310900F38FE99FE00197F1F700C00000C8
:1024B000F6CF129FB001139F700D11249C01260FBF
:1024C000371F8981EA01E3CF0E94BA11CBCFDF9198
:1024D000CF911F9108950F931F93CF93DF9302E83D
:1024E00013E0CFE7D0E0CE010E94FC34F8018193E5
:1024F0008F012196C13AD105B1F7C4E9D5E0FE01BB
:1025000085919491009711F0FC0109952896F6E0C9
:10251000CC32DF07A1F7DF91CF911F910F91089582
:102520000F931F93CF93DF93843000F561111EC08A
:1025300024E0829F8001112450E0440F551F040FB6
:10254000151F01591F4FC8010E94FC34C82FD0E04D
:10255000DC2FCC27C80101960E94FC349E01282B59
:10256000C901DF91CF911F910F91089590E080E014
:10257000F8CF0F931F93CF93DF93843030F5633000
:1025800020F5433010F5C42FD0E0CC0FDD1F26E03E
:10259000629FC00DD11D112432E1839FC00DD11D5A
:1025A0001124CE0187960E94FC34082F10E0102FD2
:1025B0000027CE0188960E94FC349801282BC9017F
:1025C000DF91CF911F910F91089590E080E0F8CFB7
:1025D000462F2091B3023091B402232B91F47E3F19
:1025E00039F46E3F71F48091B1029091B202089576
:1025F000843038F4733028F4633018F4672F0C9467
:10260000B91290E080E00895CF92DF92FF920F938D
:102610001F93CF93DF936C010091CD038091CC0386
:10262000082BC7E0D0E010E0FC2EC8010C2E02C041
:10263000959587950A94E2F780FD0CC02197A0F745
:10264000F12C8F2DDF91CF911F910F91FF90DF9093
:10265000CF900895B6018C2F0E94E8120E94E708DF
:10266000019761F3EECFCF93DF93EC010E94041347
:10267000BE010E94E812DF91CF910C94E708FC01A3
:1026800086819781009721F00E94E7080C94A30BA4
:10269000808191810E943313F9CF1F93CF93DF93F1
:1026A00000D000D00F92CDB7DEB749835A8389811D
:1026B0009A816623B9F02223A9F00E940413182FEF
:1026C000682F89819A810E94730B69817A81812F99
:1026D0000F900F900F900F900F90DF91CF911F915F
:1026E0000C94E8120E94460B182FEFCFFC01262F06
:1026F00086819781009739F440815181628173818D
:1027000084810C944D13089583E290E00E94FC3480
:10271000853A89F484E290E00E94FC34893359F4CC
:1027200085E290E00E94FC3491E08B3809F090E063
:10273000892F8170089580E0FCCFCF9384E090E0F2
:102740000E94FC34C82F82E290E00E94FC34982F53
:102750008C2FCF9108950F931F93CF93DF9302E8AF
:1027600013E0CFE7D0E0CE010E94FC34F801619184
:102770008F01681719F0CE010E9410352196C13AD9
:10278000D10589F7DF91CF911F910F910895E2E86C
:10279000F3E0128E138E8FEA90E09183808385E0C0
:1027A000848F88E893E1938382834CE251E05583E0
:1027B000448322E330E03783268385E090E09187ED
:1027C00080878AE090E09387828764E170E0758774
:1027D00064875787468744E650E0518B408B48E03A
:1027E00050E0538B428B48E250E0558B448B378B43
:1027F000268B28EC30E0318F208F158E978F868FB7
:1028000080E590E091A380A30E94AB130C946B121F
:10281000CF93DF93C1EFD0E060E0CE010E9410358E
:102820002196C11584E0D807B9F7DF91CF910895BB
:102830000F931F93CF93DF938901843028F56111A3
:1028400023C0423008F521153C4531F420911A018E
:1028500030911B01232BC1F094E0899FE0011124EA
:1028600050E0440F551FC40FD51FC159DF4F612FD2
:10287000CE010E941035602FCE010196DF91CF91DD
:102880001F910F910C941035DF91CF911F910F91F3
:1028900008950F931F93CF93DF938901843048F5F8
:1028A000633038F5433028F521153C4531F420914B
:1028B0001A0130911B01232BE1F0C42FD0E0CC0F83
:1028C000DD1F96E0699FC00DD11D112492E1899F03
:1028D000C00DD11D1124612FCE0187960E941035A5
:1028E000602FCE018896DF91CF911F910F910C94AC
:1028F0001035DF91CF911F910F910895CF93C82F7D
:102900006FEF811165EA83E290E00E9410356FEF6E
:10291000C11169E384E290E00E9410356FEFC111AC
:102920006BE885E290E0CF910C941035CF93C09185
:102930002002C2FB992790F9981799F080FBC2F901
:10294000C093200260911F0284E090E00E94103545
:102950006C2F82E290E00E94103582E0CF910C94BF
:10296000FA0BCF9108957F928F929F92AF92BF9270
:10297000CF92DF92EF92FF920F931F93CF93DF934B
:10298000CDB7DEB72A970FB6F894DEBF0FBECDBF26
:10299000A0901A01B0901B0181E090E090931B0180
:1029A00080931A0186E4C82E85E0D82E10E07601C7
:1029B00000E015C0F40125913491472D602F812F3F
:1029C0000E94491482E0880E911C739493E079125E
:1029D000F1CFE6E0EE0EF11C0F5F033019F0470176
:1029E000712CE8CF21E030E040E060E0812F0E94D0
:1029F000181421E030E041E060E0812F0E941814BB
:102A00001F5FF2E1CF0ED11C143089F60E94C7136C
:102A1000CE0101967C018AE0F70111928A95E9F7CF
:102A200001EA10E04AE050E0B801C7010E943435E5
:102A3000065F1F4F013F1105A9F7B0921B01A0923D
:102A40001A012A960FB6F894DEBF0FBECDBFDF91F4
:102A5000CF911F910F91FF90EF90DF90CF90BF909B
:102A6000AF909F908F907F90089580E00E947E1499
:102A700060E086E290E00E9410350E94B3140E944C
:102A8000081481E00C947E141092B502E0EBF1E0A2
:102A900086E0DF011D928A95E9F70C94C20B1F9323
:102AA000CF93DF93CDB7DEB7AA970FB6F894DEBF0A
:102AB0000FBECDBF84EC93E02091F100DC012D939B
:102AC000CD01B3E08C3C9B07B9F78091C5038330FF
:102AD00009F472C0B8F4813009F449C0823009F4B5
:102AE000B3C08091E80083FF96C28091C4039091A7
:102AF000C5039A3008F08FC2E92FF0E0E45AFA4C8F
:102B00000C947B348A3009F48EC08B3009F471C088
:102B1000893039F78091C403813219F78091C80355
:102B20009091C903009711F00297D9F68091E800BF
:102B3000877F8093E8008091E80082FF38C0909101
:102B4000F3008091F200029731F48091F10081301E
:102B500011F0863021F48091F1008093B7038091C9
:102B6000E8008B778093E8000E943D04BACF809103
:102B7000C403813A09F0B5CF8091E800877F809344
:102B8000E8008091C8039091C903892B61F468E043
:102B900088EB93E070E00E94EF048091E8008B776F
:102BA0008093E8009ECF60E090E080E0F3CF8091DA
:102BB000C2038111C0CF95CF8091C403813A09F03F
:102BC00090CF8091C8039091C903892B09F089CFD8
:102BD0008091E800877F8093E8008091E80080FF83
:102BE000FCCF809128018093F1008091E8008E77DE
:102BF000B9CF8091C403813209F073CF8091C803AB
:102C00009091C903892B09F06CCF8091E800877FF0
:102C10008093E8000E943D048091C60380932801C0
:102C20000E9444155ECF8091C403813209F059CFD0
:102C30008091E800877F8093E8000E943D048091A6
:102C4000C7038093B6034DCF8091C403813A09F046
:102C500048CF8091E800877F8093E8008091E8006A
:102C600080FFFCCF8091B603BECF803899F08238C8
:102C700009F0D1C18091C8038F70873008F0CBC1B3
:102C80008093E9008091EB0085FB882780F9109202
:102C9000E90006C08091C0039091C1039111826048
:102CA0009091E800977F9093E8008093F100109254
:102CB000F1008091E8008E77AAC1882309F498C1B9
:102CC000823009F0A8C18091C60381119BC1809117
:102CD000C8038F702FEF280F263008F09CC1809317
:102CE000E9002091EB0020FF8DC1933031F48091F9
:102CF000EB0080628093EB0085C19091EB009061C6
:102D00009093EB0021E030E001C0220F8A95EAF7B2
:102D10002093EA001092EA008091EB008860EACFED
:102D2000811179C11091C6031F778091E3008078EB
:102D3000812B8093E3008091E800877F8093E800F7
:102D40000E943D048091E80080FFFCCF8091E30069
:102D500080688093E30082E0111183E08093C203D6
:102D60005AC18058823008F056C12091C603309174
:102D7000C7032C3DE3E03E07A1F583E08A838AE2A6
:102D800089834FB7F894DE01139620E03EE051E2CC
:102D9000E32FF0E050935700E49120FF03C0E29549
:102DA000EF703F5FEF708E2F90E0EA30C0F0C79673
:102DB0008D939D932F5F243159F74FBF8091E80089
:102DC000877F8093E8006AE270E0CE0101960E945E
:102DD000EF048091E8008B778093E8001CC1C096D7
:102DE000E7CF8091C8039091C903432F5527433003
:102DF000510509F44AC078F54130510509F485C000
:102E00008BE590E0E6E2F6E04230510509F003C1BF
:102E10002091E800277F2093E8002091CA03309199
:102E2000CB038217930708F49C0140E0211531057C
:102E300009F070C041116EC08091E80082FDC9CFD9
:102E40008091C203882329F2853019F28091E8002D
:102E500083FFF2CFBECF4132510509F447C0423261
:102E6000510509F0D8C08330910508F0D4C0FC01A9
:102E7000EE0FFF1FE056FE4F0190F081E02D8356CC
:102E80009E4FDC018C9190E01DC03327213031052D
:102E9000E9F02115310579F022303105F9F02330C0
:102EA000310509F0B8C0E3E9F6E0E4918E2F90E037
:102EB000E3E9F6E007C0EFEEF6E0E4918E2F90E054
:102EC000EFEEF6E0009709F4A6C0A2CFEFECF6E033
:102ED000E4918E2F90E0EFECF6E0F4CFE1EBF6E03A
:102EE000E4918E2F90E0E1EBF6E0ECCF833091059A
:102EF00008F091C0880F991FFC01EA55FE4F019020
:102F0000F081E02D89E090E083CF82E190E0E1E87C
:102F1000F6E07ECF8091C203882309F45ACF853032
:102F200009F457CF8091E80083FD53CF8091E800EA
:102F300082FD82CF8091E80080FF78CF9091F300EE
:102F40008091F2002115310519F08830910550F07B
:102F500041E0089709F040E08091E8008E77809387
:102F6000E80064CF44914093F1003196215031093B
:102F70000196E8CF803809F04EC08091E800877F45
:102F80008093E8008091C3038093F10092CE811179
:102F900042C01091C6031230F0F58091E800877F9F
:102FA0008093E8001093C3030E943D04112311F0A5
:102FB00084E005C08091E30087FDFACF81E0809333
:102FC000C20342E061EC81E00E945C0442E261ECF9
:102FD00084E00E945C0442E261EC82E00E945C04B6
:102FE00042E260EC83E00E945C048091C20313C063
:102FF0008091C603813079F481E0933009F080E05C
:103000008093C1031092E9008091E800877F80934C
:10301000E8000E943D048091E80083FF0AC080918F
:10302000E800877F8093E8008091EB0080628093C6
:10303000EB00AA960FB6F894DEBF0FBECDBFDF91AE
:10304000CF911F910895CF92DF92EF92FF920F934D
:103050001F93CF93DF93CDB7DEB72A970FB6F894BF
:10306000DEBF0FBECDBFE1E6F2E080E5DF011D92DD
:103070008A95E9F7EEE3F3E088E3DF011D928A9594
:10308000E9F781E6C82E82E0D82E7F0101EA10E040
:10309000F701D182C0824AE050E0B801CE0101962A
:1030A0000E94EC3488E0FE013196D60101900D9229
:1030B0008A95E1F789859A85D70113969C938E931B
:1030C0001297BAE0CB0ED11CE7E0EE0EF11C065FC2
:1030D0001F4F013F1105E1F62A960FB6F894DEBFA7
:1030E0000FBECDBFDF91CF911F910F91FF90EF9059
:1030F000DF90CF90089560915C02669570E04BE0A0
:1031000050E08CE091E00E94C234892B19F481E0F8
:1031100080934C020E946005909346028093450282
:103120000895CF92DF92EF92FF926B017C010E9493
:103130003C06B701A60188E090E0FF90EF90DF9099
:10314000CF900C9422357F928F929F92AF92BF9234
:10315000CF92DF92EF92FF920F931F93CF93DF9363
:1031600000D00F92CDB7DEB7182FD62E042FC22E67
:1031700090915C0290FF29C0E92FE695AE2FB0E058
:10318000A858BE4F8C9180934B029E7F923071F570
:103190009E012F5F3F4F812F0E944B064B8169811B
:1031A0008A810E94A41010935D02D0925E02009367
:1031B0005F02CC2051F060915C0270915D028091C1
:1031C0005E0290915F020E9491180F900F900F90F5
:1031D000DF91CF911F910F91FF90EF90DF90CF90F3
:1031E000BF90AF909F908F907F900895823019F498
:1031F00000915F02D8CF863019F410915D02D3CFD1
:103200008930D9F3893179F6E9512E2F2170722E48
:10321000E695F0E0EF5BFB4F85909490992430E5C4
:10322000E32E32E0F32EB12CA12CC50196958795A3
:1032300096958795711013C0810F9701402F6D2DC2
:103240000E944B06A80CB91C83E0E80EF11C2CE58B
:10325000E21622E0F20649F70E94CE0EA4CF212FFB
:10326000281B822FEACFECE5F2E0438121E1421BEB
:1032700008F440E021E0628181810C94A318ECE520
:10328000F2E0438121E1420F08F44FEF21E0628137
:1032900081810C94A318ECE5F2E0628121E1621BCC
:1032A00008F460E021E0438181810C94A318ECE5EF
:1032B000F2E0628121E1620F08F46FEF21E04381C7
:1032C00081810C94A318ECE5F2E0818121E0438137
:1032D000628188500C94A318ECE5F2E0818121E032
:1032E00043816281885F0C94A318809160028823D7
:1032F00019F081508093600260915C0270915D02D0
:1033000080915E0290915F020C949118809160020E
:10331000833018F48F5F8093600260915C0270913B
:103320005D0280915E0290915F020C9491189091E1
:103330005C0290FF36C09170811129C09260909319
:103340005C02662351F060915C0270915D02809195
:103350005E0290915F020E94911860915C026695F6
:1033600070E04BE050E08CE091E00E94C234892B89
:10337000A9F010924C0281E08093480220E0409135
:103380005F0260915E0280915D020C94A318853209
:1033900010F09864D4CF880F982BD1CF0E947B185F
:1033A000EACF089580915C028695815009F484E209
:1033B00061E00C94971980915C0286958F5F85324D
:1033C00008F081E061E00C94971990915C0290FF05
:1033D00007C09695981720F0961710F40C94DB19F7
:1033E00061E00C949719ECE5F2E083E180831182AF
:1033F0008FEF8283838314826081718182819381C4
:103400000C9491186AEE7EEF90E080E00E942E35D9
:1034100060E082E090E00E94103560E083E090E0A0
:103420000E9410351092CC0360E084E090E00E948E
:10343000103560E082E290E00E94103560E085E0A7
:1034400090E00E94103560E086E090E00E94103528
:103450006FEF87E090E00E94103540E050E0BA0145
:1034600088E090E00E94223560E08DE090E00E94CC
:10347000103540E050E0BA0188E190E00E9422352A
:1034800060E087E190E00E94103540E050E0BA0132
:103490008CE190E00E94223570E060E080E290E0F4
:1034A0000E942E3540E050E0BA0188E190E00E9491
:1034B000223580E00E947E140E94351540E050E0E5
:1034C000BA018FE090E00E94223540E050E0BA015E
:1034D00083E190E00C9422358F929F92AF92BF923D
:1034E000CF92DF92EF92FF920F931F93CF93DF93D0
:1034F00000D000D0CDB7DEB77C01FC014381548100
:10350000618180810E94BE0581112BC061E0C701ED
:103510000E9476138C01F7018281882311F40C94A8
:10352000CF22C80182519F45409708F053C78FEFC3
:1035300093E00E94FC347EEED72ED00E01EF10E017
:10354000882361F180910F02877059F0F701828121
:10355000882339F08091200282FD03C082E00E941E
:10356000FA0B0F900F900F900F90DF91CF911F915A
:103570000F91FF90EF90DF90CF90BF90AF909F9012
:103580008F9008950115F4E01F07E1F2C8010E9431
:10359000FC34811101C0DA940F5F1F4FD110F2CFBC
:1035A00019821A821B821C82CC24CA9448012FEFF4
:1035B000821A920AC8010E94FC3489831A828823E5
:1035C00009F4C0CF813009F048C0580132E0A30EA1
:1035D000B11CC4010E94FC34982E8A83882309F40C
:1035E000B1CFC5010E94FC34D82E8FEF890D8330F6
:1035F00068F4580143E0A40EB11CDB82DD2021F009
:10360000CE0101960E9420128501D0CF54E0951280
:10361000FBCF580184E0A80EB11CC80103960E949C
:10362000FC34DD2009F48ECF882309F48BCF815040
:10363000990BC89E9001C99E300D1124ED2DE150CB
:10364000FF0BCF01820F931F0197F0F2EFE9FFE02C
:103650003197F1F700C00000F7CFCE0101960E942C
:1036600020125401D1CF81E00E94160C0E94E30B7E
:1036700069CF81E00E94EE0BF9CF82E0F5CF82EEB8
:103680000E94970CEFC688E193E00E94390D80916B
:10369000A0039091A1030E94080E88E193E00E948C
:1036A000210DE0C68091B701811103C083E50E941E
:1036B000321182EE0E94970C8FE39CE90197F1F79B
:1036C00000C0000087E50E943211CCC686EE0E9441
:1036D000321188E1F8CF8650EAC696EF980F9630FF
:1036E00020F0805D0E94BA11E4C6895AFBCF82EEB9
:1036F0000E945E0CF4C68CE20E9432118091B801E7
:10370000882309F4ECC689E30E943211E8C682EEF0
:103710000E945E0C8091B7018111E1C683E5F4CF70
:1037200088E2F2CF8091260181608093260108C74C
:10373000809126018E7F809326010E94F80A00C79F
:10374000809126018F7E013E110531F0053E110565
:10375000C1F4809126018F7D8093260180912601FE
:1037600080FFFDC6F70182810832110528F50E3170
:10377000110508F074C00430110580F58111EBC605
:10378000EEC6C80190568115E0E29E0720F0905EDB
:103790008115904118F78091260182FFE0C6809143
:1037A0009F0381FDDCC627E132E040E0B60190E0F6
:1037B00080E00E94120ED3C60933110558F40D3271
:1037C000110518F40B321105C9F690919D0392FD75
:1037D000D5CF08C004361105C1F3D0CF90919D0319
:1037E00094FDCCCF882309F4A1C09091B5028091BB
:1037F0001302282F292B322F3D7FB1F11092D902CD
:103800001092D80230919D0331FD2EC0F80143E0A3
:10381000F695E7954A95E1F7EE71FF27EA54FD4FDB
:1038200098012F70332781E090E002C0880F991F24
:103830002A95E2F780959095208131818223932308
:103840009183808360E0C8010E94500D8091130233
:103850008D7F0E947A0A82E00E94FA0B73CE9091CB
:103860009D0393FD8BCFBECF38E0F701A7E1B2E017
:1038700001900D923A95E1F71092190210921B02F5
:1038800010921A02A090D802B090D9020A151B0516
:10389000B1F530919D0335FF32C04091260141FBC7
:1038A000992490F841FF02C036FF29C04091D6020A
:1038B0005091D702B601641B750B40919A03509149
:1038C0009B0364177507D8F491FF08C08091260107
:1038D00080618093260182E00E948E0A8091B50269
:1038E00085FF08C08091260180628093260180E2D6
:1038F0000E948E0A692DC5010E94500D23CE909121
:10390000260121FB91F9909326018D7F0E947A0A6E
:103910001093D9020093D802D092D702C092D60257
:103920008091260184608093260195CF970140E025
:10393000B601C8010E94120E05CE053F8CE518079E
:1039400009F466C008F45EC0063FECE51E0709F402
:1039500065C0F7013281332309F42DC61092A60306
:103960000330FDE51F0708F065C00A3F2CE512078C
:1039700030F4C80182509C45449708F060C00E9412
:103980009D139093200280931F0200315CE5150780
:1039900009F47CC108F0F8C008309CE5190709F467
:1039A00067C108F0C7C00430FCE51F0709F44EC129
:1039B00008F0B2C002303CE5130709F441C1809120
:1039C0001F02826003301C4509F43DC160911F0253
:1039D0001091200284E090E00E941035612F82E275
:1039E00090E00E9410350E944415ACCD07E225EE10
:1039F00045EE68ED7CE5CEC506E221EE40EE63EFD4
:103A00007CE5C8C507E225EE44EE64EF7CE5C2C55F
:103A100006E221EE42EE65EF7CE5BCC507E225EE4D
:103A200046EE66EF7CE5B6C508E221E045EE69EDBD
:103A30007CE5B0C501364DE5140709F4A0CF063189
:103A40008CE5180709F4BBC58091B50282720C3C65
:103A50005CE5150709F406C208F086C1063CECE5F2
:103A60001E0709F4EBC108F05CC1033C2CE512070A
:103A700009F4DAC108F044C1023C4CE5140709F42A
:103A8000AEC10A355DE5150709F428C208F004C285
:103A900001159CE5190709F411C20E3D1C4509F4F6
:103AA0001AC2F70186819781009709F41BC20E9410
:103AB000E708182F092FF701D280C580C2943FE094
:103AC000C32280910F028770C1F0AD2CDD20B1F0D0
:103AD000892F807F803421F080E2810F883068F068
:103AE0008091200282FD09C082E00E94FA0B809141
:103AF0000F028770AA24A3948111A12C902E929476
:103B00002FE09222FBE0F91508F475C2E92DF0E0F0
:103B1000EA59FA4C0C947B3480911F028061063084
:103B20005CE5150709F48FC008F494C080911F026A
:103B3000806289C080911F028D7F0C309CE519073F
:103B400009F481C070F480911F028C600A30FCE59A
:103B50001F0709F478C008F48FC080911F028E7F80
:103B600072C080911F02877F0E303CE5130709F475
:103B70006AC080911F028B7F0F301C4508F463C020
:103B800080911F028F7E5FC00C3F5CE5150709F432
:103B900079C068F504319CE5190709F48BC080F4FD
:103BA0000231FCE51F0709F475C080911F028F7B6D
:103BB00003311C4508F447C080911F02837F43C036
:103BC0000A3F3CE5130709F449C008F04DC0053130
:103BD0001C4509F0FBCE80911F0282FB992790F9CA
:103BE00021E0922790FB82F990FB83F92CC001150C
:103BF0008DE5180709F454C088F480912002836091
:103C00000E3FECE51E0769F1809120028D7F0F3F8A
:103C10001C4538F1809120028C7F23C002302DE5B5
:103C2000120709F456C008F44EC001361D4509F0CC
:103C3000CDCE90911F02892F8F7E94FF806103C0AB
:103C400080911F02816080931F02C0CE80911F026D
:103C50008460F9CF80911F028860F5CF80912002A7
:103C6000816080932002B2CE809120028260F9CFE1
:103C700080911F028064E7CF0E94441580911F024B
:103C80008068E1CF809120028E7FEBCF80911F0270
:103C90008F7DD9CF0E94441580911F028F77D3CF9B
:103CA00080912002982F909591708E7F892B90FBA8
:103CB00081F9D7CF0E94441590911F02892F97FB5D
:103CC00087F98058C0CF61E08EE090E00E94103507
:103CD0007DCE60E0F9CF8091B90181110FC089E2FA
:103CE000E0EBF1E026EB31E09191891303C0DF01B5
:103CF00011971C922E173F07B9F78EC485E3F0CFBA
:103D0000043C5CE5150709F494C043E659E16CE610
:103D100079E1053C9CE5190709F0B3CE0E9436060F
:103D200011CC093CECE51E0709F492C070F4073C85
:103D30002CE5120709F487C047E559E16BE479E106
:103D4000083C3CE5130751F39CCE0A3C4CE51407B4
:103D500009F483C00B3C5CE5150709F092CE45E7FA
:103D600059E166E879E1DACF013D8CE5180709F4FD
:103D700087C0B0F40E3CECE51E0709F47BC008F4E4
:103D800076C00F3C2CE5120709F477C06EE089E09D
:103D9000003D3CE5130709F074CE0E94E519D2CB33
:103DA000043D4CE5140709F471C078F4023D8CE53C
:103DB000180709F468C061E088E1033D9CE5190734
:103DC00009F05FCE0E949719BDCB053DECE51E07BB
:103DD00009F45FC00D35100709F4B4CB52CE8091C1
:103DE0005C0280FF1BC08E7F80935C0260915C024E
:103DF00070915D0280915E0290915F020E94911825
:103E000010924C022FEF30E742E02150304040400A
:103E1000E1F700C000000E94CE0E94CB8160809339
:103E20005C0261E08695CECF42ED59E16BED79E120
:103E300075CF4BED59E162ED79E170CF4CE659E178
:103E400063E679E16BCF4BE459E167E579E166CF51
:103E500043E359E16FE379E161CF4FE359E163E374
:103E600079E15CCF46E859E165E779E157CF61E058
:103E700081E0A8CF65E082E090CF68E086E08DCF5A
:103E800064E18FE08ACF67E185E187CF62E289E173
:103E900084CF61E083E296CF0B35FDE51F0701F18A
:103EA0000C351D4509F0FDCD8091200282FB88274D
:103EB00080F991E089270E949614F3CD0E94441561
:103EC0003FEF44E35CE0315040405040E1F700C038
:103ED00000000E94E40D0E94021A34CB81E0EBCF77
:103EE00080E0E9CF828100811181882369F0C801D7
:103EF0000E940413D82E682FC8010E94730BB801CA
:103F00008D2D0E94E812D3CDC8010E94460BD82EF9
:103F1000F6CF202F2F70B22E802F807F19F0B29411
:103F200090EFB922DD20A9F0BB2059F080E2810F8B
:103F3000883010F0111107C08B2D0E94950A0E9445
:103F4000BC0A812F56C08091CE03B82AB092CE030E
:103F5000F6CF812F0E945E0CBB2009F44CC080E29A
:103F6000810F883010F0111104C08B2D0E948E0A31
:103F700006C0B0948091CE03B822B092CE030E94C6
:103F8000BC0A39C0302F3F70B32E802F807F803223
:103F900019F0B29480EFB8221123E9F0113009F43E
:103FA0009CC0DD2009F4A5C0CC2009F475C020E038
:103FB000F701408151816281738184810E944D1398
:103FC00080919F0381FDBDCFF701858180FFB9CF2F
:103FD0008F70858361C08091200282FF3FC0DD2009
:103FE000B9F1BB2029F08B2D0E94950A0E94BC0AD2
:103FF00080E00E94970CE92DE850FF0B349710F4F5
:104000000E94B205812F902F0E94A30B8111C3C182
:104010001092BB011092BA01AA20A9F080910F0260
:1040200080FD11C0F70112828595859585950E94C6
:10403000160CC7010E946C1A80910F028595859518
:1040400085950E94EE0B60E0C7010E94761389CA35
:1040500080E00E945E0CBB2071F287CFDD2001F171
:10406000C11004C0809113028B2917C041E0C41213
:1040700006C0809113028B290E947A0ABCCF8091DE
:104080009E03823078F3C812EDCF0E946F0A8091B0
:104090000C02B812B0920C028B2D0E94570CABCFC1
:1040A000C11006C00E946F0A8B2D0E94500CA3CF36
:1040B00080919E0351E0C5120BC0823008F49BCF63
:1040C0008091B5028B2109F496CF0E94160BEACF9E
:1040D000823040F3C812E6CF8ECFDD2029F085E094
:1040E0008C1508F488CFD8CF94E09C1508F483CFC2
:1040F000DBCFCC20C9F28091A2039091A3031933A6
:1041000021F08091A0039091A1030E94080E812FBD
:104110000E945E0C70CF802F86958695837069F023
:10412000813009F068CF812F902F9370D11002C099
:1041300090E080E00E9486055ECF812F902F9370E3
:10414000D11002C090E080E00E949C0554CF812FE6
:10415000DD2029F00E9423080E94E1064CCF0E9436
:104160000807FACF802F837091F5D11044CF412FEB
:10417000429546954770440F440F812F8F70042E4F
:1041800001C0880F0A94EAF7212F207114FF07C09D
:104190002FE030E001C0220F4A95EAF72095302F3A
:1041A000369536953370323069F050F44091CC0337
:1041B000313029F0822B84230E94370C1CCF842BB2
:1041C000822BFACF282B8091CC038227F5CF8695BE
:1041D000DD2011F0802F8170882309F40CCF412F4E
:1041E000429546954770440F440F812F8F70042EDF
:1041F00001C0880F0A94EAF7212F207114FF07C02D
:104200002FE030E001C0220F4A95EAF72095302FC9
:10421000369536953370323069F050F44091CD03C5
:10422000313029F0822B84230E94DF0BE4CE842BD3
:10423000822BFACF282B8091CD038227F5CFF02F48
:10424000FF70BF2EDD2029F08F2F0E94160C812FCA
:1042500024CF812F0E94500C8B2D0E94EE0BCBCED1
:10426000123F89F160F4103FB9F0113F81F0DD2079
:1042700009F48CC0C11065CE802F8F7128C0133F08
:1042800049F1143FA1F78091200282FF2FC0802FB7
:104290008F71DD2011F31BC0DD2081F024E02C158F
:1042A00008F4A9CE202F2F7181E090E001C0880F83
:1042B0002A95EAF79091CD038927B6CF35E03C15D2
:1042C00008F499CEEFCF802F8F71D110C6CF0E9406
:1042D000160C91CE80E0DD2009F4A6CF81E0902F6E
:1042E0009F7101C0880F9A95EAF79ECF80919E0337
:1042F0008230A0F180910C02DD20F1F00E948E0A44
:1043000080910F028770843041F40E949B0A802FB5
:104310008F710E94EE0BA12C6ECE80919E03C81669
:10432000D0F7402F4F71B42E842F0E94160C63E0FB
:104330008B2D0E94210CEFCF0E94950A80919E0345
:10434000C81640F00E949B0A0E94160B64E0802F62
:104350008F71EFCF81E00E94FA0BDDCFDD2059F0A5
:10436000502F5F71B52E852F0E94160C63E08B2DA8
:104370000E94210C40CE81E00E94FA0B81E08C1556
:1043800008F039CE82E00E94FA0B35CEC110B3CED0
:10439000802F8F7162CFDD2019F0C11039CE3CCE55
:1043A000C11036CE20E0F7014081518162817381D6
:1043B00084810E944D1380919F0383FF29CE8091B9
:1043C000BA019091BB01029709F022CE812F0E9481
:1043D00032111ECE0031FFE51F0709F444C9013137
:1043E0002FE5120709F449C9C801815E9C4505976C
:1043F00040F46FE1600F609321028CE090E00E9436
:10440000103517FF70C0F7018281882309F46BC053
:104410000E94B205869581708093B8010E94B20512
:1044200081708093B70180912102813039F48091AD
:10443000B801882319F089E30E9432118091B502F6
:104440008093B6011092B50280912102813009F467
:104450001AC9882309F413C9823009F423C98430A6
:1044600009F434C9EFE3FCE93197F1F700C000002B
:104470005801E894B7F85CE0C52ED12C6AE0862E8E
:10448000912CC5010C2C02C0969587950A94E2F7F1
:104490008F7090912102923009F01FC98A3008F084
:1044A0001AC990E00996B4010E944534875A0E94C7
:1044B0003211F4E0CF1AD1082CEFC2162FEFD2063A
:1044C00001F780912102813009F415C9882309F48C
:1044D0000EC9823009F41BC9843009F421C98091C6
:1044E000B6018093B50280919D0380FF38C00E9481
:1044F00060056C01F7018281882309F421C980914C
:10450000260182FF08C027E132E040E0B60190E0DA
:1045100080E00E94120E0B31FCE51F0709F402C96E
:104520000C312CE5120709F403C990912601892F5B
:104530008E7F90FF81600A313CE5130709F4FBC8C8
:10454000C8019056811540E2940728F0905E8115CD
:10455000904108F003C91092D9021092D802033F8B
:10456000FCE51F0709F448CA08F0E7C9083D3CE527
:10457000130709F43BCA093D4CE5140709F454CA72
:10458000073D5CE5150709F0E4C906E221EE41EEBE
:1045900067ED7CE5C7010E9453110C94A21A00310B
:1045A0003FE5130709F465C801314FE5140709F029
:1045B00028CF82E05FC806311C4509F072CA80919D
:1045C000B502982F9A7A20919C0320FF04C0482FAF
:1045D000447409F090E021FF04C0482F417109F0B4
:1045E00090E022FF04C0482F487809F090E023FFB4
:1045F00003C0827209F090E0332309F46CCB81E0B0
:10460000911101C080E08093B90169E2911165E3E5
:104610008EEA91E00E946C050E94BC0A0C94A21ADA
:10462000CF92DF92EF92FF920F931F93CF93DF937E
:104630008091C701807F31F48091C401C0910B0249
:1046400081110BC0DF91CF911F910F91FF90EF90DF
:10465000DF90CF9008952196C7708091CA018C1782
:1046600089F3F090C201E090C301C090C501D090E1
:10467000C601A6016E2D8F2D0E94BE05D0E08111CE
:10468000EACF8E0183E0000F111F8A95E1F7F80150
:10469000E553FE4F81818E11DECF80818F11DBCFFC
:1046A00082818111D8CFE380F480EC18FD0860E0AE
:1046B00082EC91E00E94761380919A0390919B0383
:1046C000E816F90640F68091C7018F7080618093EB
:1046D000C701F801E053FE4F80818F7080618083B5
:1046E00082EC91E00E946C1ADF91CF911F910F91A3
:1046F000FF90EF90DF90CF900C943C0B3F924F9245
:104700005F926F927F928F929F92AF92BF92CF9261
:10471000DF92EF92FF920F931F93CF93DF93CDB76A
:10472000DEB765970FB6F894DEBF0FBECDBF8C0124
:1047300085E0F801DE01519601900D928A95E1F72E
:10474000D8014C9011965C9011971296EC901297AC
:104750001396CD90DC9060E082EC91E00E9476139D
:1047600082ECA82E81E0B82E8090C5019090C60101
:10477000A4016091C3018091C2010E94BE05811114
:10478000CAC1F090C401F601E819F9094F0160E0CF
:10479000FF2009F46DC1C5010E94761360909A0351
:1047A00070909B033090C7018614970408F013C1E2
:1047B0004091C5015091C601B090C201A090C301C3
:1047C000832D807F6A2D09F0ADC08B2D0E94BE0520
:1047D000FE2C81113BC0D80111968C9111978A1142
:1047E00035C08C918B1132C02091C8013091C90124
:1047F00016968D919C912817390741F5E11026C036
:10480000832D8F7080618093C70182EC91E00E94BC
:104810006C1A8091C701F80185838F2D65960FB6BC
:10482000F894DEBF0FBECDBFDF91CF911F910F91E6
:10483000FF90EF90DF90CF90BF90AF909F908F90C0
:104840007F906F905F904F903F900895F4EF6F16B8
:10485000F1E07F0620F480919F0380FF21C0A60134
:10486000652D842D0E94BE05811118C081E08E2522
:1048700080FF16C04E2D652D842D0E941C0B8823B1
:1048800079F082EC91E00E946C1A88E0E2ECF1E0B1
:10489000DF011D928A95E9F7F12CBFCF80E0E8CFC8
:1048A000A601652D842D0E94BE05811124C081E0E2
:1048B0008E25B82FB170CB2E80FF2BC04E2D652DCD
:1048C000842D0E941C0BD82E811123C0498A5A8A3C
:1048D00089899A890E943313292F22952F702230BB
:1048E00060F0243088F49F7061F0F8019581907F2A
:1048F00041F4FD2C92CF80E0DCCF9F7011F0882333
:10490000C1F3805E8830A8F3C8010E946C1ADC2CC9
:10491000F0CFEE2009F481CF8091C70181608093B0
:10492000C701BACF8B2D0E94BE05811124C0D801CA
:1049300011968C9111978A111EC08C918B111BC0FE
:104940002091C8013091C90116968D919C911797BD
:104950002817390781F4E1100EC015963C92C80162
:104960000E946C1A88E0F801A2ECB1E001900D926F
:104970008A95E1F752CFC8010E943F13882339F18D
:10498000EE2029F18091C7018032A0F02091C20170
:104990003091C3013A8729871B86DD86CC868E87B6
:1049A0008091C8019091C901988B8F87CE0109969B
:1049B0000E946C1A88E0F801A2ECB1E001900D921F
:1049C0008A95E1F70E941023FF24F39426CFC801B3
:1049D0000E946C1AF9CF832D807F09F452CF9090FA
:1049E000C2018090C3014091C5015091C601682D5C
:1049F000892D0E94BE0581111CC0F801818188119A
:104A000018C08081891115C02091C8013091C90159
:104A1000868197812817390761F4E1100AC0358231
:104A2000C8010E946C1A88E0D5011D928A95E9F7A9
:104A3000F4CEC8010E943F13882349F2EE2039F2D8
:104A40008091C701803208F4B5CF2091C201309126
:104A5000C3013A8329831B82DD82CC828E838091BD
:104A6000C8019091C90198878F83CE010196A0CF8C
:104A700082EC91E00E94761380919A0390919B03BF
:104A80008816990680F6FE2CEE2009F4A0CFE0905F
:104A9000C201D090C3014091C5015091C6016D2D56
:104AA0008E2D0E94BE05811128C0F80181818D11D3
:104AB00024C080818E1121C02091C8013091C9018C
:104AC0008681978128173907C1F480919F0382FD61
:104AD00049CF9091C70190FD45CF907F09F442CF17
:104AE0008091C7018583903F09F439CF982F907F3B
:104AF000905F8F70892B858332CFC8010E943F134E
:104B0000811158CF8091C70181608093C701C8018E
:104B10000E946C1A82CEEE2009F459CFC8010E947F
:104B20003F13F82E882309F452CF88E0F801A2EC55
:104B3000B1E001900D928A95E1F78091C2019091C8
:104B4000C3010E9433130E94102367CECF93DF93DB
:104B5000CDB7DEB760970FB6F894DEBF0FBECDBFFE
:104B600029873A874B875C876D877E878F87988BED
:104B7000CE0109960E947E2381112FC088E0FE019C
:104B80003996DE01119601900D928A95E1F74C85D8
:104B90005D856A8589850E94BE0581111EC0A09130
:104BA000CA01B0E0CD0101968770992720910B02D0
:104BB0002817190609F193E0AA0FBB1F9A95E1F790
:104BC000A553BE4F98E0FE01319601900D929A9543
:104BD000E1F78093CA010E943C0B80910B029091F7
:104BE000CA01891317C060960FB6F894DEBF0FBED6
:104BF000CDBFDF91CF9108950E9444151092CA0154
:104C000010920B0288E0E2ECF1E0DF011D928A9540
:104C1000E9F7E3CFB8E08B9FC001112485539E4F85
:104C20000E947E238823F9F280910B0290E0019686
:104C30008770992780930B02D0CFEF92FF920F934A
:104C40001F93CF93DF938091DD02882361F0C091A1
:104C5000DC028CE0F82E8091DD02C81758F010922B
:104C6000DD021092DC02DF91CF911F910F91FF9036
:104C7000EF900895EE24E394EC0EE092DC020C2F0A
:104C800010E0CF9DE0011124C252DD4F4B815C81C9
:104C9000698188810E94BE0581111BC08E819F8120
:104CA000892B21F488859985019651F428813981D1
:104CB0004A815B816C817D818E819F810E94A625C6
:104CC000F09EF001F19EF00D1124E252FD4F14828E
:104CD0001382CE2DC0CF10928103109280031092C8
:104CE000270180917F0380937E030E94F7050C9437
:104CF0001D263F924F925F926F927F928F929F926A
:104D0000AF92BF92CF92DF92EF92FF920F931F93D9
:104D1000CF93DF93C0917E0397E0892E01E010E0EE
:104D20002CE0322E3EEF932E4424439480917F0357
:104D30008C1315C00E941D26DF91CF911F910F91FA
:104D4000FF90EF90DF90CF90BF90AF909F908F90AB
:104D50007F906F905F904F903F900C94F705D0E05C
:104D6000FE01EE0FFF1FEA58FC4F80819181889E63
:104D7000D001899EB00D1124A25CBC4F14962C91D9
:104D80001497211157C05090DD02EEEDF2E030E0B3
:104D900020E0712C5D01251508F04AC0E284F384FF
:104DA000D501CD90DC906FEF7FEF612C462D50E068
:104DB000DA01AA0FBB1FAC0DBD1D0D90BC91A02D3B
:104DC000109731F0EA16FB0609F4BA016394EECFAE
:104DD0006F3F7607A1F1D80102C0AA0FBB1F6A95E9
:104DE000E2F77A2AB80102C0660F771F6A94E2F7E9
:104DF000AB014150510974161506F9F4329EF001C9
:104E0000339EF00D1124E252FD4F889ED001899E01
:104E1000B00D1124A25CBC4F12962D913C911397BA
:104E200037832683908291829187808715964C9252
:104E30000E94C9052196C37079CF148213822F5F17
:104E40003F4F3C96A8CF2F923F924F925F926F9226
:104E50007F928F929F92AF92BF92CF92DF92EF920A
:104E6000FF920F931F93CF93DF93CDB7DEB7699770
:104E70000FB6F894DEBF0FBECDBF942F498B252F00
:104E80005A8B6B8B7C8B8D8B4C895D89622F892F24
:104E90000E94BE05811109C08091BA019091BB01A9
:104EA00001969093BB018093BA018B898111109276
:104EB000CE031D861E861F86188A85E0FE01719628
:104EC000DE01199601900D928A95E1F780912002FA
:104ED00082FD1EC08091840390918503892BC1F0CF
:104EE0000E94600520910D0230910E02821B930BEF
:104EF00020918403309185038217930720F08091DD
:104F00000F0282FFF5C10E94A20A81110E946F0A5E
:104F10004C855D856A8589850E94BE05811111C019
:104F200061E0CE0109960E9476136C018B8527EF14
:104F3000C2162CE5D20681F4882321F181E080930A
:104F4000270129853A854B855C856D857E858F8512
:104F500098890E94A625C5C038EFC3163CE5D30644
:104F600029F4882379F00E946B26EBCF49EFC41611
:104F70004CE5D40639F4882329F08091270181116A
:104F8000F2CFDCCF0EE313E0512CB12CA12C222464
:104F90002394312C2EEF422EF80140815181882438
:104FA0008A94982C20E0822F90E0FC01EE0FFF1FE6
:104FB000E40FF51F608171816115710531F0C6162E
:104FC000D70609F44C012F5FEECFF12CFFEF8F16BF
:104FD0009F0609F448C0F8014481F09027018F2D05
:104FE000411180E0F82FF170FF2EF801E5808681F5
:104FF0009B85992309F40CC1FF2009F409C1609035
:10500000980370909903E11012C0A10101C0440FF0
:105010008A94EAF7842B86838091DA029091DB02EE
:105020008615970520F47092DB026092DA02C101C6
:1050300002C0880F991F2A95E2F70197F80126818F
:105040002817190681F480918003909181030097BD
:1050500009F460C00E9451056816790608F05AC02C
:1050600021E0F80124835F28FFEFAF1ABF0A095F30
:105070001F4F28E0A216B10409F08ECF8B8588233C
:1050800009F421C1552009F41EC10E9460059093C6
:105090008103809380038091DD02883010F591E0D8
:1050A000980F9093DD0298E0FE013996DE0111968B
:1050B00001900D929A95E1F73CE0839FC001112485
:1050C00082529D4F28E0FE013196DC0101900D9245
:1050D0002A95E1F72FEF3FEFFC0131872087D38638
:1050E000C28669960FB6F894DEBF0FBECDBFDF91C2
:1050F000CF911F910F91FF90EF90DF90CF90BF90D5
:10510000AF909F908F907F906F905F904F903F9067
:105110002F90089580917E0350917F03982FF0E0A7
:10512000E0E0851314C090937E03E017F10709F4C3
:105130009ACF90E0FC01EE0FFF1FEA58FC4FB182BE
:10514000A08201968370992780937F038CCF682E6D
:10515000712CF301EE0FFF1FEA58FC4F20813181C3
:1051600047E0429FD001439FB00D1124A25CBC4F89
:105170006D917C911197798F688F40E020E030E04D
:10518000E32FF0E0EE0FFF1F688D798DE60FF71F1C
:105190008080918081149104E1F0F8010190F08108
:1051A000E02DFF8BEE8B20E005C08616970609F4F4
:1051B0004F2D2F5FE22FF0E0EE0FFF1F6E897F89EA
:1051C000E60FF71F608171816115710571F73F5F0F
:1051D000D7CF4423D1F0F801231708F0FD0121E0D7
:1051E00024830E171F0721F490937E03F42E3BCFE8
:1051F000981305C0AE17BF0711F49F5F937093011A
:105200002F5F3F4F822F83708CCFF0E0E0E0F7CF2D
:1052100090E0E1101FC0B10102C0660F771F2A9510
:10522000E2F79B01215031098217930731F444239F
:1052300009F447C0C5010E94C905C10101C0880F1A
:105240008A94EAF7982F9095F801868189238683BE
:10525000FE2C09CF9C01082C02C0359527950A9495
:10526000E2F7A90141705527BC01615071098623FD
:105270009723892B11F5452B01F1F8018281938148
:10528000892BC1F01B821C821D821E8249824A82A8
:105290000E9460058160582F9D838C83F801828174
:1052A00093818F83988729813A814B816D817E819B
:1052B0000E94A625F8011582C0CFF22FF170EF2EC3
:1052C000BCCFEF2CBACF90917E0380917F039817CB
:1052D00031F00E947926552009F433CE02CF0E9486
:1052E0001D2610928103109280030E94F705F3CFD0
:1052F00082E00E94FA0B07CECF93DF9300D000D05C
:105300000F92CDB7DEB79093B2028093B1028115B0
:1053100020E2920748F40F900F900F900F900F909B
:10532000DF91CF910C94210D8EEF89838A831B82AC
:105330000E9460058160782F9D838C8349815A810A
:105340006B818D810F900F900F900F900F90DF91D8
:10535000CF910C942327CF93DF9300D000D00F92EE
:10536000CDB7DEB79093B2028093B102811520E2EF
:10537000920748F40F900F900F900F900F90DF91CD
:10538000CF910C94390D8EEF89838A8381E08B83D2
:105390000E9460058160782F9D838C8349815A81AA
:1053A0006B818D810F900F900F900F900F90DF9178
:1053B000CF910C942327BF92CF92DF92EF92FF926E
:1053C0000F931F93CF93DF93B82EC090CD0380919E
:1053D000CC03C82AC7E0D0E0D12CF12CE12CD701B6
:1053E000C6010C2E04C0B695A795979587950A948B
:1053F000D2F780FF1FC04B2D60E08C2F0E949012CF
:105400008C0181309105B1F00E94AB298FE39CE9BA
:105410000197F1F700C00000C8010E947C2981E0DB
:10542000DF91CF911F910F91FF90EF90DF90CF9080
:10543000BF900895219798F64B2D60E080E00E9480
:105440009012EC010E94AB298FE39CE90197F1F7E0
:1054500000C00000CE01E1CFBF92CF92DF92EF9269
:10546000FF920F931F93CF93DF9300D00F92CDB78E
:10547000DEB719821A821B8202E611E0BB24B394C4
:10548000EE24E394F12C98E6C92E91E0D92ED801B0
:105490008D918D018F3F09F444C0F894E82FE29577
:1054A000EF70F0E021A18F70A70102C0440F551FDB
:1054B0008A95E2F7CA01922F982B91A392A1809529
:1054C000892382A3789400C065E671E0FE013196DD
:1054D0004B2D4095DB019D91BD0180819F3F09F4DB
:1054E0005EC0292F22952F7030E0D90190962C9123
:1054F00030E09F7002C0359527959A95E2F720FD20
:105500004EC08B2980833196C616D70619F7F8014D
:10551000319780818F3F11F00E948D08B0EABA95D3
:10552000F1F7BB0CE1E005361E0709F0B0CF43E010
:1055300050E0BE016F5F7F4F85E292E00E94CF3462
:1055400011E0009709F410E0892B59F189819A81C3
:10555000AB818093250290932602A093270281E0DD
:10556000809316020E9460059093150280931402A6
:1055700080911402909115020E9451050597A8F0A0
:105580008091250280933502809126028093360215
:1055900080912702809337021092160206C084235E
:1055A000B1CF809116028111E3CF8091270188232A
:1055B000F9F080918003909181030097C9F00E94D7
:1055C00051052091DA023091DB022817390780F467
:1055D00090917E0380917F039817D1F10E947926E4
:1055E0001092DB021092DA02109281031092800373
:1055F00080919D0380FF1EC08091260182FF1AC00A
:105600000E9460052091D6023091D702AC01421B66
:10561000530B20912401309125014217530750F07C
:1056200027E132E041E0BC018091D8029091D9029B
:105630000E94120E812F0F900F900F90DF91CF914B
:105640001F910F91FF90EF90DF90CF90BF90089542
:105650000E941D2610928103109280030E94F7057C
:10566000C7CF90E080E00E940A358A3E9E4F11F439
:105670000C94841380E008951F920F920FB60F923E
:1056800011242F933F934F935F936F937F938F9347
:105690009F93AF93BF93CF93DF93EF93FF93D091FB
:1056A000E900DF708091EC00C82FC17080FDC0E878
:1056B0001092E9008091F000877F8093F000789449
:1056C0000E944F151092E9008091F000886080934D
:1056D000F000CD2BCF70C093E900FF91EF91DF91E7
:1056E000CF91BF91AF919F918F917F916F915F917A
:1056F0004F913F912F910F900FBE0F901F901895D3
:105700001F920F920FB60F9211242F933F934F9336
:105710005F936F937F938F939F93AF93BF93EF9319
:10572000FF938091E10082FF09C08091E20082FF37
:1057300005C08091E1008B7F8093E1008091DA00C9
:1057400080FF24C08091D80080FF20C08091DA00C3
:105750008E7F8093DA008091D90080FF9DC080E128
:1057600089BD82E189BD09B400FEFDCF81E080934F
:10577000C2038091B503811109C00E94C3030E9436
:105780008E048091E20084608093E2008091E100C9
:1057900080FF17C08091E20080FF13C08091E2007B
:1057A0008E7F8093E2008091E20080618093E2002E
:1057B0008091D80080628093D80019BC85E08093E6
:1057C000C2038091E10084FF2BC08091E20084FF3E
:1057D00027C080E189BD82E189BD89B5982F91708C
:1057E00080FFFBCF8091D8008F7D8093D80080917F
:1057F000E1008F7E8093E1008091E2008F7E8093B4
:10580000E2008091E20081608093E2008091C30316
:10581000882309F447C084E08093C2038091C203C7
:105820008091E10083FF27C08091E20083FF23C0C5
:105830008091E100877F8093E10082E08093C20342
:105840001092C3038091E1008E7F8093E1008091EC
:10585000E2008E7F8093E2008091E200806180937D
:10586000E20042E060E080E00E945C048091F00091
:1058700088608093F000FF91EF91BF91AF919F916D
:105880008F917F916F915F914F913F912F910F90E9
:105890000FBE0F901F90189519BC1092C203109262
:1058A000B50374CF8091E30087FD93E09093C2032A
:1058B000B5CF78941F921FB61F9211248F939F9398
:1058C000AF93BF938091AE039091AF03A091B003CB
:1058D000B091B1030196A11DB11D8093AE039093C9
:1058E000AF03A093B003B093B103BF91AF919F9169
:1058F0008F911F901FBE1F9018951F921FB61F9269
:1059000011248F939F93AF93BF938091AD03811127
:1059100013C08091AE039091AF03A091B003B091FA
:10592000B1034196A11DB11D8093AE039093AF03C7
:10593000A093B003B093B103BF91AF919F918F91AA
:105940001F901FBE1F901895CDB7DEB7E4970FB616
:10595000F894DEBF0FBECDBF84B7877F84BF0FB67C
:10596000F894A895809160008861809360001092FF
:1059700060000FBE80E890E00FB6F894809361005D
:10598000909361000FBE85B7806885BF85B780683A
:1059900085BF8BE898E09093AD018093AC010E94A5
:1059A00023180E946B120E94C3030E948E048091F0
:1059B000E20084608093E20078948091C20388239F
:1059C000A1F01091E9001F709091EC00892F817077
:1059D00090FD80E8182B1092E9008091E80083FD8B
:1059E0000E944F151F701093E90082E084BD93E080
:1059F00095BD9AEF97BD80936E000E94841381112C
:105A000002C00E94351580EF0E948D0885E30E9438
:105A10008D0886E30E948D0881EF0E948D0886E93B
:105A20000E948D0887E90E948D0883E0E5E3F2E09B
:105A3000DF01282F1D922A95E9F7E5E2F2E0DF0168
:105A40001D928A95E9F70E94312B811102C00E94B4
:105A5000021A82E090E00E94FC3480932F020E94A0
:105A60009D139093200280931F020E942C2ABFEF67
:105A7000E6E7F1E0B150E040F040E1F700C000009F
:105A80000E942C2A8091350280FF08C06FEF7FEFC3
:105A900090E080E00E942E350E94E40D83E090E0CB
:105AA0000E94FC340E94370C8CE090E00E94FC3491
:105AB00090E0B0E0A0E08093210290932202A093B6
:105AC0002302B093240280912802811133C00E94E6
:105AD000312B811104C00E94021A0E94F31988E040
