:100000000C94B1050C94F8050C94F8050C94F805C3
:100010000C94F8050C94F8050C94F8050C94F8056C
:100020000C94F8050C94F8050C94F82C0C94CC2D39
:100030000C9431280C94F8050C94F8050C94F805F0
:100040000C94F8050C94F8050C94F8050C94F8053C
:100050000C94F8050C9488280C94F8050C94F80579
:100060000C94F8050C94F8050C94F8050C94F8051C
:100070000C94F8050C94F8050C94F8050C94F8050C
:100080000C94F8050C94F8050C94F8050C94F805FC
:100090000C94F8050C94F8050C94F8050C94F805EC
:1000A0000C94F8050C94F8050C94F8050000010375
:1000B000060C183123664444C4C484848484C4C4B4
:1000C0004446662311180C06030000001F78C10F78
:1000D00038E0C00000020E0E8EC6C04040C0C68E82
:1000E0000E0E020080C060380FC07C0FF81EC3F8EF
:1000F0005C767B6D755555756D7B765E7E775B6D39
:10010000755555754D7B665CF0C33EF0000080C0B0
:100110006030180C040682C34361A1A1A1A1614310
:10012000C38206040C183060C0800000202020002C
:100130005343522000202020004341502000202023
:1001400020004E554D20005374617475733A2000A1
:100150004E2F4120004C617965727300464E20207D
:10016000202000524742202020004D61696E20204F
:10017000004C617965723A2000546865204D6164D5
:10018000204E6F6F646C6500000000000000A84204
:10019000AE00AC00AB00AF007A00B200B100B3001B
:1001A0007C007B007D001350000000000000C35C59
:1001B000C45CC65CC75CC55CCC5CCD5CCA5CCB5C1B
:1001C000C85CC95CD65C1050000000000000000054
:1001D000000000000000000000000000000000001F
:1001E00000000000000010500000000000000000AF
:1001F000115012500000000000000000000000003C
:10020000000000000000105000000000000000008E
:100210002A2B280000000000000000000000000061
:1002200000000029000000002C1E3420212224346C
:100230002627252E362D3738271E1F20212223243E
:1002400025263333362E37381F0405060708090ADA
:100250000B0C0D0E0F101112131415161718191A76
:100260001B1C1D2F3130232D350405060708090AF4
:100270000B0C0D0E0F101112131415161718191A56
:100280001B1C1D2F3130354C000000000000000009
:10029000000000000000000000000000000000005E
:1002A0000000000000000000000000007E0F00D4ED
:1002B000FFFFFFC70000007800047F3F1F64321477
:1002C000643214783C1E1E140A0522232526282990
:1002D0002A2C2D2F3032333536383A3B3D3E4042C2
:1002E000434547494A4C4E5051535557595A5C5E05
:1002F0006062646668696B6D6F71737577797B7D19
:100300007F81838587898A8C8E90929496989A9C17
:100310009E9FA1A3A5A7A8AAACAEAFB1B3B4B6B82F
:10032000B9BBBCBEBFC1C2C3C5C6C7C9CACBCCCD91
:10033000CED0D1D2D2D3D4D5D6D7D7D8D9D9DADA6C
:10034000DBDBDBDCDCDCDCDCDDDDDDDDDCDCDCDCEC
:10035000DCDBDBDBDADAD9D9D8D7D7D6D5D4D3D220
:10036000D2D1D0CECDCCCBCAC9C7C6C5C3C2C1BFFE
:10037000BEBCBBB9B8B6B4B3B1AFAEACAAA8A7A562
:10038000A3A19F9E9C9A98969492908E8C8A89871E
:100390008583817F7D7B79777573716F6D6B6968FC
:1003A000666462605E5C5A5957555351504E4C4AD0
:1003B0004947454342403E3D3B3A3836353332307B
:1003C0002F2D2C2A292826252322FFAA7F554000DD
:1003D0000101010101010101010202020202020206
:1003E00002020303030303030303040404040404D9
:1003F000040505050505060606060607070707079F
:1004000008080808090909090A0A0A0B0B0B0C0C51
:100410000C0D0D0D0E0E0E0F0F0F101011111112ED
:100420001213131414151516161717181819191A6C
:100430001A1B1B1C1D1D1E1E1F20202122222324CF
:1004400024252626272829292A2B2C2D2D2E2F300E
:10045000313232333435363738393A3B3C3D3E3F22
:10046000404142434445464748494A4C4D4E4F500F
:10047000515354555658595A5B5D5E5F61626465CD
:100480006668696B6C6D6F7072737577787A7B7D57
:100490007E8082838587888A8C8E8F9193959698AB
:1004A0009A9C9EA0A2A3A5A7A9ABADAFB1B3B5B7C7
:1004B000BABCBEC0C2C4C6C9CBCDCFD1D4D6D8DB9E
:1004C000DDDFE2E4E7E9EBEEF0F3F5F8FAFDFF003B
:1004D000AE00AF00DA0281FFD9F1DB20A4A62EAF77
:1004E00000A0C000A1C800AED580A81FD300408DD9
:1004F00014200007087F0807003E5B4F5B3E003E6C
:100500006B4F6B3E001C3E7C3E1C00183C7E3C1832
:10051000001C577D571C001C5E7F5E1C0000183CB1
:10052000180000FFE7C3E7FF00001824180000FFD1
:10053000E7DBE7FF0030483A060E00262979292636
:1005400000407F05050700407F05253F005A3CE736
:100550003C5A007F3E1C1C0800081C1C3E7F0014F7
:10056000227F2214005F5F005F5F0006097F017F2A
:1005700000006689956A0060606060600094A2FF78
:10058000A2940008047E04080010207E20100008B9
:10059000082A1C0800081C2A0808001E1010101049
:1005A000000C1E0C1E0C0030383E383000060E3E8B
:1005B0000E060000000000000000005F00000000C8
:1005C0000700070000147F147F1400242A7F2A12DA
:1005D00000231308646200364956205000000807C3
:1005E000030000001C224100000041221C00002AE0
:1005F0001C7F1C2A0008083E08080000807030009C
:1006000000080808080800000060600000201008CA
:100610000402003E5149453E0000427F4000007206
:1006200049494946002141494D33001814127F10B1
:10063000002745454539003C4A49493100412111CF
:10064000090700364949493600464949291E000034
:100650000014000000004034000000000814224193
:10066000001414141414000041221408000201594B
:100670000906003E415D594E007C1211127C007F3C
:1006800049494936003E41414122007F4141413EB6
:10069000007F49494941007F09090901003E414164
:1006A0005173007F0808087F0000417F410000204F
:1006B00040413F01007F08142241007F40404040FC
:1006C000007F021C027F007F0408107F003E414132
:1006D000413E007F09090906003E4151215E007F2D
:1006E000091929460026494949320003017F0103BF
:1006F000003F4040403F001F2040201F003F403847
:10070000403F00631408146300030478040300618D
:1007100059494D4300007F41414100020408102027
:1007200000004141417F00040201020400404040BA
:100730004040000003070800002054547840007F28
:100740002844443800384444442800384444287F2E
:100750000038545454180000087E09020018A4A45C
:100760009C78007F080404780000447D400000204D
:1007700040403D00007F102844000000417F4000C1
:10078000007C04780478007C080404780038444431
:10079000443800FC182424180018242418FC007C79
:1007A000080404080048545454240004043F44241A
:1007B000003C4040207C001C2040201C003C40307D
:1007C000403C004428102844004C9090907C004409
:1007D00064544C44000008364100000000770000DB
:1007E000000041360800000201020402003C2623FA
:1007F000263C00000000000000404040F0F8F8FFF8
:1008000038FFF8F83FF8F8FF38FFF8F8F0404040BC
:1008100000000000000080C0C0C0800000C0C08098
:1008200000000080C0C000C0C0000080C0C0000048
:10083000000000C0C0C0C0C000C0C0000000000078
:1008400000000000000000000000000000000000A8
:100850000000000000000000000000000000000098
:100860000000000000000000000000000000000088
:100870000000C0F0F8FC3E1E06010000007F414170
:10088000417F007F4141417F000080C0E07E5B4F9F
:100890005BFEC00000C000DCD7DEDEDED7DC00C0BF
:1008A0000000000000000000000000000000000048
:1008B000000000000000000000494949FFFFFFFF61
:1008C000E0DFBFBF00BFBFDFE0FFFFFFFF494949D7
:1008D00000000000001F3F6060E0BF1F007F7F0737
:1008E0001E381E077F7F007F7F0E1F3B7160000058
:1008F0000000007F7F0C0C0C007E7E007F7E0303D7
:10090000007F7E03037E7E03037F7E000F3E703CEC
:10091000063C703E0F00327B49493F7E007F7E03DC
:1009200003001E3F69696F26000000000000000000
:100930000000030F1F3F3C7870600000007F4141C2
:10094000417F007F4141417F00307B7F7830202014
:1009500030787F3B0003000F7F0F0F0F7F0F0003E6
:100960000000000000000000000000000000000087
:10097000000000000000000000010101070F0F7FD0
:100980000F7F0F0F7E0F0F7F0F7F0F0F07010101EA
:100990000000000000000000000001010000000055
:1009A0000000000000000000000000000000000047
:1009B0000000000000000000000000000000000037
:1009C0000000000000000000000000000000000027
:1009D0000000000000000000000000000000000017
:1009E0000000000000000000000000000000000007
:1009F00000000000000000000000000000000000F7
:100A000000000000000000000000000000000000E6
:100A100000000000000000000000000000000000D6
:100A200000000000000000000000000000000000C6
:100A30000000000E03550064006F006E00310033AB
:100A40000000001E0354006800650020004D006196
:100A500000640020004E006F006F0064006C0065B1
:100A60000000000403090409023B00020100A0FA8F
:100A70000904000001030101000921110100012204
:100A800040000705810308000A0904010001030072
:100A90000000092111010001226D000705820320D9
:100AA000000A1201000200000008EDFE011701001B
:100AB0000102000105010980A101850319012AB77E
:100AC00000150126B700950175108100C0050C09BD
:100AD00001A101850419012AA002150126A0029591
:100AE0000175108100C005010906A10185060507F1
:100AF00019E029E715002501950875018102050710
:100B0000190029EF1500250195F0750181020508EE
:100B1000190129059505750191029501750391014A
:100B2000C005010906A101050719E029E7150025FF
:100B30000195087501810295017508810105071964
:100B40000029FF150026FF0095067508810005089D
:100B5000190129059505750191029501750391010A
:100B6000C00011241FBECFEFDAE0DEBFCDBF04B658
:100B700003FE27C08091070590910805A091090503
:100B8000B0910A058730904BA740B04BD1F410923A
:100B90000705109208051092090510920A0514BE67
:100BA00084B7877F84BF0FB6F894A89580916000C2
:100BB000886180936000109260000FBEE0E0F8E36F
:100BC000099511E0A0E0B1E0ECE5F1E602C0059086
:100BD0000D92A23DB107D9F725E0A2EDB1E001C029
:100BE0001D92A730B207E1F70E94CA170C94843017
:100BF0000C940000CF93C62F6091DF017091E0014B
:100C00008091E1019091E2010E946C08823071F0C4
:100C1000833061F0813089F4CC2329F00E94421A9C
:100C200080E0CF9108950E944F1AFACF8FE4C1114E
:100C300001C080E50E949109F3CF89EAC111FACF82
:100C40008AEAF8CF80E00895CF9360E080E00E94C8
:100C5000BA1F60E270E08CE091E00E94AF2061E09A
:100C600080E00E94BA1F60E270E08CEE90E00E948B
:100C7000AF2062E080E00E94BA1F60E270E08CEC7E
:100C800090E00E94AF2063E080E00E94BA1F60E223
:100C900070E08CEA90E00E94AF2060E087E00E9464
:100CA000BA1F60E089E791E00E949D2061E087E043
:100CB0000E94BA1F60E081E791E00E949D20609150
:100CC000DF017091E0018091E1019091E2010E94C9
:100CD0006C088130F1F1882349F08230F1F18330E2
:100CE00009F43FC060E080E591E003C060E08AE67F
:100CF00091E00E949D2062E087E00E94BA1F60E0C0
:100D000087E491E00E949D2063E087E00E94BA1F83
:100D10000E94CC26C82F8EE391E0C0FF02C082E47F
:100D200091E060E00E949D2085E391E0C1FF02C058
:100D300089E391E060E00E949D208CE291E0C2FF97
:100D400002C080E391E060E00E949D2080E0CF91AE
:100D5000089560E083E691E0CCCF60E08CE591E01F
:100D6000C8CF60E085E591E0C4CF9C013A9521159C
:100D70003F4150F5FC01EE27F170BC01662772700F
:100D8000AC01442754709C012227387094FF0EC098
:100D900080E1EF2B09F480E0672B09F08062452B9E
:100DA00009F08064232B89F08068089581E0EF2B9F
:100DB00009F480E0672B09F08260452B09F084601C
:100DC000232B19F08860089580E00895CF93DF9376
:100DD000EC010E94B5069E01205E310928303105E4
:100DE00010F0209739F40E9499098C2FDF91CF9150
:100DF0000C940C090E94110CF8CFCF93DF93EC01F7
:100E00000E945209CE010E94B5069E01205E310962
:100E10002830310510F0CD2B21F4DF91CF910C94C7
:100E2000A009DF91CF910C94180CCF93DF93EC01C4
:100E30000E94E606CE01DF91CF910C94FD0681E081
:100E4000089581E008950C94210708950C942507D6
:100E50001F93CF93DF9300D000D00F92CDB7DEB7B2
:100E600049835A836B833091D40189819A813111EE
:100E70001DC06623B9F02223A9F00E94DB0D182FB4
:100E8000682F89819A810E94880D69817A81812FDA
:100E90000F900F900F900F900F90DF91CF911F91B7
:100EA0000C944E140E94B40D182FEFCF0E94DB0D4E
:100EB00069817A81EDCFFC01262F408151816281C9
:100EC000738184810C94280781E00895CF93DF9388
:100ED000EC0160E00E945B07BE01DF91CF910C94B2
:100EE00026070E9455160E94C0080E947C220C947E
:100EF0007A160C947D1680E00E94C1080E94B21CF4
:100F00000C940B22089508950E94310C0E948307CF
:100F10002FEF84E39CE0215080409040E1F700C037
:100F200000000C94AC280F931F93CF93DF938C0198
:100F300061E00E945B07EC01B8010E94230788234F
:100F400009F441C0B801CE010E9424238823D9F1BD
:100F5000B801CE010E945D258823A9F1B801CE0118
:100F60000E944223882379F1B801CE010E94C72450
:100F7000882349F1B801CE010E94351E882319F15A
:100F8000F8018281882361F0CB35FDE5DF0721F18F
:100F900070F4C115ECE5DE07A1F0CF3DDC45C9F0EA
:100FA000C801DF91CF911F910F910C941F07CC3591
:100FB0008DE5D807A1F0CD35DD4591F70E948B1264
:100FC000EFCF0E94840780E0DF91CF911F910F91B6
:100FD00008950E943F13F7CF0E949412E1CF0E9420
:100FE0009712DECF0C9482070E94C0260E94C1088F
:100FF0000E947E1D0C94F207DF92EF92FF920F93F6
:101000001F93CF93DF93E82FF0E0E85FFD4FD4907C
:10101000282F26952695269530E0F901E855FD4FB5
:101020000491877010E0082E02C0159507950A9468
:10103000E2F701701127F901E856FD4FE490F12C19
:10104000082E02C0F594E7940A94E2F791E0E922B1
:10105000FF24F901E857FD4FC491D0E002C0D595B7
:10106000C7958A95E2F7C170DD270115110519F0C2
:1010700081EE0E940C09E114F10419F086EE0E9441
:101080000C098D2D0E949109EF2819F086EE0E941F
:101090005209012B19F081EE0E945209CD2B51F01B
:1010A0008CE2DF91CF911F910F91FF90EF90DF9035
:1010B0000C949109DF91CF911F910F91FF90EF90C8
:1010C000DF900895982F9F709A50963018F0805DA9
:1010D0000C94FC07895AFCCFCF92DF92EF92FF92DB
:1010E0006C01EE24FF2420E0C114D104E104F104DA
:1010F00019F0C701B60120E1C72ED82EE92EFF2432
:10110000C114D104E104F10419F0285FC701B6014C
:101110006B017C0154E0F694E794D794C7945A95F8
:10112000D1F7C114D104E104F10419F02C5FC70117
:10113000B6016B017C0142E0F694E794D794C79422
:101140004A95D1F7C114D104E104F10419F02E5FDE
:10115000C701B6019695879577956795672B682B9C
:10116000692B09F02F5F822FFF90EF90DF90CF90D7
:10117000089508950C94B90881E008950C94BC0872
:101180000895CF93C82F0E94BA088C2FCF910C944A
:10119000BE08CF93DF93CDB7DEB72B970FB6F89489
:1011A000DEBF0FBECDBF4F83588769877A878B8795
:1011B00061110E94D9111E821D8285E0FE013796C1
:1011C000DE01119601900D928A95E1F78C819D8147
:1011D000892B89F449815A816B817C818D819E8123
:1011E0000E94F7102B960FB6F894DEBF0FBECDBF4E
:1011F000DF91CF91089589819A8189238F3F51F39F
:10120000CE0101960E9464078111E4CFEBCFFC016F
:10121000808191810C941D0ECF93C82F882309F4EF
:101220003FC08CEF8C0F813AA0F46C2F80910201AB
:10123000909103010E942927882329F08C2F0E9476
:1012400098110E9409128C2F0E949111CF910C9439
:10125000091280E28C0F883048F4C77081E001C029
:10126000880FCA95EAF70E94B911F0CFEBE5EC0FB1
:10127000E33040F4F0E0E75AFE4F808190E0CF91F8
:101280000C94E926C85AC73158F4EC2FF0E0EE0F61
:10129000FF1FE55DFE4F80819181CF910C94FF2669
:1012A000CF910895882329F19CEF980F913A20F46B
:1012B0000E9498110C94091290E2980F983050F403
:1012C000877091E001C0990F8A95EAF7892F0E94F3
:1012D000BF11F0CF9BE5980F933020F490E080E0B1
:1012E0000C94E926885A873120F490E080E00C9431
:1012F000FF2608951F93CF93DF93182FEB010E94D1
:101300000C09209731F4812FDF91CF911F910C941C
:1013100052098FE99FE00197F1F700C00000219783
:10132000F0CF70E060E0893311F460E570E00C9478
:101330007A09882321F00E94B9110C9409120895AA
:10134000882321F00E94BF110C9409120895BF92C6
:10135000CF92DF92EF92FF920F931F93CF93DF9381
:101360006C01D62FC72FFC011281F580F2949FE00B
:10137000F9220E94AF11E82E8823B9F0E12E112343
:10138000A1F08C2F807F803421F080E28D0F883097
:10139000B0F08091C90282FD12C082E00E945A1210
:1013A0000E94AF1191E0E82EE926BC2EB2948FE0A6
:1013B000B822EB2DF0E0EA57FF4C0C94E22FE12C21
:1013C000F4CF0C2F0F70C07F11F00295007F112316
:1013D00099F0002359F080E28D0F883010F0D11180
:1013E00007C0802F0E94B9110E9409128D2F41C0A1
:1013F000802F0E94CC11F8CF8D2F0E94520900231C
:1014000009F43FC080E28D0F883010F0D11104C084
:10141000802F0E94BF1103C0802F0E94D2110E9412
:1014200009122FC00C2F0F70C07FC03211F002952F
:10143000007FDD2381F0D13009F469C0112309F464
:1014400073C0FF2009F469C0F601858180FFCECF0B
:101450008F70858362C08091C90282FF38C01123DA
:1014600059F0002329F0802F0E94B9110E9409121F
:1014700080E00E940C0905C080E00E945209011121
:10148000C7CFEB2DE850FF0B349720F40E94C02605
:101490000E94C108EE2009F477C10E94AB1180FDC3
:1014A00073C1F60112820E94A5110E94EC0CC601C4
:1014B0000E94E50B0E94A511DF91CF911F910F9122
:1014C000FF90EF90DF90CF90BF900C940D0D112303
:1014D00089F0F11006C00E94EC11802B0E9499093E
:1014E000D0CFF1E0FF12F7CF0E94EC11802B0E94C9
:1014F000F211C7CFF11006C00E94FF11802F0E9489
:10150000A009BFCF21E0F21609F4BBCFF5CF11231C
:1015100031F035E03F1508F4B4CF802FDFCF84E001
:101520008F1508F4AECFEACFFF2041F3D93349F449
:10153000FFEF27EE33E0F15020403040E1F700C0EC
:1015400000008D2F0E9452099CCF8C2F8695869586
:10155000837069F0813009F094CF8D2F9C2F9370A8
:10156000111102C090E080E00E94FF268ACF8D2FEB
:101570009C2F9370111102C090E080E00E94E92638
:1015800080CF8C2F837009F041C011117ACF4D2F7D
:10159000429546954770440F440F0D2F0F7010E091
:1015A00030E020E0042E04C0000F111F221F331F63
:1015B0000A94D2F760E070E0CB01D4FF0FC06FE077
:1015C00070E080E090E004C0660F771F881F991FCD
:1015D0004A95D2F76095709580959095C695C69579
:1015E000C370602B712B822B932BC23049F058F4BF
:1015F000C13019F00E949E0C44CF0E948C0C41CF48
:101600000E94B00C3ECF0E948A0C3BCF86951123DE
:1016100011F08C2F8170882309F433CF4D2F429520
:1016200046954770440F440F0D2F0F7010E030E0C7
:1016300020E0042E04C0000F111F221F331F0A9444
:10164000D2F760E070E0CB01D4FF0FC06FE070E034
:1016500080E090E004C0660F771F881F991F4A95AD
:10166000D2F76095709580959095C695C695C37094
:10167000602B712B822B932BC23049F058F4C13070
:1016800019F00E94630DFDCE0E94510DFACE0E940A
:10169000750DF7CE0E94C60CF4CECF70112329F041
:1016A0008C2F0E94EC0C8D2F19CF8D2F0E94A0093A
:1016B0008C2F0E940D0DE5CED23F51F160F4D03F4A
:1016C000B9F0D13F81F0112309F449C0F1108ECE59
:1016D0008C2F8F7121C0D33F11F1D43FA1F780919E
:1016E000C90282FF26C08C2F8F71112311F314C001
:1016F000112349F084E08F1508F4C3CE8C2F8F712D
:101700000E94300DBECE95E09F1508F4BACEF6CFFC
:101710008C2F8F711111CDCF0E94EC0CB2CE112302
:1017200029F08C2F8F710E94D70CABCE0E94D20C67
:10173000A8CE112349F0CF718C2F0E94EC0C63E0EE
:101740008C2F0E943F129DCE81E00E945A12E1E050
:10175000EF1508F096CE82E00E945A1292CEF11058
:10176000E5CE8C2F8F71A5CF4C2F4F706D2FC601FA
:101770000E944A140E944B0E84CE4C2F4F706D2F46
:10178000C6010E944D147DCEDF91CF911F910F9124
:10179000FF90EF90DF90CF90BF9008950F931F932D
:1017A000CF93DF93EC01688179818A810E94270EB3
:1017B0008C010E94870D0E94890CB801CE01DF9137
:1017C000CF911F910F910C94A709CF93DF93EC0158
:1017D0008B819C81892B29F08881998189238F3F76
:1017E00059F4DF91CF910895CE010E94CE0BCE0126
:1017F000DF91CF910C946607CE010E94930781116F
:10180000F3CF0E94AF11882361F38A81882349F3C3
:101810008091C90282FDE5CF82E0DF91CF910C94E7
:101820005A12882321F00E94CC110C9409120895B9
:10183000882321F00E94D2110C940912089590E09F
:1018400080E00E94E92690E080E00E94FF260E944E
:10185000D9110E94E9110C9409120E949F110C9455
:101860001F0C0E94C9110C942D0CE92FE295EF700A
:10187000E250EE3070F4F0E0EA56FF4C0C94E22FA8
:10188000803F19F020F4883E20F481E00895843FE1
:10189000E1F380E00895883EC0F3813FD1F7F5CFB2
:1018A00093FB882780F90895FC01808191810E9433
:1018B0001D0E0C94350CCF93DF9300D000D00F9207
:1018C000CDB7DEB70F900F900F900F900F90DF9174
:1018D000CF910895CF93DF9300D000D000D0CDB743
:1018E000DEB726960FB6F894DEBF0FBECDBFDF91F0
:1018F000CF91089508950C947A0C0E947B0C60930C
:10190000E3017093E4018093E5019093E6010C9468
:101910001F0C08950C947D0C0F931F930091E3010D
:101920001091E4012091E5013091E601602B712BCB
:10193000822B932B1F910F910C947D0C0F931F936F
:101940000091E3011091E4012091E5013091E6015D
:1019500060237123822393231F910F910C947D0C9C
:101960000F931F930091E3011091E4012091E50191
:101970003091E60160277127822793271F910F91ED
:101980000C947D0C0C947A0C0C94C20C0E94C40C28
:101990006093DF017093E0018093E1019093E20195
:1019A0000C941F0C60E070E0CB010C94C60C0F93FC
:1019B0001F9341E050E060E070E08A019B0104C0A9
:1019C000000F111F221F331F8A95D2F7C901B801DA
:1019D0001F910F910C94C60C0F931F9341E050E0A0
:1019E00060E070E004C0440F551F661F771F8A95A2
:1019F000D2F78091DF019091E001A091E101B091D7
:101A0000E2018A019B01082B192B2A2B3B2BC901D0
:101A1000B8011F910F910C94C60C0F931F9341E0D6
:101A200050E060E070E004C0440F551F661F771F50
:101A30008A95D2F7CB01BA01609570958095909503
:101A40000091DF011091E0012091E1013091E2016C
:101A500060237123822393231F910F910C94C60C52
:101A60000F931F9341E050E060E070E004C0440F2A
:101A7000551F661F771F8A95D2F78091DF019091DD
:101A8000E001A091E101B091E2018A019B010827E8
:101A900019272A273B27C901B8011F910F910C94E0
:101AA000C60C0F931F930091DF011091E00120916C
:101AB000E1013091E201602B712B822B932B1F915E
:101AC0000F910C94C60C0F931F930091DF0110919E
:101AD000E0012091E1013091E20160237123822332
:101AE00093231F910F910C94C60C0F931F93009199
:101AF000DF011091E0012091E1013091E2016027C6
:101B00007127822793271F910F910C94C60C08957B
:101B1000990F990F890F982F977041E001C0440FDA
:101B20009A95EAF786958695869595E0899FF001C6
:101B30001124EB52FE4F30E020E070E05191DF01C4
:101B40001197CB01022E02C0969587950A94E2F771
:101B5000817081958527842385278C932F5F3F4F44
:101B60002530310559F70895990F990F890F982F4E
:101B7000977086958695869525E0829FF0011124C1
:101B8000EB52FE4F50E040E080E0219130E0092E22
:101B900002C0369527950A94E2F721703327042E68
:101BA00001C0220F0A94EAF7822B4F5F5F4F453046
:101BB000510559F70895BF92CF92DF92EF92FF92AD
:101BC0000F931F93CF93DF938C01C090DF01D090D0
:101BD000E001E090E101F090E2018091E301909159
:101BE000E401A091E501B091E601C82AD92AEA2AC8
:101BF000FB2ACFE1D0E0BC2ED701C6010C2E04C0D9
:101C0000B695A795979587950A94D2F780FD0EC053
:101C1000219788F7B12C8B2DDF91CF911F910F91D8
:101C2000FF90EF90DF90CF90BF900895B8018C2F78
:101C30000E947415019761F3EECFCF93DF93EC010F
:101C40000E94DB0DBE01DF91CF910C9474151F93A0
:101C5000CF93DF93EB019091D401992331F0CB0125
:101C6000DF91CF911F910C941D0E882379F0CB0149
:101C70000E94DB0D182F682FCE010E94880DBE0137
:101C8000812FDF91CF911F910C947415CB010E948D
:101C9000B40D182FF4CFEF92FF920F931F93CF93B1
:101CA000DF938C01892B81F0F12CEE24E394E80181
:101CB0002196F8018491843770F4843008F05FC075
:101CC0008130B1F08230A1F1DF91CF911F910F915E
:101CD000FF90EF900895853709F44CC008F43DC09B
:101CE0009CE7980F903780F78F770E94520949C080
:101CF0000E5F1F4FFE01849190E2980F983060F4C0
:101D00008770FE2D01C0FF0F8A95EAF78F2F0E9482
:101D1000DC110E94091202C00E940C098F2D815013
:101D200030F2EFE9FFE03197F1F700C00000F7CFA4
:101D30000E5F1F4FFE01849190E2980F983050F48F
:101D40008770FE2D01C0FF0F8A95EAF78F2F0E9442
:101D5000E211DFCF0E945209E1CF0E5F1F4FFE015B
:101D6000C491C150D8F28FE99FE00197F1F700C00C
:101D70000000F7CF0E5F1F4FFE01F490CFCF0E94FF
:101D80000C098E01CBCF1F93CF93DF93C091E70156
:101D900016E08091E8018C1304C0DF91CF911F9170
:101DA0000895D0E01C9FF0011D9FF00D1124E75114
:101DB000FE4F4081518162817381848195810E94AF
:101DC0006A0C2196C770E5CF4091190250911A0212
:101DD00060911B0270911C0280911D0290911E0265
:101DE0000C946A0CFF920F931F93CF93DF93809113
:101DF0001E02807FD1F480911B028823B1F0809174
:101E0000E7011091E8016091190270911A02A09106
:101E10001C02B0911D02062F0723C0910001D09132
:101E2000010196E0F92E181306C0DF91CF911F91A2
:101E30000F91FF90089590E0109711F00F3F19F463
:101E400001968770F0CFF89E9001F99E300D112415
:101E5000F901E751FE4F41814713F2CF408146130C
:101E6000EFCF42814111ECCF438154814A1B5B0B80
:101E70004C175D0728F780911E028F708061809358
:101E80001E02F901E251FE4F80818F7080618083D4
:101E900089E192E00E94E50BDF91CF911F910F91B4
:101EA000FF900C94C30EAF92BF92CF92DF92EF924D
:101EB000FF920F931F93CF93DF93CDB7DEB7619758
:101EC0000FB6F894DEBF0FBECDBF8C0185E0F801E0
:101ED000DE011D9601900D928A95E1F7F801E280EE
:101EE00089E1C82E82E0D82E60911C0270911D02FB
:101EF0006115710509F45FC19091190220911A02D0
:101F0000892F82238F3F09F456C140815181A380DC
:101F1000B480F0901B02F501E61BF70BBF01E091C6
:101F20000001F0910101FF2009F4F6C080911E022A
:101F3000382F307F6E177F0708F0AFC0311179C09E
:101F4000FE2C251323C0941321C0E1101FC08F70F5
:101F5000806180931E020E94E40EC6010E94E50B80
:101F600080911E02F80185838F2D61960FB6F8943B
:101F7000DEBF0FBECDBFDF91CF911F910F91FF90BC
:101F8000EF90DF90CF90BF90AF900895AB2829F0ED
:101F9000842F85238F3F09F027C180E0F82FF1704F
:101FA000DF2E80FF3CC08091E7012091E80136E000
:101FB000821315C04D875E878D859E850E941D0EFC
:101FC000292F22952F702230F0F0243018F59F70C1
:101FD000F1F0F8019581907FD1F4D12C1EC090E0F2
:101FE000389FF001399FF00D1124E751FE4F6181B8
:101FF000651306C06081641303C062816E110FC057
:1020000001968770D5CF9F7011F0882331F3805EE1
:10201000883018F3C8010E94E50BFD2CA5CFEE20F7
:1020200009F4A2CF80911E02816080931E02F12CE0
:102030009BCF251306C0941304C0F801EE2009F4C9
:1020400087C0C8010E94540C882319F1EE2009F1C1
:1020500080911E02803270F02091190230911A0294
:1020600038872F831986BB86AA868C87CE01079670
:102070000E94E50B86E0F801A9E1B2E001900D9223
:102080008A95E1F70E94F20E0E94E40EFF24F39479
:102090006BCFC8010E94E50BF9CF311113C07A2D27
:1020A000B98AA88A6E2D89890E945B0C89E192E029
:1020B0000E94E50B86E0F60111928A95E9F70E94ED
:1020C000E40EB5CF25130FC094130DC0E1100BC063
:1020D000F8018583C8010E94E50B86E0F6011192A4
:1020E0008A95E9F741CFC8010E94540C882389F2F0
:1020F000EE2079F280911E02803208F4BBCF20914D
:10210000190230911A023A8329831B82BD82AC8264
:102110008E83CE010196ACCF6E177F0708F03EC0CC
:10212000FE2CEE2009F4B5CF25132AC0941328C045
:1021300080911E0280FD1BC0982F907FC1F0F80196
:102140008583903F31F0982F907F905F8F70892B1F
:102150008583C8010E94E50B86E0F801A9E1B2E0A1
:1021600001900D928A95E1F70E94E40EFDCE86E083
:10217000F801A9E1B2E001900D928A95E1F7F4CE61
:10218000C8010E94540C811175CF80911E0281609C
:1021900080931E02C8010E94E50BE6CE7A2DB98A13
:1021A000A88A6E2D89890E945B0C86E0F601119247
:1021B0008A95E9F7D9CFEE2009F46BCFC8010E94C8
:1021C000540CF82E882309F464CF86E0F801A9E1C5
:1021D000B2E001900D928A95E1F789E192E00E94C8
:1021E00007090E94F20EC0CF81E08E25D7CE1F9343
:1021F000CF93DF93CDB7DEB72C970FB6F894DEBF41
:102200000FBECDBF4F83588769877A878B879C879E
:10221000CE0107960E94530F882369F08A859B851B
:10222000892B39F04F815885842F85238F3F09F002
:1022300071C016E05FC086E0FE013796DE011196A0
:1022400001900D928A95E1F78A859B85892B89F308
:102250008F81988589238F3F61F32091E80130E0D9
:10226000C9010196877099274091E701481719061F
:1022700071F40E94310C1092E8011092E70186E09F
:10228000E9E1F2E0DF011D928A95E9F7D2CF96E00D
:10229000929FD001939FB00D1124A751BE4FFE0114
:1022A000319601900D929A95E1F78093E8010E9492
:1022B000C30EBFCF819FC001112487519E4F0E9442
:1022C000530F8823E9F0E091E7011E9FF0011124EC
:1022D000E751FE4F408151816281738184819581F4
:1022E0000E946A0C8091E70190E00196877099271F
:1022F0008093E7018091E7019091E8018913DACF9B
:102300002C960FB6F894DEBF0FBECDBFDF91CF91F4
:102310001F91089569857A858B859C850E946A0C3A
:1023200088CF682F80910201909103010C94A92716
:10233000682F80910201909103010C94B427809141
:102340000201909103010C94BF2780911F02859593
:1023500085958595089580911F02877008959091C5
:102360001F02977081E009F480E008958091430294
:10237000089590914302892B80934302089580959C
:1023800090914302982390934302089580934302CF
:10239000089510924302089590914202892B8093F0
:1023A00042020895809590914202982390934202B0
:1023B000089510924202089590914102892B8093D2
:1023C0004102089580959091410298239093410293
:1023D0000895109241020895809120020895089571
:1023E0000C94EF119091C90292FD08C090912002C7
:1023F000981721F0809320020C94F0110895809199
:102400002002882329F01092200280E00C94F01121
:102410000895E0910201F0910301809143028083CD
:10242000E0910201F0910301808190914202892B99
:102430008083E0910201F09103018081909141023B
:10244000892B808390912002992381F0E0910201F1
:10245000F09103018081892B80838091020190910A
:1024600003010E94152781110E94FF118091020132
:10247000909103010C94CF2608950C943C129091F6
:10248000C90292FD10C098E0899F90011124622B2F
:1024900060931F020E94EC0C80911F028595859528
:1024A00085950C943D120C94EC0C10921F0280E068
:1024B0000C943D1290911F028095892380931F02F6
:1024C000282F277091F4282F082E000C330B921719
:1024D000130659F09091C90292FD07C08595859524
:1024E00085950E940D0D0C94551208959091C90286
:1024F00092FB222720F9281769F080FB92F990932C
:10250000C9028091C8029091C9020E94BB1282E068
:102510000C945A1208958091C90282FB882780F991
:1025200091E089270C94761281E00C94761280E079
:102530000C94761290E080E00E944A3021E0893EBF
:102540009E4F09F020E0822F089582E090E00C94E5
:102550003C3083E090E00C943C30CF9384E090E0FA
:102560000E943C30C82F82E290E00E943C30982FBD
:102570008C2FCF910895CF93C92F682F84E090E0DE
:102580000E9450306C2F82E290E0CF910C9450303A
:10259000AB01BC018FE090E00C946230AB01BC0158
:1025A00083E190E00C94623060E070E0CB010C9429
:1025B000CE1260E070E0CB010E94C8120C94D412DD
:1025C00069EE7EEF90E080E00E946E3060E082E095
:1025D00090E00E94503060E083E090E00E94503034
:1025E0001092E3011092E4011092E5011092E601CD
:1025F00060E084E090E00E94503060E082E290E091
:102600000E94503060E085E090E00E94503060E031
:1026100086E090E00E9450306FEF87E090E00E94EB
:10262000503040E050E0BA0188E090E00E94623013
:1026300060E08DE090E00E94503040E050E0BA0150
:1026400088E190E00E94623060E087E190E00E94C3
:10265000503040E050E0BA018CE190E00E946230DE
:1026600070E060E080E290E00E946E3040E050E078
:10267000BA0188E190E00E9462300C94D9120C9467
:10268000E012682F8EE090E00C9450300E946D288C
:1026900060935102709352028093530290935402BC
:1026A00060934D0270934E0280934F0290935002BC
:1026B00008950E946D286093510270935202809396
:1026C0005302909354026093490270934A0280939C
:1026D0004B0290934C02089585B7806885BF85B7FB
:1026E000806885BF0895089508950C947313089524
:1026F0000C9477130E946C1382E596E10E94B62633
:102700000E9474130C94751381E008950C94841343
:10271000089508950E9488130C9489130E945828E4
:102720000E942B1780E00E94721F0E94431D0E948E
:102730006E240C9478139F92AF92BF92CF92DF9247
:10274000EF92FF920F931F93CF93DF93CDB7DEB736
:102750002A970FB6F894DEBF0FBECDBF0E94401778
:10276000C82E81110E94461385E4A82E82E0B82E5F
:1027700010E000E0902E802F0E947F16E82EF501D9
:10278000F1905F01F81609F45CC08091550281FD5B
:102790000E9485168F2D8E25D12CFF24F394982F1F
:1027A0009F2109F449C00E948613882399F0DE8294
:1027B0009F82EF2081E009F480E088870E946128F1
:1027C0008160782F9A8789874E815F8168858A85A5
:1027D0000E94C908F801EB5BFD4F8081F826F0826A
:1027E0000E94871D0E947F24182F81110E94591377
:1027F0000E942822C11001C011110E94EF200E94E6
:10280000C02690914402891799F10E94C0268093B6
:1028100044022A960FB6F894DEBF0FBECDBFDF91FB
:10282000CF911F910F91FF90EF90DF90CF90BF90CD
:10283000AF909F900C94C108D394FF0CF4E0DF128A
:10284000AECF0F5F1F4F0430110509F093CF8FEF0C
:1028500089838A831B820E9461288160782F9D83EF
:102860008C8349815A816B818D810E94C908B8CFC0
:102870002A960FB6F894DEBF0FBECDBFDF91CF9181
:102880001F910F91FF90EF90DF90CF90BF90AF908E
:102890009F90089590E080E00895089524E0829F3D
:1028A000C0011124FC01E70FF11DEE0FFF1FEE0F19
:1028B000FF1FE60FF11DEE0FFF1FE857FE4F85913A
:1028C00094910895FC01EE0FFF1FE854FD4F859190
:1028D00094910895CF93DF930E947815EC018115B0
:1028E00020E5920708F041C0811530E4930708F015
:1028F000B4C0803E910518F5803C910508F09DC05C
:10290000883A910570F4853A910508F08EC08130BF
:102910009105F9F00097E9F00497D8F4D0E0C0E011
:1029200018C08F3B9105D0F7C85AD0E0CC0FDD1FFF
:10293000C45ADE4F0990D881C02DD4640AC08115D5
:10294000904258F4C11581E0D80718F4C83ED1056B
:1029500028F7CE01DF91CF910895C11590E3D907F3
:1029600008F071C0CE019F706AC0811525E59207FD
:1029700058F5811534E5930708F09EC0811542E5AE
:10298000940750F4C11581E5D80708F469C0DC2F1D
:10299000CC27C16FD06ADDCF982F969596959E0172
:1029A00023703327C115D34508F077C0C1E0D0E0CC
:1029B00002C0CC0FDD1F2A95E2F720E2929FC001F2
:1029C0001124C82BD92B67C0C11589E5D807A8F4F5
:1029D000C11598E5D90708F074C0C11526E5D207DE
:1029E00008F09CCF8C2F0E940F16C82FD0E0DC2F50
:1029F000CC27CC27DF71D062ACCFC1153AE5D30725
:102A000008F464C0CE0190568115904208F086CF3C
:102A10008D2F8F710E940F1690E0982F882788279E
:102A20009F719C012C2BE901E6CFC55AD0E0C65717
:102A3000DE4FC881D0E0D0648CCF805C91090E94C9
:102A40006214EC0186CFCE019927D3FF03C0EC01BD
:102A5000D86C7FCFEC01D06C7CCFDF70D06A79CF9F
:102A6000CE01E4E096958795EA95E1F783702C2FE7
:102A700026952695237090E2299F90011124382BEA
:102A80008C2F8370C1E0D0E002C0CC0FDD1F8A958F
:102A9000E2F7C22BD32BDC685CCFC1E0D0E002C0F0
:102AA000CC0FDD1F2A95E2F730E2939FC00111247D
:102AB000C82BD92BDA684DCFD82FCC27C46FD06A5A
:102AC00048CFDC2FCC27C06FD06A43CF8C2F8F70BC
:102AD0000E940F1634E0D695C7953A95E1F7CF706E
:102AE0009C2FEC01D06935CF0E944E140C946A14CF
:102AF00082389105B1F1B0F48133910509F475C0C4
:102B000048F48932910509F469C08A32910509F4C3
:102B100073C008958533910509F459C0893391052F
:102B200001F10895833E9105A9F138F4803E9105A5
:102B3000F9F0823E910549F10895863E9105A9F18B
:102B4000873E9105C9F1843E910519F52091C9028E
:102B500021FF1FC08091C80284FD14C087EE90E061
:102B600008952091C8022370A1F080EE90E00895AE
:102B70002091C80220FD47C03091C90230FF09C032
:102B800024FF44C090E080E004C02091C80222FDF0
:102B9000F7CF08952091C80222FD3BC03091C902B1
:102BA00030FDE3CF24FFF5CFEDCF2091C80223FF06
:102BB000F0CF24FDE7CFD2CF2091C80223FD2CC057
:102BC0003091C90231FFEECF84EE90E0089520915C
:102BD000C80225FFDECF89E290E008952091C80267
:102BE00025FFD7CF85E390E008952091C80226FF06
:102BF000D0CF8AE290E008952091C80226FFC9CF85
:102C000081E390E0089589E390E0089583EE90E0F9
:102C1000089582EE90E0089586EE90E008959091F8
:102C2000C80292FF06C0282F28712830F9F4877F48
:102C3000846093FF06C0282F28712831F1F4877E25
:102C400084612091C90220FF06C0382F38713830C6
:102C5000D9F4877F816021FF06C0282F2871283191
:102C6000D1F4877E816194FD877E0895282F247199
:102C70002430F9F68B7F8860DCCF282F2471243133
:102C800001F78B7E8861DDCF382F3171313019F734
:102C90008E7F8860E0CF282F2171213121F78E7E31
:102CA0008861E1CF80E0089508950E949A12811111
:102CB00002C00E943F130E94A512809355020E94F9
:102CC000AD129093C9028093C8020E9454160E94CC
:102CD000A912682F70E090E080E00E948A0C609159
:102CE000DF017091E0018091E1019091E2010C948B
:102CF000C40C08950C94791608950C947C16E82F52
:102D0000F0E0E253FD4F80810895089580EA8A95AE
:102D1000F1F7089500C008950C948616F894E82FF2
:102D2000E295EF70F0E031A1282F2F7081E090E064
:102D300001C0880F2A95EAF7982F9095932391A3C5
:102D400092A1892B82A37894089580EF0E948E1619
:102D500085EF0E948E1684EF0E948E1686EF0E94E9
:102D60008E1687EF0E948E1681EF0E948E1686E9DE
:102D70000E948E1687E90C948E16CF92DF92EF9206
:102D8000FF920F931F93CF93DF937C01162F042F95
:102D9000C62FD0E0CE0183579E4F6C01EC012881F5
:102DA0002F3F09F44FC0F894E22FE295EF70F0E066
:102DB00031A12F7081E090E001C0880F2A95EAF7D9
:102DC000932F982B91A392A18095892382A3789425
:102DD0000E948A16A1E9B1E0F70145E951E0F12C22
:102DE000602F60959D9180819F3F49F1292F229509
:102DF0002F7030E0E90128A130E09F7002C03595C6
:102E000027959A95E2F720FD1AC0802B8083FF2436
:102E1000F39431964A175B0729F7F60180818F3FBB
:102E200011F00E948E166F2D812FDF91CF911F918F
:102E30000F91FF90EF90DF90CF900C948C1686232B
:102E40008083E7CFDF91CF911F910F91FF90EF909B
:102E5000DF90CF9008950E94A51684E0EEECF2E09A
:102E6000DF01982F1D929A95E9F7EAECF2E0DF0175
:102E70001D928A95E9F784E00E9487170C947107E8
:102E80000F931F93CF93DF9300D000D0CDB7DEB761
:102E900019821A821B821C8210E001E0402F612FF0
:102EA000CE0101960E94BD161F5F000F1430B1F7CE
:102EB00044E050E0BE016F5F7F4F8AEC92E00E94D9
:102EC0002F3011E0009709F410E0892B61F089811F
:102ED0009A81AB81BC818093CA029093CB02A0936C
:102EE000CC02B093CD02212F44E06EEC72E08AEC6C
:102EF00092E00E9488170E947907812F0F900F900F
:102F00000F900F90DF91CF911F910F910895089529
:102F1000FF920F931F93CF93DF93F82E092F162F55
:102F2000D72FC42F222349F081E0809358020E94BA
:102F3000612890935702809356028091580288230B
:102F4000A1F080915602909157020E94792805972E
:102F500060F0EF2DF02FA12FBD2FCE0FDF2FD11D51
:102F6000EC17FD0741F410925802DF91CF911F91A9
:102F70000F91FF90089581918D93F2CF0E94522A74
:102F80000E948E130C945E2A0E94622A0E949B1358
:102F90000C947C2A0E94EB270E94392A0E947A1303
:102FA0000E94BE170E94C4170E948A13FBCFEF92A3
:102FB000FF920F931F93CF93DF93EB01E82FD11173
:102FC00010C0442321F0F0E0E153FC4FE4916E2F58
:102FD0007E2F8E2FDF91CF911F910F91FF90EF9059
:102FE00008950D2F10E0282F30E0442329F02153BD
:102FF0003C4FF901249130E0F6E0CF9FC00111244D
:10300000EFEFF0E0BF010E94982FAB018C2F90E012
:10301000880F991FA5E5A49FB001A59F700D1124ED
:10302000861B970B982F990F980FBF01601B710B90
:10303000629FD001639FB00D729FB00D11248B2F42
:103040009D9FB0011124672F7727EF01C61BD70B77
:10305000BE01629FE001639FD00D729FD00D1124CD
:103060007F01E91AF108E09EB001E19E700DF09E2B
:10307000700D1124672F7727E61BF70BE29F800165
:10308000E39F100DF29F100D1124E12F722F42309B
:10309000510599F048F44115510569F04130510549
:1030A00081F0EB2F8D2F07C04430510569F080F07F
:1030B00046305105B1F76E2F8DCFE22F7B2F812F38
:1030C000FACFE22F7D2FF7CFEB2F822F712FF3CF87
:1030D0007B2F822FED2FEFCF41E00C94D71708956F
:1030E0000C946C18CF93DF93762FE901682F842F0F
:1030F0000E947018798368838A83DF91CF91089545
:103100008091D202982F9E7F29F4817082608093F3
:10311000D20208958A34E8F381708864F8CF88E099
:1031200090E00C944430CF92DF92EF92FF926B01CB
:103130007C010E948018B701A60188E090E0FF9012
:10314000EF90DF90CF900C946230E2EDF2E083E1FB
:10315000808311828FEF8283838383E08483608105
:103160007181828193810C9493188091D20280FFA7
:1031700002C08695089580E008959091D60293301C
:1031800018F49F5F9093D602882351F06091D20289
:103190007091D3028091D4029091D5020C9493182F
:1031A000089581E00C94BD189091D602992319F0EE
:1031B00091509093D602882351F06091D202709181
:1031C000D3028091D4029091D5020C949318089563
:1031D00081E00C94D41870E00C94001F60910801F9
:1031E0008091D20280FF0AC08091070123E0829F74
:1031F000C001112489529D4F0C94EB188091090154
:1032000090910A0123E0829FF0011124E952FD4FC1
:10321000891750F71182108212828F5F3396F8CF90
:103220009091D20290FF14C09091090120910A015F
:1032300033E0939FF0011124E952FD4F921710F0F3
:103240000C94EE188183608342839F5F3396F6CFA0
:103250000895CF93DF9300D00F92CDB7DEB7909152
:10326000D20290FF0AC09E012F5F3F4F0E9472184A
:103270004B8169818A810E9410190F900F900F90E5
:10328000DF91CF910895CF93DF93EC01EC81F0E0D3
:10329000E653FD4F4491E2EDF2E0628181810E94AC
:1032A00029198C818F5F8C83DF91CF910895CF9303
:1032B000DF93EC01E2EDF2E0438162818C810E94B8
:1032C00029198C818F5F8C83DF91CF9108950F93A3
:1032D0001F93CF93DF9300D00F92CDB7DEB78C0151
:1032E0008091590281110AC09E012F5F3F4F4FEF1D
:1032F0006FEF0E9472188A8180935902F8016481ED
:10330000613069F08091590240E0662361F040E04D
:10331000623011F44091590280E060E004C0609195
:10332000590240E080E00E941019F801848190E089
:10333000019663E070E00E94AC2F84830F900F90A1
:103340000F90DF91CF911F910F910895AF92BF928F
:10335000CF92DF92EF92FF920F931F93CF93DF9361
:1033600000D00F92CDB7DEB7182FF62E042FE22E25
:103370009091D20290FF29C0E92FE695AE2FB0E0E0
:10338000AB56BE4F8C91809365029E7F923059F56B
:103390009E012F5F3F4F812F0E9472184B816981E0
:1033A0008A810E9410191093D302F092D4020093E4
:1033B000D502EE2051F06091D2027091D30280913B
:1033C000D4029091D5020E9493180F900F900F9005
:1033D000DF91CF911F910F91FF90EF90DF90CF90F1
:1033E000BF90AF900895823019F40091D502DBCFE1
:1033F000863019F41091D302D6CF8930D9F38931B0
:1034000091F6E9518E2F8170D82EE695F0E0E653C3
:10341000FC4FA590B490C12CBB2460910B01C61643
:1034200018F00E94EE18BFCF2C2D30E0A29EC001F4
:10343000A39E900DB29E900D112470E00E94982FD3
:10344000812FD11013C0860F40910901420F532FD5
:10345000511D9A01220F331F240F351F29523D4F52
:10346000402F6F2D0E947218C394D7CF861BECCFCC
:10347000E2EDF2E09181282F4381628188E0890F9B
:103480000C94A61981E00C94381AE2EDF2E09181D7
:10349000282F4381628188EF890F0C94A61981E05F
:1034A0000C94451AE2EDF2E0628121E1620F08F42A
:1034B0006FEF282F438181810C94A61981E00C9431
:1034C000521AE2EDF2E0628121E1621B08F460E051
:1034D000282F438181810C94A61981E00C94611AF4
:1034E000E2EDF2E0438121E1420F08F44FEF282F93
:1034F000628181810C94A61981E00C94701AE2ED2E
:10350000F2E0438121E1421B08F440E0282F628170
:1035100081810C94A61981E00C947F1A20E00C9410
:10352000A619EF92FF921F93CF93DF93EC0110E067
:10353000EE24EA94F12C60910B01161770F00E94B2
:10354000EE189A818C8190FF27C08F5F8C83DF916A
:10355000CF911F91FF90EF90089520910901422F84
:10356000410F5527551FCA019A01220F331F280FFB
:10357000391F29523D4F70E0C7010E94AC2F962F92
:103580008C814091D5026091D402199F800D112445
:103590000E9472181F5FCFCF8150D8CFAF92BF92D9
:1035A000CF92DF92EF92FF920F931F93CF93DF930F
:1035B000FC0182810FEF80FF01E010E046E0A42EC5
:1035C00080910B011817C8F00E94EE1880915B02E1
:1035D000013009F055C0811102C080910B0181506A
:1035E00080935B02DF91CF911F910F91FF90EF903D
:1035F000DF90CF90BF90AF900895C0910901C12E88
:10360000D12CCC0DDD2DD11DCE01880F991FC80FF7
:10361000D91FC952DD4F198218821A8234E0E32E75
:10362000F12CB12C80915B028B0D87301CF16A2D3F
:103630000E948A2F892F082E000C990BC816D906D4
:1036400091F48091D5028E9DA0018F9D500D112483
:1036500055954795559547959E016091D402809167
:10366000D3020E947218B00EF1E0EF1AF108D1F601
:103670001F5FA6CF87FFDFCF90910B01890FDBCFB4
:1036800090E0019660910B0170E00E94AC2FA8CFF2
:103690000F931F93CF93DF938091090190910A01BB
:1036A00023E0829FF0011124E952FD4F891740F178
:1036B000C0E0D3E060910B01C61740F10E94EE1804
:1036C0002091050180915A02820F80935A029091B5
:1036D0000601920F90930601191654F4082E000C5F
:1036E000990B40910B014150550B841795071CF025
:1036F000219520930501DF91CF911F910F9108959E
:103700001182108212828F5F3396D0CF0C2F10E07F
:1037100070E0C8010E94AC2F20910901820F482F50
:1037200050E020915A02022E000C330B02171307AF
:10373000BCF020910601022E000C330B201731073C
:103740007CF08D9F9001112429523D4F4091D5026C
:103750006091D4028091D3020E947218CF5FAACFE9
:10376000FA01EE0FFF1FE40FF51FE952FD4F118222
:1037700010821282F3CF8F929F92AF92BF92CF921C
:10378000DF92EF92FF920F931F93CF93DF93EC01A1
:103790004C81042F10E09801D8010E94F02F9B016A
:1037A000AC010E9406304B015C01E0E2F0E0E01B5E
:1037B000F10BA5E5B0E0AC019B010E9406306B0166
:1037C0007C019F01DF010E94E82F9B01AC010E9458
:1037D00011309B01AC01280D391D4A1D5B1DC7012D
:1037E000B6010E94C02FF22E822F90E039E23F15E1
:1037F00060F143E0249F9001112435952795122F05
:10380000109500E085E5E82EEF1880910B01081770
:1038100058F10E94EE189C8181E0992319F09032B2
:1038200019F48FEF8093040180910401890F8C8338
:10383000DF91CF911F910F91FF90EF90DF90CF908C
:10384000BF90AF909F908F90089525E530E0B9012B
:10385000681B790B9B01220F331F260F371F37FF81
:10386000CCCF2F5F3F4FC9CF8E2D01FD8F2D2091E3
:103870000901622F600F7727771F9B01220F331FEB
:10388000260F371F29523D4F412F6091D4020E94CD
:1038900072180F5FBACF0F931F93CF93DF93EC0192
:1038A00010E000E090910B019017110609F06CF404
:1038B0000E94EE188C8190E00196817099278C838C
:1038C000DF91CF911F910F91089520910901A801D7
:1038D000420F511D9A01220F331F240F351F295209
:1038E0003D4F4C816091D4028091D3029695901700
:1038F000110651F04CF0442349F04091D5020E944A
:1039000072180F5F1F4FCECF4423B9F340E0F7CFBB
:10391000E2EDF2E080818E7F80836081718182811F
:1039200093810E949318109266022FEF80E792E035
:10393000215080409040E1F700C000000C94EE1848
:10394000E2EDF2E080818E7F8083109266022FEF9D
:1039500080E792E0215080409040E1F700C00000F5
:103960000C94EE18109266028091630281110AC0D5
:1039700081E0809363028091D20281708093620221
:103980000C94A01C08956091D202669570E04BE003
:1039900050E08CE091E00E942230892B19F481E004
:1039A000809366020E94612890935D0280935C027E
:1039B00008959091D20290FF35C09170811128C076
:1039C00092609093D202662351F06091D20270917E
:1039D000D3028091D4029091D5020E9493186091F5
:1039E000D202669570E04BE050E08CE091E00E94DE
:1039F0002230892BA1F01092660281E080935F0251
:103A00004091D5026091D4028091D3020C948E1A19
:103A1000853210F09864D5CF880F982BD2CF0E94B2
:103A2000C31CEBCF0895682F9091D202969581E048
:103A3000890F853208F081E00C94D91C81E00C9448
:103A4000131D682F9091D20296958FEF890F09F47C
:103A500084E20C94D91C81E00C94211D61E00C944B
:103A6000D91CE2EDF2E080818160808386950C9420
:103A70002E1D8091D20280FD0C94881C0C94311D67
:103A800060E00C94D91C8091640281112EC00E94C8
:103A90009A12811104C00E943F130E94A5180E942F
:103AA0008F186093D2027093D3028093D4029093C4
:103AB000D5026E7F61F40E94A5180E948F18609352
:103AC000D2027093D3028093D4029093D5020E94C5
:103AD0008018109266028091D20280FF03C0869502
:103AE0000E94401D81E0809364020895E2EDF2E0BF
:103AF00080818160808386950C94401D10926302C2
:103B00008091620281110E94761D0C94C31C0F9358
:103B10001F93CF93DF9380916602882309F486C0B8
:103B200080916502E091D202E695E81BE0935E0287
:103B3000823091F5F0E0EA53FD4FE491CE2FD0E0D2
:103B400003E419E180915F02882361F010925F0223
:103B50000E94612890935D0280935C021092610242
:103B6000109260020E946128E0915C02F0915D0277
:103B70008E1B9F0B8F3F9F4708F058C0EC0FFD1F17
:103B8000F0935D02E0935C028CE592E0F801DF9136
:103B9000CF911F910F910994863049F4F0E0ED53D5
:103BA000FD4FE491CE2FD0E007E519E1CBCF89306E
:103BB00051F4E695F0E0E054FD4FE491CE2FD0E0D3
:103BC00001E91AE1BFCF8F3051F4E695F0E0E354FC
:103BD000FD4FE491CE2FD0E00EEC1AE1B3CF85314A
:103BE00049F4F0E0E654FD4FE491CE2FD0E008E434
:103BF0001BE1A8CFC8E2D0E00BEB1BE1883109F450
:103C0000A1CF833239F4E8EBF2E0C591D49107E615
:103C100019E198CFC4EFD1E00BE41CE1843209F440
:103C200091CFC0EDD7E00FE618E18CCFDF91CF91B7
:103C30001F910F910895FA01811101C0FB010994B0
:103C4000CF93DF93C82FD62F0E94B5188C1740F062
:103C50000E94B5188D1720F4DF91CF910C941E1D92
:103C60008C2FDF91CF910C942E1D1F93CF93DF9358
:103C7000EC01FB011281112309F4C0C00E94B611AE
:103C80008272CD3CFCE5DF0709F49CC008F044C01B
:103C9000C73CECE5DE0709F481C0F0F4C43C9CE5C8
:103CA000D90709F471C048F4C33CDC4509F469C084
:103CB000812FDF91CF911F910895C53C9CE5D907D5
:103CC00009F467C04FE45AE162E47AE1C63CDC459E
:103CD00079F70E941B1E53C0CA3CFCE5DF0709F4BC
:103CE00067C068F4C83CECE5DE0709F45CC04EE54B
:103CF0005AE16DE67AE1C93CDC4559F3D9CFCB3CBA
:103D00009CE5D90709F459C048EE58E161ED78E126
:103D1000CC3CDC45F1F2CCCFC23DFCE5DF0709F439
:103D200062C098F4CF3C9CE5D90709F454C008F46C
:103D30004EC0C03DFCE5DF0709F452C0C13DDC4583
:103D400009F0B6CF6EE089E048C0C53D9CE5D907D3
:103D500009F44FC058F4C33DFCE5DF0709F446C041
:103D6000C43DDC4509F0A4CF88E132C0C63D9CE5E6
:103D7000D90709F441C0CE35DD4509F099CF10E0EF
:103D800097CF0E94391DFBCF4BE25DE16EE17DE1F3
:103D9000A0CF4EE15DE16BE27DE19BCF42E45AE1D1
:103DA0006FE47AE196CF4DE65AE16EE57AE191CF84
:103DB0004BE85AE16CE77AE18CCF4CE75AE16BE8CB
:103DC0007AE187CF41ED58E168EE78E182CF81E07A
:103DD0000E942E1DD4CF65E082E00E94201ECFCF2E
:103DE00068E086E0FACF64E18FE0F7CF67E185E134
:103DF000F4CF62E289E1F1CF83E2EACF11E058CF5C
:103E0000279A45B14F7755B15068EFB7F8949B01A9
:103E1000220F331F260F371F280F391F2817390786
:103E200041F4EFBF8FE594E00197F1F700C0000087
:103E30000895DC016D91CD0178E055B9000000C016
:103E400067FF45B9660F000000C000C000C045B95B
:103E500000C07A9591F7E2CFCF92DF92EF92FF9276
:103E60000F931F93CF93DF936C017B0164E670E0A7
:103E700088E70E94B525EC0197FD12C010E000E034
:103E8000F601E00FF11F849164E670E00E942F2696
:103E9000EC01892B29F40F5F1F4F0E151F0581F7C9
:103EA0000E94B226CE01DF91CF911F910F91FF901A
:103EB000EF90DF90CF9008950895E9EEF2E080E072
:103EC00092E0DF019C011D9221503040E1F7F09318
:103ED000EE04E093ED048FEF9FEF909393028093B5
:103EE000920208950E945C1F0E94220680938E0217
:103EF00080FD0FC080E880938D020E94AF256DE0A9
:103F000070E086EE94E00E942C1F892B21F080E067
:103F1000089580E2F0CF80918E0263E070E081FD31
:103F200026C083EE94E00E942C1F892B81F76DE060
:103F300070E083ED94E00E942C1F892B41F70E94D2
:103F40006D28605A75418F4F9F4F6093E9047093BD
:103F5000EA048093EB049093EC040E945D1F81E0DF
:103F6000809391028093900210928F02089580EEC8
:103F700094E0D9CF20918D0236E0839FC0011124B7
:103F8000629F800D911D1124811522E0920714F08B
:103F900090E080E087519D4F9093EE048093ED0474
:103FA00008952091ED043091EE04235E324040915B
:103FB0008D02642F70E0C9010E94982F481B463083
:103FC00010F4240F311D211582E0380710F030E085
:103FD00020E027513D4F3093EE042093ED040895E7
:103FE0001F93CF93DF93162F8A3031F481E0DF9156
:103FF000CF911F910C946A208D3011F480E0F7CF9F
:10400000C091ED04D091EE0496E0FE01A7E6B2E087
:1040100001900D929A95E1F7803EC8F086E0FE018E
:1040200011928A95E9F711111EC0C091ED04D0914B
:10403000EE0446E050E0BE0187E692E00E942F3099
:10404000892BF9F4DF91CF911F910C94D11FF6E0E9
:104050008F9FB00111246D507B4F46E050E0CE01A0
:104060000E941930E0CFE091ED04F091EE049F0141
:104070002A5F3F4F2E173F07C1F2808180958193C1
:10408000F9CFC95ED240CE0125E0969587952A9555
:10409000E1F721E030E0A90102C0440F551F8A95E5
:1040A000E2F7CA014091920250919302842B952B22
:1040B000259645E0D695C7954A95E1F702C0220FAF
:1040C000331FCA95E2F7822B932B90939302809330
:1040D0009202B8CFCF93382FE091ED04F091EE0427
:1040E000E95EF24020918D02622F70E0CF010E94C4
:1040F000982F281B822F332369F066E00E947E2FC1
:10410000C82FC15010F4CF91089560E080E20E9462
:10411000F01FF7CF9F01280F311D2115324018F0F5
:1041200080E0F0E0E0E08E0F9F2F911D87519D4FC2
:104130009093EE048093ED04E6CF1F93CF93DF932B
:10414000EC01162FFE018491811104C0DF91CF9103
:104150001F910895612F0E94F01F2196F3CFCF93F6
:10416000DF932091ED043091EE04295E3240A901E5
:10417000460F571F4130524020F060E072E0621B52
:10418000730B4091920250919302FC01C901620F9E
:10419000731FC1E0D0E08617970738F05093930261
:1041A00040939202DF91CF9108952491DC01A751B1
:1041B000BD4F3C91321781F02C939C01A5E03695C0
:1041C0002795AA95E1F7DE0102C0AA0FBB1F2A9529
:1041D000E2F79D014A2B532B01963196DCCF80915B
:1041E0009102811103C08091900208950E946D2870
:1041F000605A75418F4F9F4F6093E9047093EA04B2
:104200008093EB049093EC04809190028111EBCFAA
:1042100062E070E081ED94E00E942C1F892B19F779
:1042200081E080939002DFCF2F923F925F926F9256
:104230007F928F929F92AF92BF92CF92DF92EF9236
:10424000FF920F931F93CF93DF9380919102882366
:1042500069F020919202309193022115310531F0DD
:1042600080918F0261E070E0882399F0DF91CF9117
:104270001F910F91FF90EF90DF90CF90BF90AF9084
:104280009F908F907F906F905F903F902F900895B8
:104290008F5F082F10E01B01082E02C0220C331C78
:1042A0000A94E2F7A90142215321452B89F3909109
:1042B0008E0290FD44C08295880F8076809319010C
:1042C0009801369527953695279520931C01815E98
:1042D00080931A0110921D0124E630E047E050E07F
:1042E00067E171E088E70E945E26892B09F0BECF66
:1042F000A80125E0440F551F2A95E1F780918E0211
:1043000080FD2BC047515D4F04E610E020E230E015
:1043100060E488E70E948526892B09F0A7CF0E94D8
:10432000EF20E101C095D095809192029091930287
:10433000C823D923D0939302C093920297CF880FBA
:10434000880F880F8093190110921C01895F809358
:104350001A0183E080931D01BFCFEDE6F2E080E219
:10436000DF011D928A95E9F7AEEBB1E00AEB11E0AF
:1043700082ECC82E81E0D82E97E0592E77247394D2
:104380008D91E80129918E01240F352F311D275180
:104390003D4FE82FF0E0E359FD4F90E080E0652CC1
:1043A000681A872C082E01C0880C0A94EAF7790154
:1043B000A12CE701B9907E01B820662D6A196770BB
:1043C000962E062E000C770BDB2D01C0DD0F9A9484
:1043D000EAF77195619571096770772701C0B69406
:1043E0006A95EAF7BD2A6081962E9B289082A39455
:1043F00068E0A612DECF019631968830910579F6F5
:10440000CA16DB0609F0BCCF04E610E020E230E07B
:104410004DE652E07DCF80919002909191029111F2
:1044200003C091E089270895882369F062E070E075
:104430008FEC94E00E942C1F892B19F08091900240
:1044400008951092900280919002EBCF0C94240674
:104450000F931F9380919102882319F160E080E00F
:104460000E94BA1F0E9426220E941421809190026D
:104470008823B9F00E946D280091E9041091EA04A4
:104480002091EB043091EC04601B710B820B930BB9
:104490006F3F7F4F8F4F9F4720F41F910F910C94D8
:1044A0000B221F910F910895CF93DF93EC0197FF9B
:1044B0000CC0FB018281882341F00E949222CE0130
:1044C0009F770E9409230E94E12281E0DF91CF9132
:1044D00008959091F004923069F48A3048F490E0A5
:1044E00009966AE070E00E94AC2F875A0C949109FB
:1044F0008650FCCF0C9462088CE090E00E943C3027
:1045000090E0B0E0A0E08093F0049093F104A093D9
:10451000F204B093F30408956091F0048CE090E00D
:104520000C9450300E94CC26869581708093F504BF
:104530000E94CC2681708093EF048091F00481303A
:1045400039F48091F504882319F089E30E949109D8
:104550000E94B6118093F4040E94C9118091F00466
:10456000813089F0882359F0823091F0843021F134
:104570008FE39CE90197F1F700C00000089582EEF7
:104580000E940C09F5CF88E193E00E941507F0CF57
:104590008091EF04811103C083E50E94910982EEAE
:1045A0000E940C098FE39CE90197F1F700C000001D
:1045B00087E50E949109DCCF86EE0E94910988E18F
:1045C000F8CF8091F004813071F0882341F082307F
:1045D000A9F08430E1F08091F4040C94C61182EECD
:1045E0000E945209F8CF8CE20E9491098091F50453
:1045F000882389F389E30E949109EDCF82EE0E941E
:1046000052098091EF048111E6CF83E5F4CF88E26F
:10461000F2CF0F931F93CF93DF938C01CCE0D0E0C8
:10462000C8010C2E02C0969587950A94E2F78F7008
:104630000E9469222497CC3F8FEFD80789F7DF913A
:10464000CF911F910F9108950F931F93CF93DF93F5
:10465000EC018B01FB018281882361F00E94B6117D
:10466000CE01825E9C458530910520F48093F00454
:104670000E948C22B801CE01DF91CF911F910F9142
:104680000C945422CF93DF93EC01FB0182818823A9
:1046900009F420C1C430FDE5DF07C8F5CB3F9CE538
:1046A000D90730F49E0122503C452431310598F55C
:1046B0000E94AD129093C9028093C802C031FCE5FC
:1046C000DF0709F4E0C008F061C0C8309CE5D907F5
:1046D00009F4CBC088F5C430FCE5DF0709F4B3C0AA
:1046E000E8F4C2309CE5D90709F4A7C08091C8025C
:1046F0008260C330DC4509F4A3C08091C802909168
:10470000C9020E94BB120E94310C80E004C0C23674
:10471000EDE5DE0769F2DF91CF9108958091C8023F
:104720008061C630FCE5DF0709F48AC008F48FC059
:104730008091C802806284C08091C8028D7FCC3095
:104740009CE5D90709F47CC070F48091C8028C60A4
:10475000CA30FCE5DF0709F473C008F48AC0809111
:10476000C8028E7F6DC08091C802877FCE309CE5E5
:10477000D90709F465C08091C8028B7FCF30DC4532
:1047800008F45EC08091C8028F7E5AC0CD3FFCE520
:10479000DF0709F474C040F5C4319CE5D90709F47A
:1047A0008AC058F4C231FCE5DF0709F474C008F48C
:1047B0006EC08091C802837F43C0CB3F9CE5D90780
:1047C00009F449C008F04DC0C531DC4509F095CF6A
:1047D0008091C80282FB992790F921E0922790FBF3
:1047E00082F990FB83F92CC0C1308DE5D80709F41C
:1047F00058C088F48091C9028360CF3FECE5DE07A2
:1048000069F18091C9028D7FC115DD4538F1809134
:10481000C9028C7F23C0C3308DE5D80709F458C086
:1048200008F452C0C236DD4509F067CF9091C80246
:10483000892F8F7E94FF806103C08091C8028160C0
:104840008093C8025ACF8091C8028460F9CF8091CA
:10485000C8028860F5CF8091C90281608093C90247
:104860004CCF8091C9028260F9CF8091C8028064E8
:10487000E7CF0E94310C8091C8028068E1CF80911F
:10488000C9028E7FEBCF8091C8028F7DD9CF8091F6
:10489000C8028F7BD5CF0E94310C8091C8028F77E0
:1048A000CFCF8091C902982F909591708E7F892BE0
:1048B00090FB81F9D3CF0E94310C9091C802892FCF
:1048C00097FB87F98058BCCF81E00E94411315CF38
:1048D00080E0FBCF81E01FCF0C94FA0526982E9A3A
:1048E00025982D9A83B186FB882780F91D9905C0EC
:1048F00090E0892B80939602089592E0FACFE091A0
:104900009602EE0FEE0FE093960243B146FB882726
:1049100080F943B145FB222720F945FF02C022E080
:1049200030E0822BE82BE0939602EF70F0E0EE533C
:10493000FE4F808190919502890F8093950220E02F
:10494000843054F0809194028F5F8093940260E0F1
:1049500080E00E946C2421E0809195028D3F54F408
:104960008091940281508093940261E080E00E94E3
:104970006C2421E080919502082E000C990B64E0D4
:1049800070E00E94AC2F80939502822F0895CF9300
:10499000DF93EB0186319C4511F50E94B6119A8197
:1049A000992399F08A7A91E009F490E09093970224
:1049B000811109C089E20E9491110E94091280E0D0
:1049C000DF91CF91089585E3F6CF80919702811111
:1049D00004C089E20E949811F0CF85E3FBCF81E00B
:1049E000EFCF0F931F93CF93DF93C42FD22FFC01F0
:1049F00082818823C9F040939A020E946128909393
:104A000099028093980280E28C0F883008F050C0A1
:104A1000C77081E001C0880FCA95EAF7DF91CF9196
:104A20001F910F910C94990910919A02141335C09B
:104A300080919802909199020E947928883C910572
:104A400060F5C0E2CD0F1D17B9F080E2810F88300C
:104A500040F4177081E001C0880F1A95EAF70E94B0
:104A6000A009C83048F481E09D2F977001C0880FDD
:104A70009A95EAF70E949909802F0E949109C830FF
:104A8000B8F4D77081E001C0880FDA95EAF7DF91BA
:104A9000CF911F910F910C94A00980E28C0F883068
:104AA00038F4C77081E001C0880FCA95EAF7EFCFEC
:104AB000DF91CF911F910F9108950F939C01CB012E
:104AC000243F4CE5340759F1A8F4293DFCE53F07A4
:104AD00001F12A3D4CE53407D1F1283D3C4591F4E4
:104AE00006E221EE41EE68ED7CE50E94F12480E0D3
:104AF0000F910895263FFCE53F07E9F0B0F0273F0E
:104B00003C45F9F0FC018281882339F110929A0228
:104B1000EFCF07E225EE45EE69ED7CE5E6CF06E254
:104B200021EE40EE64EF7CE5E0CF07E225EE44EEB7
:104B300065EF7CE5DACF06E221EE42EE66EF7CE53A
:104B4000D4CF07E225EE46EE67EF7CE5CECF08E254
:104B500021E045EE6AED7CE5C8CF81E0C9CF109237
:104B6000B9008CE08093B80008959F92AF92BF92F5
:104B7000CF92DF92EF92FF920F931F93CF93DF9329
:104B8000B82EEB010E9461286C01EE24E394F12C15
:104B9000C431D10560F025E0E22EF12CCF3FDC07D7
:104BA00031F0CE0164E170E00E94982F7B0184EA2D
:104BB000A82E94E8992E1092BC00A092BC000E94EE
:104BC00061288C018091BC0087FF0DC08091B900E5
:104BD000887F883039F18091B900887F803111F168
:104BE0000FEF1FEF09C00E946128801B910B8E15EB
:104BF0009F0540F30EEF1FEFCF3FDC07E1F2C60148
:104C00000E9479288C179D07B0F2C801DF91CF91DF
:104C10001F910F91FF90EF90DF90CF90BF90AF90DA
:104C20009F900895B092BB009092BC000E946128B2
:104C30008C018091BC0087FF0AC08091B900887FF9
:104C4000883111F0803461F610E000E0DECF0E9480
:104C50006128801B910B8E159F0558F3CBCF0F93C6
:104C60001F93CF93DF93EB018093BB0084E8809385
:104C7000BC000E9461288C018091BC0087FF11C09C
:104C80002091B900287F81E090E0283211F490E073
:104C900080E0919581959109DF91CF911F910F91BE
:104CA0000895CF3FDC0741F30E946128801B910BE0
:104CB0008C179D0708F38EEF9FEFEECFCF92DF9218
:104CC000EF92FF920F931F93CF93DF936B018A01B3
:104CD0007901B9010E94B525E6010C0D1D1DC01713
:104CE000D10761F424E92093BC00DF91CF911F919B
:104CF0000F91FF90EF90DF90CF90089597FDF2CF46
:104D0000B70189910E942F26EACFCF92DF92EF92CE
:104D1000FF920F931F93CF93DF93C62F6A01790100
:104D2000B8010E94B52597FD0CC0B8018C2F0E94D8
:104D30002F26E601EC0CFD1CCE15DF0511F097FFC8
:104D40000CC024E92093BC00DF91CF911F910F91FB
:104D5000FF90EF90DF90CF900895B80189910E9465
:104D60002F26EACF84E98093BC0008959093D30165
:104D70008093D20108959093A00280939F0208959A
:104D8000E0919F02F091A002309721F00190F08114
:104D9000E02D099480E008950E94C0260895E091D6
:104DA0009F02F091A002309799F020912A012223CE
:104DB00059F02091C80227FF07C0DC012C91119601
:104DC0002C93119726E02C930280F381E02D099417
:104DD000089520919D0230919E022817390771F0A5
:104DE00090939E0280939D02E0919F02F091A00219
:104DF000309721F00680F781E02D099408952091E5
:104E00009B0230919C022817390771F090939C0205
:104E100080939B02E0919F02F091A002309721F0D5
:104E20000084F185E02D09940895FC01329680916B
:104E30002A01882321F08091C8029EE187FF96E035
:104E400080E0915008F4089521912223D1F38F5FDF
:104E5000F8CF662301F120912A012223F1F020915D
:104E6000C80227FF1AC0462F4695469546954E31F3
:104E700090F4677021E030E002C0220F331F6A9582
:104E8000E2F7840F911DFC01828190E028233923F1
:104E900081E0232B69F480E00895FC0132960896A6
:104EA0002191261721F0E817F907D1F7F4CF81E017
:104EB00008959C01FC0132969FEF80E041914617D6
:104EC00051F09F3F19F4411101C0982F8F5F863038
:104ED000A9F79F3F09F40895290F311D97FD3A95D1
:104EE000F90162830895FC013296089621912613F8
:104EF00003C0DF0111971C92E817F907B9F708956D
:104F0000E62FE695E695E695EE3168F4E80FF92F81
:104F1000F11D677021E030E001C0220F6A95EAF7C9
:104F20008281822B82830895E62FE695E695E695A9
:104F3000EE3170F4E80FF92FF11D677021E030E0D9
:104F400001C0220F6A95EAF72095828128232283E7
:104F5000089520912A01222329F02091C80227FDDB
:104F60000C9480270C94592720912A01222329F0A0
:104F70002091C80227FD0C9494270C947327FC0100
:104F8000329680912A01882351F08091C80287FFD0
:104F900006C08EE1DF011D928A95E9F7089586E04B
:104FA000F9CF08950C94D127811105C081E0809339
:104FB000A1020C94D22782E0FACF83E08093A10271
:104FC0000C94D2270C94D42781E08093A1020C94F6
:104FD000D2270C94E42708958091FE04843031F1A7
:104FE0000E947B071092A20288E190E020E40FB6B5
:104FF000F894A895809360000FBE2093600083B75B
:10500000817F846083BF83B7816083BF78948895F4
:1050100083B78E7F83BF0FB6F894A8958091600008
:10502000886180936000109260000FBE089508951B
:105030000895CF930E9417280E9440170E941828B5
:10504000C0E08C2F0E947F16811105C0CF5FC43055
:10505000C1F7CF91089581E0FCCF0E94310C0C94F0
:10506000F4071F921FB61F9211248F939F93AF9343
:10507000BF938091A202811113C08091F604909198
:10508000F704A091F804B091F9044196A11DB11D57
:105090008093F6049093F704A093F804B093F90476
:1050A000BF91AF919F918F911F901FBE1F90189538
:1050B00082E084BD93E095BD9AEF97BD80936E002A
:1050C00008952FB7F8948091F6049091F704A09179
:1050D000F804B091F9042FBF08952FB7F8946091A8
:1050E000F6047091F7048091F8049091F9042FBFB1
:1050F00008959C014FB7F8948091F6049091F704BD
:10510000A091F804B091F9044FBF821B930B08954E
:1051100078941F921FB61F9211248F939F93AF9381
:10512000BF938091F6049091F704A091F804B09198
:10513000F9040196A11DB11D8093F6049093F70424
:10514000A093F804B093F904BF91AF919F918F9110
:105150001F901FBE1F90189581E08093E00080E2B1
:105160008093D8001092C9008FE19EE40197F1F777
:1051700000C0000087E090EBDC018093070590936E
:105180000805A0930905B0930A0588E19CE00FB6D5
:10519000F894A895809360000FBE90936000FFCFB5
:1051A0008091C60208950895CF93DF93EC0180911A
:1051B0002A018823B1F18091C80287FF32C060E2E2
:1051C00082E08093E9008FEF9091E800815095FD97
:1051D00006C095ED9A95F1F700008111F5CF809109
:1051E000E80085FF1BC080912A0170E050E040E09C
:1051F000811104C050E040E068E070E0CE010E9400
:10520000ED2A8091E8008E778093E80080E2FE012D
:10521000A6EAB2E001900D928A95E1F7DF91CF9175
:10522000089568E081E0CDCF8093A3027093A5023A
:105230006093A4028091FE04843001F582E08093A3
:10524000E9008FEF9091E800815095FD06C095ED43
:105250009A95F1F700008111F5CF8091E80085FF64
:105260000DC050E040E063E070E083EA92E00E940D
:10527000ED2A8091E8008E778093E8000895BC01C4
:1052800084E00C941429BC0183E00C941429089543
:105290008091FD04811109C00E947D2C0E94DA2CAE
:1052A0008091E20084608093E20008951092FD04F2
:1052B00008950C94E4276091FA0481E0611101C023
:1052C00080E00C94DD279091FE0481E0943009F099
:1052D00080E06091FA040C94E22742E061EC81E006
:1052E0000E94F92B42E261EC82E00E94F92B90913E
:1052F000FE0481E0943009F080E06091FA040C949F
:10530000D42780910005833009F460C030F48130E7
:10531000C9F1823009F49CC008958A3009F488C02C
:105320008B3009F46EC0893009F04FC08091FF04C2
:10533000813209F04AC080910305909104050297DB
:1053400008F043C08091E800877F8093E800809157
:10535000E80082FF36C09091F3008091F20002973E
:1053600031F48091F100813011F0863021F4809188
:10537000F1008093C6028091E8008B778093E8006B
:105380000C942D2C8091FF04813AF9F48091E8006F
:10539000877F8093E8008091030590910405892B15
:1053A00061F460E286EA92E070E00E943C2B80911A
:1053B000E8008B778093E800089560E090E080E05B
:1053C000F3CF8091FE048111C2CF08958091FF0434
:1053D000813AD9F78091030590910405892BA9F7AB
:1053E0008091E800877F8093E8008091E80080FF4B
:1053F000FCCF80912A018093F1008091E8008E77A4
:10540000BDCF8091FF04813201F780910305909117
:105410000405892BD1F68091E800877F8093E8000E
:105420000E942D2C8091010580932A010C94310C4F
:105430008091FF04813249F68091E800877F809354
:10544000E8000E942D2C809102058093C7020895E8
:105450008091FF04813A09F0B8CF8091E800877FFE
:105460008093E8008091E80080FFFCCF8091C70224
:10547000C2CF84B7877F84BF0FB6F894A895809178
:105480006000886180936000109260000FBE80E829
:1054900090E00FB6F89480936100909361000FBE86
:1054A0000C94E9270E947D2C0E94DA2CE2EEF0E0B9
:1054B00080818460808378940C94632F8EE191E0E6
:1054C0000C94BB268091FE048530A9F48091FE04E3
:1054D000853011F00C942D280E94EC278091FC045B
:1054E0008823A1F30E941928882381F30E94D72AD8
:1054F0000E94310CEBCF089508950C947F2A292F38
:1055000033272330310519F168F42130310509F4CE
:1055100044C02230310509F445C090E080E030E01D
:1055200020E025C02132310549F122323105A9F7A9
:1055300080E490E021E23BE061157105C1F08DE669
:1055400090E024EB3AE06130710589F0E6CF9927CD
:105550008130910581F0009729F00297F1F6E3E39D
:10556000FAE002C0E3E6FAE0849190E09F01FA01DC
:10557000318320830895E3E4FAE0F6CF89E090E0F8
:1055800029E73AE06115710591F389E090E022E99D
:105590003AE06130710559F3C0CF82E190E022EA30
:1055A0003AE0E5CF8BE390E027E63AE0E0CF80E118
:1055B00089BD82E189BD09B400FEFDCF8091D8008C
:1055C0008F7D8093D8008091E00082608093E0001E
:1055D0008091E00081FDFCCF0895AF92BF92CF9201
:1055E000DF92FF920F931F93CF93DF936C01EB0138
:1055F0008A010E944C2CF82E811123C0011511053F
:1056000039F0F80180819181C81BD90BC80ED91ED1
:10561000B12CA12C2097A9F08091E80085FD22C033
:105620008091E8008E778093E80001151105A1F0C4
:10563000F80180819181A80EB91EB182A08285E017
:10564000F82E8F2DDF91CF911F910F91FF90DF905A
:10565000CF90BF90AF9008950E944C2C8823D1F238
:10566000F82EEFCFF60181916F018093F100219721
:10567000FFEFAF1ABF0ACECFFC01809105059091D4
:10568000060586179707A0F06115710529F490911A
:10569000E8009E779093E80090E06115710551F461
:1056A000911108C08091E80082FF34C080E0089525
:1056B000BC01F2CF8091FE048823C1F18530C1F195
:1056C0008091E80083FD30C08091E80082FDEACF40
:1056D0008091E80080FFE1CF8091F3002091F200FB
:1056E000382F6115710519F02830310558F091E017
:1056F0002830310509F090E02091E8002E772093C2
:10570000E800CBCF81918093F100615071092F5F48
:105710003F4FE7CF8091FE04882341F0853041F070
:105720008091E80083FFBECF81E0089582E0089574
:1057300083E00895FC018091050590910605861788
:105740009707A0F06115710529F48091E8008E7724
:105750008093E80090E06115710551F4911108C043
:105760008091E80082FF35C080E00895BC01F2CF4F
:105770008091FE048823C9F18530C9F18091E80049
:1057800083FD31C08091E80082FDEACF8091E8007E
:1057900080FFE1CF8091F3002091F200382F611556
:1057A000710519F02830310558F091E028303105A5
:1057B00009F090E08091E8008E778093E800CBCFED
:1057C00084918093F1003196615071092F5F3F4FB2
:1057D000E6CF8091FE04882341F0853041F080912E
:1057E000E80083FFBDCF81E0089582E0089583E063
:1057F0000895982F973028F08F708093E90081E00A
:1058000008959093E900242F762F50E0981731F0F7
:105810007091EC002091ED005091F00021FD02C04C
:105820009F5FE8CF3091EB003E7F3093EB003091EB
:10583000ED003D7F3093ED003091EB00316030930F
:10584000EB007093EC002093ED005093F00020915A
:10585000EE0027FDE5CF80E008958091FF0487FFEB
:1058600013C08091E80082FF06C08091E8008B772A
:105870008093E80004C08091FE048111F2CF089566
:105880008091FE048823D9F38091E80080FFF8CF4F
:105890008091E8008E77ECCF2091E4003091E50014
:1058A00095E6A9012091EC00822F817020FF06C0AF
:1058B0008091E80080FF06C080E008952091E80014
:1058C00022FD1AC08091FE04882389F0853089F07A
:1058D0008091EB0085FD0FC02091E4003091E50040
:1058E00042175307F9F29150E1F684E0089582E0FF
:1058F000089583E0089581E008950E94EB2C0E94B2
:10590000F32CE0EEF0E0808181608083E8EDF0E050
:1059100080818F77808319BCA7EDB0E08C918E7F5A
:105920008C9380818F7E80831092FD0408950F9365
:105930001F93CF93DF930E94EB2C0E94F32CC8EDB2
:10594000D0E088818F778883888180688883888188
:105950008F7D888319BC1092FE041092FA04109275
:10596000FC041092FB0400EE10E0F80180818B7FB4
:10597000808388818160888342E060E080E00E94CB
:10598000F92BE1EEF0E080818E7F8083E2EEF0E0A3
:10599000808181608083808188608083F80180813C
:1059A0008E7F8083888180618883DF91CF911F9172
:1059B0000F910895E8EDF0E080818F7E8083E7ED20
:1059C000F0E080818160808384E082BF81E0809309
:1059D000FD040C94972CE8EDF0E080818E7F8083AD
:1059E0001092E20008951092DA001092E1000895FA
:1059F0001F920F920FB60F9211242F933F934F9344
:105A00005F936F937F938F939F93AF93BF93EF9326
:105A1000FF938091E10082FF0BC08091E20082FF42
:105A200007C08091E1008B7F8093E1000E94622F8C
:105A30008091DA0080FF19C08091D80080FF15C0E6
:105A40008091DA008E7F8093DA008091D90080FF08
:105A500096C080E189BD82E189BD09B400FEFDCF19
:105A600081E08093FE040E9448298091E10080FF3C
:105A700019C08091E20080FF15C08091E2008E7F06
:105A80008093E2008091E20080618093E200809147
:105A9000D80080628093D80019BC85E08093FE0412
:105AA0000E945B298091E10084FF2BC08091E2007D
:105AB00084FF27C080E189BD82E189BD89B5982F27
:105AC000917080FFFBCF8091D8008F7D8093D800AC
:105AD0008091E1008F7E8093E1008091E2008F7ED3
