:100000000C94C9020C9410030C9410030C9410036C
:100010000C9410030C9410030C9410030C94100314
:100020000C9410030C9410030C94A62E0C947A2FAD
:100030000C94E1230C9410030C9410030C94100303
:100040000C9410030C9410030C9410030C941003E4
:100050000C9410030C9438240C9410030C9410038B
:100060000C9410030C9410030C9410030C941003C4
:100070000C9410030C9410030C9410030C941003B4
:100080000C9410030C9410030C9410030C941003A4
:100090000C9410030C9410030C9410030C94100394
:1000A0000C9410030C9410030C941003AC00A842A1
:1000B000AB00AD00AE00AF00B200B100B341C45C14
:1000C000C35CC55CCC5CCD5CCA5CC85CC95C01002F
:1000D0000100010001000100010001000100010018
:1000E000010000000000000000002A2B2800000092
:1000F00000000000000000000000000000290000D7
:1001000000002C1E3420212224342627252E362DB3
:100110003738271E1F202122232425263333362E4D
:1001200037381F0405060708090A0B0C0D0E0F10BF
:100130001112131415161718191A1B1C1D2F313004
:10014000232D350405060708090A0B0C0D0E0F10A8
:100150001112131415161718191A1B1C1D2F3130E4
:10016000354C00000000000000000000000000000E
:10017000000000000000000000000000000000007F
:100180000000000000007E0F00D4FFFFFFC700004A
:10019000007800047F3F1F643214643214783C1EE0
:1001A0001E140A052223252628292A2C2D2F303219
:1001B000333536383A3B3D3E4042434547494A4C49
:1001C0004E5051535557595A5C5E60626466686977
:1001D0006B6D6F71737577797B7D7F81838587897F
:1001E0008A8C8E90929496989A9C9E9FA1A3A5A784
:1001F000A8AAACAEAFB1B3B4B6B8B9BBBCBEBFC1B0
:10020000C2C3C5C6C7C9CACBCCCDCED0D1D2D2D33A
:10021000D4D5D6D7D7D8D9D9DADADBDBDBDCDCDC4E
:10022000DCDCDDDDDDDDDCDCDCDCDCDBDBDBDADA11
:10023000D9D9D8D7D7D6D5D4D3D2D2D1D0CECDCC88
:10024000CBCAC9C7C6C5C3C2C1BFBEBCBBB9B8B69D
:10025000B4B3B1AFAEACAAA8A7A5A3A19F9E9C9A28
:1002600098969492908E8C8A89878583817F7D7BF6
:1002700079777573716F6D6B6968666462605E5CD7
:100280005A5957555351504E4C4A4947454342409D
:100290003E3D3B3A3836353332302F2D2C2A292833
:1002A00026252322FFAA7F554000010101010101FB
:1002B000010101020202020202020202030303031D
:1002C00003030303040404040404040505050505ED
:1002D00006060606060707070707080808080909AB
:1002E00009090A0A0A0B0B0B0C0C0C0D0D0D0E0E56
:1002F0000E0F0F0F101011111112121313141415E9
:100300001516161717181819191A1A1B1B1C1D1D5C
:100310001E1E1F20202122222324242526262728B2
:1003200029292A2B2C2D2D2E2F30313232333435E2
:10033000363738393A3B3C3D3E3F404142434445E5
:10034000464748494A4C4D4E4F50515354555658C4
:10035000595A5B5D5E5F616264656668696B6C6D6E
:100360006F7072737577787A7B7D7E8082838587E4
:10037000888A8C8E8F91939596989A9C9EA0A2A322
:10038000A5A7A9ABADAFB1B3B5B7BABCBEC0C2C427
:10039000C6C9CBCDCFD1D4D6D8DBDDDFE2E4E7E9E7
:1003A000EBEEF0F3F5F8FAFDFF1C034E006F006F63
:1003B0000064006C006500200050006100640020B3
:1003C000007600320000001E035400680065002023
:1003D000004D006100640020004E006F006F00645B
:1003E000006C00650000000403090409029F00047A
:1003F0000100A0FA09040000010301010009211114
:100400000100012240000705810308000A090401D8
:1004100000010300000009211101000122B60007BC
:1004200005820320000A080B0202010100000904F2
:10043000020000010100000924010001090001037C
:100440000904030002010300000724010001410028
:10045000062402010100062402020200092403010D
:10046000030102010009240302040101010009053E
:100470000402400005000005250101010905830271
:1004800040000500000525010103120100020000E3
:100490000008EDFE0117010001020001050109023B
:1004A000A10185020901A10005091901290815000A
:1004B0002501950875018102050109300931158171
:1004C000257F95027508810609381581257F9501DC
:1004D00075088106050C0A38021581257F9501757E
:1004E000088106C0C005010980A101850319012A00
:1004F000B700150126B700950175108100C0050CE5
:100500000901A101850419012AA002150126A002F2
:10051000950175108100C005010906A10185050539
:100520000719E029E71500250195087501810205E5
:1005300007190029EF1500250195F07501810205C5
:100540000819012905950575019102950175039119
:1005500001C005010906A101050719E029E71500F9
:10056000250195087501810295017508810105072E
:10057000190029FF150026FF009506750881000562
:1005800008190129059505750191029501750391D9
:1005900001C011241FBECFEFDAE0DEBFCDBF04B62D
:1005A00003FE27C08091F6039091F703A091F80312
:1005B000B091F9038730904BA740B04BD1F4109223
:1005C000F6031092F7031092F8031092F90314BE89
:1005D00084B7877F84BF0FB6F894A8958091600098
:1005E000886180936000109260000FBEE0E0F8E345
:1005F000099511E0A0E0B1E0ECEAF4E602C0059054
:100600000D92A03EB107D9F723E0A0EEB1E001C002
:100610001D92A63FB207E1F70E941E140C941F32F0
:100620000C940000CF93C62F6091ED017091EE0104
:100630008091EF019091F0010E94DD04813039F04A
:10064000823079F089EAC11110C08AEA0EC0CC2349
:1006500029F00E945B1A81E0CF9108950E94681AE8
:10066000FACF8FE4C11101C080E50E941106F3CFDB
:100670009C013A9521153F4150F5FC01EE27F170A0
:10068000BC0166277270AC01442754709C0122277C
:10069000387094FF0EC080E1EF2B09F480E0672BE7
:1006A00009F08062452B09F08064232B89F0806873
:1006B000089581E0EF2B09F480E0672B09F0826058
:1006C000452B09F08460232B19F08860089580E0A1
:1006D0000895CF93DF93EC010E9438039E01205EC2
:1006E00031092830310510F0209739F40E9419069D
:1006F0008C2FDF91CF910C947D050E947C08F8CF60
:10070000CF93DF93EC010E94CB05CE010E9438030A
:100710009E01205E31092830310510F0CD2B21F4E7
:10072000DF91CF910C942006DF91CF910C94830838
:10073000CF93DF93EC010E946903CE01DF91CF914B
:100740000C94800381E0089581E008950C94A40343
:1007500008950C94A8031F93CF93DF9300D000D08B
:100760000F92CDB7DEB749835A836B833091E20194
:1007700089819A8131111DC06623B9F02223A9F025
:100780000E944C0A182F682F89819A810E94F709CC
:1007900069817A81812F0F900F900F900F900F90A9
:1007A000DF91CF911F910C94AB100E94240A182F57
:1007B000EFCF0E944C0A69817A81EDCFFC01262F90
:1007C000408151816281738184810C94AB0381E00B
:1007D0000895CF93DF93EC0160E00E94DE03BE0139
:1007E000DF91CF910C94A9030E94BB120E943105A6
:1007F0000E94AB1F0C94E0120C94E31208950E9427
:10080000A0080E94FE032FEF84E39CE0215080406B
:100810009040E1F700C000000C945C240F931F93FC
:10082000CF93DF938C0161E00E94DE03EC01B801FD
:100830000E94A603882309F441C0B801CE010E949A
:1008400036208823D9F1B801CE010E94C020882328
:10085000A9F1B801CE010E941221882379F1B801D3
:10086000CE010E943C22882349F1B801CE010E94AA
:10087000471E882319F1F8018281882361F0CB3566
:10088000FDE5DF0721F170F4C115ECE5DE07A1F00D
:10089000CF3DDC45C9F0C801DF91CF911F910F9189
:1008A0000C94A203CC358DE5D807A1F0CD35DD45FC
:1008B00091F70E94290EEFCF0E94FF0380E0DF91A5
:1008C000CF911F910F9108950E94A20FF7CF0E9420
:1008D000320EE1CF0E94350EDECFDF92EF92FF9213
:1008E0000F931F93CF93DF93E82FF0E0EE51FF4F6C
:1008F000D490282F26952695269530E0F901EE57BD
:10090000FE4F0491877010E0082E02C015950795E0
:100910000A94E2F701701127F901EE58FE4FE490B6
:10092000F12C082E02C0F594E7940A94E2F791E0C6
:10093000E922FF24F901EE59FE4FC491D0E002C034
:10094000D595C7958A95E2F7C170DD270115110588
:1009500019F081EE0E947D05E114F10419F086EE94
:100960000E947D058D2D0E941106EF2819F086EE5C
:100970000E94CB05012B19F081EE0E94CB05CD2BF7
:1009800051F08CE2DF91CF911F910F91FF90EF908A
:10099000DF900C941106DF91CF911F910F91FF9082
:1009A000EF90DF900895982F9F709A50963018F02E
:1009B000805D0C946D04895AFCCFCF92DF92EF9248
:1009C000FF926C01EE24FF2420E0C114D104E10465
:1009D000F10419F0C701B60120E1C72ED82EE92E87
:1009E000FF24C114D104E104F10419F0285FC70108
:1009F000B6016B017C0154E0F694E794D794C79458
:100A00005A95D1F7C114D104E104F10419F02C5F17
:100A1000C701B6016B017C0142E0F694E794D794DC
:100A2000C7944A95D1F7C114D104E104F10419F037
:100A30002E5FC701B6019695879577956795672BC9
:100A4000682B692B09F02F5F822FFF90EF90DF90CA
:100A5000CF90089508950C942A0581E008950C9490
:100A60002D050895CF93C82F0E942B058C2FCF9171
:100A70000C942F05CF93DF93CDB7DEB72B970FB62E
:100A8000F894DEBF0FBECDBF4F83588769877A8742
:100A90008B8761110E945B0E1E821D8285E0FE0124
:100AA0003796DE01119601900D928A95E1F78C81BF
:100AB0009D81892B89F449815A816B817C818D814B
:100AC0009E810E94580D2B960FB6F894DEBF0FBE84
:100AD000CDBFDF91CF91089589819A8189238F3F7E
:100AE00051F3CE0101960E94E7038111E4CFEBCFD1
:100AF000FC01808191810C948E0ACF93C82F8823AA
:100B000009F447C08CEF8C0F813AA0F46C2F8091D0
:100B10000001909101010E94E222882329F08C2F8C
:100B20000E94F90D0E948B0E8C2F0E94F20DCF9126
:100B30000C948B0E80E28C0F883048F4C77081E0F3
:100B400001C0880FCA95EAF70E943B0EF0CFEBE593
:100B5000EC0FE33040F4F0E0EE59FE4F808190E07E
:100B6000CF910C94A222E8E5EC0FE73150F4F0E0CD
:100B7000EE0FFF1FEC5CFE4F80819181CF910C94B2
:100B8000B822CD3E30F08C2F0E94E815CF910C9406
:100B9000BB16CF910895882361F19CEF980F913A8D
:100BA00020F40E94F90D0C948B0E90E2980F98306F
:100BB00050F4877091E001C0990F8A95EAF7892F68
:100BC0000E94410EF0CF9BE5980F933020F490E007
:100BD00080E00C94A22298E5980F973120F490E0E1
:100BE00080E00C94B8228D3E20F00E9442160C94B6
:100BF000BB1608951F93CF93DF93182FEB010E942C
:100C00007D05209731F4812FDF91CF911F910C94B6
:100C1000CB058FE99FE00197F1F700C00000219715
:100C2000F0CF70E060E0893311F460E570E00C947F
:100C3000FA05882321F00E943B0E0C948B0E089538
:100C4000882321F00E94410E0C948B0E0895BF92D0
:100C5000CF92DF92EF92FF920F931F93CF93DF9388
:100C60006C01D62FC72FFC011281058102950F70F0
:100C70000E94100EE82E8823A1F0E12E112389F0A6
:100C80008C2F807F803429F080E28D0FE12C88301A
:100C900040F082E00E94DC0E0E94100E91E0E82EEF
:100CA000E926BC2EB2949FE0B922EB2DF0E0EF5D77
:100CB000FD4C0C9476310C2F0F70C07F11F0029513
:100CC000007F1123A9F0002359F080E28D0F8830B6
:100CD00010F0D11109C0802F0E943B0E0E948B0E94
:100CE0008D2F0E947D0514C0802F0E944E0EF6CFDE
:100CF0008D2F0E94CB05002359F080E28D0F8830A4
:100D000010F0D1112CC0802F0E94410E0E948B0E3A
:100D10002B2D2850330B2430310520F40E946B22F8
:100D20000E943205EE2009F49EC10E940C0E80FD47
:100D30009AC1F60112820E94060E0E945B09C6014A
:100D40000E9454080E94060EDF91CF911F910F91CF
:100D5000FF90EF90DF90CF90BF900C947C09802F94
:100D60000E94540ED3CFFC2FFF70FF2EC07FC032E5
:100D700019F0F29480EFF822DD2369F0D13049F1C7
:100D8000112391F1002351F1F601858180FFA8CF55
:100D90008F70858323C0112381F0011106C00E944A
:100DA0006E0E8F290E941906B3CF0130C1F70E9441
:100DB0006E0E8F290E94740EABCF011106C00E94E7
:100DC000810E8F2D0E942006A3CF013009F4A0CF01
:100DD000F6CF112329F0063008F09ACF8F2DE2CFFD
:100DE000053008F095CFEDCF002359F3D93349F4FE
:100DF000FFEF27EE33E0F15020403040E1F700C034
:100E000000008D2F0E94CB0583CF8C2F8695869571
:100E1000837069F0813009F07BCF8D2F9C2F937008
:100E2000111102C090E080E00E94B82271CF8D2F96
:100E30009C2F9370111102C090E080E00E94A222CA
:100E400067CF8D2F112329F00E94E8150E94BB1651
:100E50005FCF0E944216FACF8C2F837009F041C0F9
:100E6000111156CF4D2F429546954770440F440FB0
:100E70000D2F0F7010E030E020E0042E04C0000FB2
:100E8000111F221F331F0A94D2F760E070E0CB01DC
:100E9000D4FF0FC06FE070E080E090E004C0660F08
:100EA000771F881F991F4A95D2F760957095809596
:100EB0009095C695C695C370602B712B822B932B92
:100EC000C23049F058F4C13019F00E940D0920CF0A
:100ED0000E94FB081DCF0E941F091ACF0E94F9082B
:100EE00017CF8695112311F08C2F8170882309F478
:100EF0000FCF4D2F429546954770440F440F0D2F4D
:100F00000F7010E030E020E0042E04C0000F111F2D
:100F1000221F331F0A94D2F760E070E0CB01D4FFA8
:100F20000FC06FE070E080E090E004C0660F771FB4
:100F3000881F991F4A95D2F7609570958095909576
:100F4000C695C695C370602B712B822B932BC23034
:100F500049F058F4C13019F00E94D209D9CE0E944C
:100F6000C009D6CE0E94E409D3CE0E943509D0CE66
:100F7000CF70112329F08C2F0E945B098D2F12CF87
:100F80008D2F0E9420068C2F0E947C09C1CED23F5B
:100F900089F160F4D03FC9F0D13F29F1112309F460
:100FA00042C001119DCE8C2F8F7121C0D33F39F1EA
:100FB000D43FA1F7112369F1CF718C2F0E945B09F7
:100FC00063E08C2F0E94C10EA3CE112341F00530A7
:100FD00008F09ECE8C2F8F710E949F0999CE06300B
:100FE00008F096CEF7CF8C2F8F71112369F20E94F3
:100FF0005B098ECE8C2F8F711123C9F3C5CF1123BE
:1010000029F08C2F8F710E94460982CE0E944109DF
:101010007FCE81E00E94DC0E023008F479CE82E0BF
:101020000E94DC0E75CE002359F0D93309F0E9CEC9
:101030008FEF97EEE3E081509040E040E1F7DFCEA4
:101040008C2F8F71A1CF4C2F4F706D2FC6010E9436
:10105000A7100E94BC0A5CCE4C2F4F706D2FC601AA
:101060000E94AA1055CEDF91CF911F910F91FF9052
:10107000EF90DF90CF90BF9008950F931F93CF9381
:10108000DF93EC01688179818A810E94980A8C0142
:101090000E94F6090E94F808B801CE01DF91CF91B5
:1010A0001F910F910C942706CF93DF93EC018B8156
:1010B0009C81892B29F08881998189238F3F59F45C
:1010C000DF91CF910895CE010E943D08CE01DF91BE
:1010D000CF910C94E903CE010E940E048111F3CF4D
:1010E0000E94100E882361F38A81882349F382E0ED
:1010F000DF91CF910C94DC0E882321F00E944E0EDC
:101100000C948B0E0895882321F00E94540E0C94A9
:101110008B0E089590E080E00E94A22290E080E093
:101120000E94B8220E945B0E0E946B0E0E948B0EE2
:101130000E94E2170C94BB160E94000E0C948A08C1
:101140000E944B0E0C949C08E92FE295EF70E25040
:10115000EE3070F4F0E0EF5CFD4C0C947631803FA3
:1011600019F020F4883E20F481E00895843FE1F3F3
:1011700080E00895883EC0F3813FD1F7F5CF93FB1F
:10118000882780F90895FC01808191810E948E0A50
:101190000C94A408CF93DF9300D000D00F92CDB76A
:1011A000DEB70F900F900F900F900F90DF91CF91BF
:1011B0000895CF93DF9300D000D000D0CDB7DEB735
:1011C00026960FB6F894DEBF0FBECDBFDF91CF914C
:1011D000089508950C94E9080E94EA086093F101CB
:1011E0007093F2018093F3019093F4010C948A08B8
:1011F00008950C94EC080F931F930091F101109146
:10120000F2012091F3013091F401602B712B822BBC
:10121000932B1F910F910C94EC080F931F93009147
:10122000F1011091F2012091F3013091F40160235A
:101230007123822393231F910F910C94EC080F9339
:101240001F930091F1011091F2012091F30130916F
:10125000F40160277127822793271F910F910C9427
:10126000EC080C94E9080C9431090E94330960934E
:10127000ED017093EE018093EF019093F0010C94D7
:101280008A0860E070E0CB010C9435090F931F933E
:1012900041E050E060E070E08A019B0104C0000F73
:1012A000111F221F331F8A95D2F7C901B8011F9160
:1012B0000F910C9435090F931F9341E050E060E0CB
:1012C00070E004C0440F551F661F771F8A95D2F740
:1012D0008091ED019091EE01A091EF01B091F001AC
:1012E0008A019B01082B192B2A2B3B2BC901B80122
:1012F0001F910F910C9435090F931F9341E050E01B
:1013000060E070E004C0440F551F661F771F8A9588
:10131000D2F7CB01BA0160957095809590950091B8
:10132000ED011091EE012091EF013091F001602369
:101330007123822393231F910F910C9435090F93EE
:101340001F9341E050E060E070E004C0440F551F7F
:10135000661F771F8A95D2F78091ED019091EE017B
:10136000A091EF01B091F0018A019B010827192794
:101370002A273B27C901B8011F910F910C94350909
:101380000F931F930091ED011091EE012091EF0159
:101390003091F001602B712B822B932B1F910F91B9
:1013A0000C9435090F931F930091ED011091EE01FC
:1013B0002091EF013091F001602371238223932368
:1013C0001F910F910C9435090F931F930091ED011C
:1013D0001091EE012091EF013091F001602771270B
:1013E000822793271F910F910C9435090895E92FB7
:1013F000EE0F9E0F890F982F977041E001C0440FA8
:101400009A95EAF786958695869595E0899FF001ED
:101410001124ED51FE4F30E020E070E05191DF01EA
:101420001197CB01022E02C0969587950A94E2F798
:10143000817081958527842385278C932F5F3F4F6B
:101440002530310559F70895E92FEE0F9E0F890FCA
:10145000982F977086958695869525E0829FF00156
:101460001124ED51FE4F50E040E080E0219130E04A
:10147000092E02C0369527950A94E2F7217033278A
:10148000042E01C0220F0A94EAF7822B4F5F5F4FB0
:101490004530510559F70895BF92CF92DF92EF92F0
:1014A000FF920F931F93CF93DF938C01C090ED01B8
:1014B000D090EE01E090EF01F090F0018091F10109
:1014C0009091F201A091F301B091F401C82AD92AB8
:1014D000EA2AFB2ACFE1D0E0BC2ED701C6010C2EB0
:1014E00004C0B695A795979587950A94D2F780FD85
:1014F0000EC0219788F7B12C8B2DDF91CF911F91D2
:101500000F91FF90EF90DF90CF90BF900895B801BA
:101510008C2F0E94DA11019761F3EECFCF93DF9306
:10152000EC010E944C0ABE01DF91CF910C94DA11BC
:101530001F93CF93DF93EB019091E201992331F058
:10154000CB01DF91CF911F910C948E0A882379F003
:10155000CB010E944C0A182F682FCE010E94F70978
:10156000BE01812FDF91CF911F910C94DA11CB0135
:101570000E94240A182FF4CFEF92FF920F931F932B
:10158000CF93DF938C01892B81F0F12CEE24E3942F
:10159000E8012196F8018491843770F4843008F0D2
:1015A0005FC08130B1F08230A1F1DF91CF911F9106
:1015B0000F91FF90EF900895853709F44CC008F41F
:1015C0003DC09CE7980F903780F78F770E94CB053E
:1015D00049C00E5F1F4FFE01849190E2980F983032
:1015E00060F48770FE2D01C0FF0F8A95EAF78F2FF8
:1015F0000E945E0E0E948B0E02C00E947D058F2D00
:10160000815030F2EFE9FFE03197F1F700C00000C0
:10161000F7CF0E5F1F4FFE01849190E2980F983034
:1016200050F48770FE2D01C0FF0F8A95EAF78F2FC7
:101630000E94640EDFCF0E94CB05E1CF0E5F1F4FEB
:10164000FE01C491C150D8F28FE99FE00197F1F7F4
:1016500000C00000F7CF0E5F1F4FFE01F490CFCF08
:101660000E947D058E01CBCF1F93CF93DF93C09156
:10167000F50116E08091F6018C1304C0DF91CF9143
:101680001F910895D0E01C9FF0011D9FF00D1124C3
:10169000E950FE4F4081518162817381848195813F
:1016A0000E94D9082196C770E5CF4091270250913A
:1016B00028026091290270912A0280912B02909158
:1016C0002C020C94D9081F93CF93DF9380912C02A6
:1016D000807FA9F480912902882389F08091F50107
:1016E000C091F6016091270270912802A0912A0210
:1016F000B0912B02D62FD72316E0C81304C0DF9178
:10170000CF911F91089590E0109711F0DF3F19F4E9
:1017100001968770F2CF189F9001199F300D112408
:10172000F901E950FE4F41814713F2CF4081461342
:10173000EFCF42814111ECCF438154814A1B5B0BB7
:10174000483C510528F780912C028F70806180936E
:101750002C02F901E450FE4F80818F7080618083FC
:1017600087E292E00E945408DF91CF911F910C9480
:10177000340BAF92BF92CF92DF92EF92FF920F9312
:101780001F93CF93DF93CDB7DEB761970FB6F89471
:10179000DEBF0FBECDBF8C0185E0F801DE011D96D6
:1017A00001900D928A95E1F7F801E28087E2C82E58
:1017B00082E0D82E60912A0270912B02611571058A
:1017C00009F45AC19091270220912802892F82237F
:1017D0008F3F09F451C140815181A380B480F090C2
:1017E0002902F501E61BF70BFF2009F4F6C08091F2
:1017F0002C02382F307FE83CF10508F0AFC03111E2
:1018000079C0FE2C251323C0941321C0E1101FC002
:101810008F70806180932C020E94550BC6010E943C
:10182000540880912C02F80185838F2D61960FB6A4
:10183000F894DEBF0FBECDBFDF91CF911F910F9106
:10184000FF90EF90DF90CF90BF90AF900895AB28BE
:1018500029F0842F85238F3F09F027C180E0F82FDE
:10186000F170DF2E80FF3CC08091F5012091F601E0
:1018700036E0821315C04D875E878D859E850E9458
:101880008E0A292F22952F702230F0F0243018F57F
:101890009F70F1F0F8019581907FD1F4D12C1EC09A
:1018A00090E0389FF001399FF00D1124E950FE4F70
:1018B0006181651306C06081641303C06281E61212
:1018C0000FC001968770D5CF9F7011F0882331F338
:1018D000805E883018F3C8010E945408FD2CA5CF03
:1018E000EE2009F4A2CF80912C02816080932C021B
:1018F000F12C9BCF251306C0941304C0F801EE20F1
:1019000009F487C0C8010E94C308882319F1EE209A
:1019100009F180912C02803270F0209127023091E1
:10192000280238872F831986BB86AA868C87CE012A
:1019300007960E94540886E0F801A7E2B2E0019001
:101940000D928A95E1F70E94630B0E94550BFF24CC
:10195000F3946BCFC8010E945408F9CF311113C022
:101960007A2DB98AA88A6E2D89890E94CA0887E2D1
:1019700092E00E94540886E0F60111928A95E9F7F8
:101980000E94550BB5CF25130FC094130DC0E11065
:101990000BC0F8018583C8010E94540886E0F60157
:1019A00011928A95E9F741CFC8010E94C3088823A4
:1019B00089F2EE2079F280912C02803208F4BBCFBC
:1019C00020912702309128023A8329831B82BD820D
:1019D000AC828E83CE010196ACCFE83CF10508F0D5
:1019E0003EC0FE2CEE2009F4B5CF25132AC0941377
:1019F00028C080912C0280FD1BC0982F907FC1F0E1
:101A0000F8018583903F31F0982F907F905F8F7021
:101A1000892B8583C8010E94540886E0F801A7E25B
:101A2000B2E001900D928A95E1F70E94550BFDCE30
:101A300086E0F801A7E2B2E001900D928A95E1F705
:101A4000F4CEC8010E94C308811175CF80912C0289
:101A5000816080932C02C8010E945408E6CE7A2D42
:101A6000B98AA88A6E2D89890E94CA0886E0F60183
:101A700011928A95E9F7D9CFEE2009F46BCFC8010E
:101A80000E94C308F82E882309F464CF86E0F80189
:101A9000A7E2B2E001900D928A95E1F787E292E029
:101AA0000E9478050E94630BC0CF81E08E25D7CEBF
:101AB0001F93CF93DF93CDB7DEB72C970FB6F89473
:101AC000DEBF0FBECDBF4F83588769877A878B876C
:101AD0009C87CE0107960E94B90B882369F08A85FE
:101AE0009B85892B39F04F815885842F85238F3F23
:101AF00009F071C016E05FC086E0FE013796DE0196
:101B0000119601900D928A95E1F78A859B85892B24
:101B100089F38F81988589238F3F61F32091F601A6
:101B200030E0C9010196877099274091F501481767
:101B3000190671F40E94A0081092F6011092F501A6
:101B400086E0E7E2F2E0DF011D928A95E9F7D2CF65
:101B500096E0929FD001939FB00D1124A950BE4FE3
:101B6000FE01319601900D929A95E1F78093F6016E
:101B70000E94340BBFCF819FC001112489509E4F1A
:101B80000E94B90B8823E9F0E091F5011E9FF00156
:101B90001124E950FE4F408151816281738184811B
:101BA00095810E94D9088091F50190E00196877097
:101BB00099278093F5018091F5019091F6018913A1
:101BC000DACF2C960FB6F894DEBF0FBECDBFDF91F3
:101BD000CF911F91089569857A858B859C850E9498
:101BE000D90888CF682F80910001909101010C9451
:101BF0006223682F80910001909101010C946D2364
:101C000080910001909101010C94782380912D0224
:101C1000859585958595089580912D028770089505
:101C200090912D02977081E009F480E008959091E1
:101C3000DA0292FB222720F9281751F080FB92F953
:101C40009093DA028091D9029091DA020C941E0FDF
:101C500008958091DA0282FB882780F991E0892734
:101C60000C94170E81E00C94170E80E00C94170E64
:101C700080915102089590915102892B80935102D5
:101C80000895809590915102982390935102089560
:101C9000809351020895109251020895909150023C
:101CA000892B80935002089580959091500298233B
:101CB00090935002089510925002089590914F020F
:101CC000892B80934F020895809590914F0298231D
:101CD00090934F02089510924F02089580912E0222
:101CE000089508950C94710E9091DA0292FD08C047
:101CF00090912E02981721F080932E020C94720E70
:101D0000089580912E02882329F010922E0280E0FF
:101D10000C94720E0895E0910001F0910101809100
:101D200051028083E0910001F09101018081909146
:101D30005002892B8083E0910001F09101018081A4
:101D400090914F02892B808390912E02992381F0EC
:101D5000E0910001F09101018081892B80838091C5
:101D60000001909101010E94CE2281110E94810EFA
:101D700080910001909101010C947A2208950C94B5
:101D8000BE0E9091DA0292FD10C098E0899F9001FA
:101D90001124622B60932D020E945B0980912D0219
:101DA0008595859585950C94BF0E0C945B091092D2
:101DB0002D0280E00C94BF0E90912D028095892316
:101DC00080932D02282F277039F4282F082E000C1D
:101DD000330B9217130621F49091DA0292FF07C099
:101DE0008595859585950E947C090C94D70E08955C
:101DF00090E080E00E94E53121E0893E9E4F09F0AD
:101E000020E0822F089582E090E00C94D73183E0A7
:101E100090E00C94D731682F83E090E00C94EB3184
:101E2000CF9384E090E00E94D731C82F82E290E007
:101E30000E94D731982F8C2FCF910895CF93C92F1F
:101E4000682F84E090E00E94EB316C2F82E290E0FA
:101E5000CF910C94EB31AB01BC018FE090E00C947E
:101E6000FD31AB01BC0183E190E00C94FD3160E0F9
:101E700070E0CB010C94310F60E070E0CB010E9468
:101E80002B0F0C94370F69EE7EEF90E080E00E94FC
:101E9000093260E082E090E00E94EB3160E083E094
:101EA00090E00E94EB311092F1011092F201109239
:101EB000F3011092F40160E084E090E00E94EB31C5
:101EC00060E082E290E00E94EB3160E085E090E02B
:101ED0000E94EB3160E086E090E00E94EB316FEF12
:101EE00087E090E00E94EB3140E050E0BA0188E0EA
:101EF00090E00E94FD3160E08DE090E00E94EB31C7
:101F000040E050E0BA0188E190E00E94FD3160E0DD
:101F100087E190E00E94EB3140E050E0BA018CE1B3
:101F200090E00E94FD3170E060E080E290E00E946D
:101F3000093240E050E0BA0188E190E00E94FD31B2
:101F40000C943C0F0C94430F682F8EE090E00C949F
:101F5000EB310E941D2460935E0270935F028093B8
:101F600060029093610260935A0270935B028093C7
:101F70005C0290935D0208950E941D2460935E02AE
:101F800070935F02809360029093610260935602A7
:101F9000709357028093580290935902089585B721
:101FA000806885BF85B7806885BF089508950895C6
:101FB0000C94D60F08950C94DA0F0E94CF0F88EB83
:101FC00092E10E9480240E94D70F0C94D80F81E0E8
:101FD00008950C94E70F089508950E94EB0F0C9458
:101FE000EC0F0E9408240E9490130E94551D0E942D
:101FF000401F0C94DB0FBF92CF92DF92EF92FF92C3
:102000000F931F93CF93DF93CDB7DEB72A970FB609
:10201000F894DEBF0FBECDBF0E94A41381110E94B1
:10202000A90F33E5C32E32E0D32E10E000E0B02E2E
:10203000802F0E94E512E82EF601F1906F01F8164C
:1020400009F45EC08091620281FD0E94EB128F2D27
:102050008E25F82FF170FF2E80FD4BC081FD4BC007
:1020600082FF4EC092E0D92E24E0F22E0E94E90FAA
:10207000882399F0DE82BF82EF2081E009F480E0BE
:1020800088870E9411248160782F9A8789874E81E2
:102090005F8168858A850E943A05F801ED5AFD4FF7
:1020A0008081F826F0820E94991D0E944F1F8111A5
:1020B0000E94BC0F0E94D6160E9461150E946B22DE
:1020C00090915202891799F10E946B2280935202DB
:1020D0002A960FB6F894DEBF0FBECDBFDF91CF9129
:1020E0001F910F91FF90EF90DF90CF90BF900C94D5
:1020F0003205D12CBBCFDD24D39482E0F82EB6CFAD
:102100000F5F1F4F0330110509F091CF8FEF8983C7
:102110008A831B820E9411248160782F9D838C8387
:1021200049815A816B818D810E943A05BCCF2A96E4
:102130000FB6F894DEBF0FBECDBFDF91CF911F91D8
:102140000F91FF90EF90DF90CF90BF90089590E0B7
:1021500080E008950895972F70E023E0929F600D2E
:10216000711D1124FB0199E0899FE00DF11D1124DF
:10217000EE0FFF1FE455FF4F859194910895FC01E8
:10218000EE0FFF1FEE56FE4F859194910895CF9369
:10219000DF930E94DE11EC01811520E5920708F023
:1021A00042C0811530E4930708F0BDC0883E910518
:1021B00028F5803E910508F09DC0883A910588F485
:1021C000853A910508F08FC08130910509F492C0DD
:1021D000009709F48FC0049708F08CC0D0E0C0E0ED
:1021E00089C08F3B910508F489C0805C9109C03C8F
:1021F000D105A0F30E94BF10EC017CC08115904274
:1022000050F4C11581E0D80708F074C0CD3ED10567
:1022100028F3D0656FC0C11590E3D90708F079C0E5
:10222000CE019F70E7CF811525E5920758F58115FE
:1022300034E5930708F0A6C0811542E5940750F4F1
:10224000C11581E5D80708F471C0DC2FCC27C16F18
:10225000D06A50C0982F969596959E01237033278B
:10226000C115D34508F07FC0C1E0D0E002C0CC0F5B
:10227000DD1F2A95E2F720E2929FC0011124C82BAE
:10228000D92B6FC0C11589E5D807A8F4C11598E509
:10229000D90708F07CC0C11526E5D20708F09ECF0B
:1022A0008C2F0E947512C82FD0E0DC2FCC27CC27B2
:1022B000DF71D0621FC0C1153AE5D30708F46CC0C6
:1022C000CE0190568115904208F088CF8D2F8F71E6
:1022D0000E94751290E0982F882788279F719C0193
:1022E0002C2BE901E6CFC55AD0E0CD56DE4FC88190
:1022F000D0E0D064CE01DF91CF910895C85AD0E0EC
:10230000CC0FDD1FCB59DE4F0990D881C02DD4648E
:10231000F1CFCE019927D3FF03C0EC01D86CEACFEF
:10232000EC01D06CE7CFDF70D06AE4CFCE01E4E0FF
:1023300096958795EA95E1F783702C2F269526953B
:10234000237090E2299F90011124382B8C2F8370E9
:10235000C1E0D0E002C0CC0FDD1F8A95E2F7C22BAE
:10236000D32BDC68C7CFC1E0D0E002C0CC0FDD1FAB
:102370002A95E2F730E2939FC0011124C82BD92B94
:10238000DA68B8CFD82FCC27C46FD06AB3CFDC2F90
:10239000CC27C06FD06AAECF8C2F8F700E94751281
:1023A00034E0D695C7953A95E1F7CF709C2FEC01B4
:1023B000D069A0CF0E94AB100C94C7108238910551
:1023C000B1F1B0F48133910509F475C048F4893254
:1023D000910509F469C08A32910509F473C0089522
:1023E0008533910509F459C08933910501F10895A8
:1023F000833E9105A9F138F4803E9105F9F0823EC3
:10240000910549F10895863E9105A9F1873E910510
:10241000C9F1843E910519F52091DA0221FF1FC010
:102420008091D90284FD14C087EE90E00895209138
:10243000D9022370A1F080EE90E008952091D90296
:1024400020FD47C03091DA0230FF09C024FF44C0AC
:1024500090E080E004C02091D90222FDF7CF0895DA
:102460002091D90222FD3BC03091DA0230FDE3CF4A
:1024700024FFF5CFEDCF2091D90223FFF0CF24FD2B
:10248000E7CFD2CF2091D90223FD2CC03091DA02C0
:1024900031FFEECF84EE90E008952091D90225FF20
:1024A000DECF89E290E008952091D90225FFD7CFB1
:1024B00085E390E008952091D90226FFD0CF8AE2EB
:1024C00090E008952091D90226FFC9CF81E390E0E2
:1024D000089589E390E0089583EE90E0089582EEF8
:1024E00090E0089586EE90E008959091D90292FFD1
:1024F00006C0282F28712830F9F4877F846093FF65
:1025000006C0282F28712831F1F4877E846120913C
:10251000DA0220FF06C0382F38713830D9F4877FAF
:10252000816021FF06C0282F28712831D1F4877ED1
:10253000816194FD877E0895282F24712430F9F657
:102540008B7F8860DCCF282F2471243101F78B7EAC
:102550008861DDCF382F3171313019F78E7F886077
:10256000E0CF282F2171213121F78E7E8861E1CFC4
:1025700080E0089508950E94F80E811102C00E9423
:10258000A20F0E94030F809362020E94100F90938B
:10259000DA028093D9020E94BA120E94070F682FB4
:1025A00070E090E080E00E94F9086091ED01709188
:1025B000EE018091EF019091F0010C9433090895A0
:1025C0000C94DF1208950C94E212E82FF0E0E2522E
:1025D000FD4F80810895089580EA8A95F1F7089566
:1025E00000C008950C94EC12F894E82FE295EF7077
:1025F000F0E031A1282F2F7081E090E001C0880F1A
:102600002A95EAF7982F9095932391A392A1892B6D
:1026100082A37894089580EF0E94F41285E30E94CB
:10262000F41286E30E94F41281EF0E94F41286E90C
:102630000E94F41287E90C94F412DF92EF92FF9259
:102640000F931F93CF93DF93D82EE92EF62E062FEC
:1026500010E00A561E4FE80188818F3F09F458C0E8
:10266000F894E82FE295EF70F0E021A18F70C1E0BF
:10267000D0E0AE0102C0440F551F8A95E2F7CA01AF
:10268000922F982B91A392A18095892382A378946D
:102690000E94F0120F2C01C0CC0F0A94EAF76C2FA5
:1026A0007C2F7095A9E9B1E0ED2DFE2D4CE951E0AC
:1026B000E12C9D9180819F3F41F1292F22952F7020
:1026C00030E0E90128A130E09F7002C035952795E0
:1026D0009A95E2F720FD19C0862B8083EE24E394BF
:1026E00031964A175B0729F7F80180818F3F11F077
:1026F0000E94F4126E2D8F2DDF91CF911F910F91BB
:10270000FF90EF90DF900C94F21287238083E8CF44
:10271000DF91CF911F910F91FF90EF90DF9008957F
:102720000E940B13ABEDB2E01C92EEEDF2E01082D2
:1027300011961C921197118212961C92128283E0BC
:102740000E94E7130C94F4031F93CF93DF9300D000
:102750000F92CDB7DEB719821A821B8260E0CE01DC
:1027600001960E941D1361E0CE0101960E941D1387
:1027700062E0CE0101960E941D1343E050E0BE01CD
:102780006F5F7F4F8BED92E00E94C13111E00097A7
:1027900009F410E0892B49F089819A81AB818093FB
:1027A000DB029093DC02A093DD02212F43E06EED6B
:1027B00072E08BED92E00E94E8130E94FC03812FEF
:1027C0000F900F900F90DF91CF911F910895089572
:1027D000FF920F931F93CF93DF93F82E092F162F9D
:1027E000D72FC42F222349F081E0809365020E94F5
:1027F0001124909364028093630280916502882380
:10280000A1F080916302909164020E9429240597AF
:1028100060F0EF2DF02FA12FBD2FCE0FDF2FD11D98
:10282000EC17FD0741F410926502DF91CF911F91E3
:102830000F91FF90089581918D93F2CF0E948A238A
:102840000E94902B0E94AB2B0E94BD2B0E94ED0F8B
:10285000FBCFEF92FF920F931F93CF93DF93CDB7F0
:10286000DEB7AC970FB6F894DEBF0FBECDBF962F84
:10287000BA012132310598F540EF49831A821B8253
:102880001C82790142E0E40EF11C0CE210E00E190A
:102890001F09E1E0F0E0EC0FFD1F0E0F1F1FF80114
:1028A00080839183A901C80102960E94CE31A701BD
:1028B000B801CE0105960E94A427E5E0F0E0EC0FF8
:1028C000FD1FE80FF91F27EF2083BC016B5F7F4FCF
:1028D000AE014F5F5F4F8CEF92E00E94B924AC963F
:1028E0000FB6F894DEBF0FBECDBFDF91CF911F9121
:1028F0000F91FF90EF9008950E947C31FA01608360
:102900007183828393830895FC01E60FF11D60813A
:1029100070E090E080E0962F882777276627238154
:10292000622B2181822B2281722B089581E00895F0
:102930000C9496140C949814EF92FF920F931F939B
:10294000CF93DF9300D000D0CDB7DEB7F82EE92EBD
:102950008B010E949A148823A9F0D8018C918233AC
:10296000E0F4803378F4813169F040F4803179F11A
:102970002F2D3E2DA80160E080E846C08032A1F0F6
:102980008132B1F70F900F900F900F90DF91CF91A0
:102990001F910F91FF90EF900895803448F3823497
:1029A00088F3803829F7EECFF80181818430D1F0A7
:1029B0008630E9F0823059F482810E940B0FD801F1
:1029C00012966C9170E090E080E00E94F908D801C6
:1029D0001196EC91E150ED30A8F6F0E0E15CFD4C91
:1029E0000C947631828190E00E941E0FF0CF62E05D
:1029F000C8010E9484140E94AC18E9CF30E020E0A6
:102A000050E040E061E081E10E942914BBCF82E008
:102A100090E00E94D731898321E030E0AE014F5F22
:102A20005F4F68E0F0CF83E090E00E94D731898368
:102A300021E030E0AE014F5F5F4F62E0E4CF609194
:102A4000ED017091EE018091EF019091F001AE01E6
:102A50004F5F5F4F0E947C1424E030E0AE014F5F77
:102A60005F4F63E0D0CF30E020E050E040E069E02D
:102A7000CACF30E020E050E040E065E0C4CF0E94E3
:102A8000A818AE014F5F5F4F0E947C1424E030E035
:102A9000AE014F5F5F4F66E0B6CF0E94100F898393
:102AA00021E030E0AE014F5F5F4F64E0ACCF83E0E8
:102AB00089838A8322E030E0AE014F5F5F4F6DE093
:102AC000A2CF8CEF92E00C94E62680916C0280FFFE
:102AD00012C06091070185E0689FB00111247595CF
:102AE00067957595679560387105A8F5611571054D
:102AF000A1F1862F089581FF09C06091070185E04B
:102B0000689FB001112475956795EDCF609107011D
:102B100082FD0AC080916B028823D1F0909106015A
:102B200060910701891728F085E0689FB0011124A2
:102B3000DACF869FB001112485E0869F9001879FA0
:102B4000300D1124692F70E0C9010E944031CBCFB4
:102B500065E070E0CECF8FE7089581E00895809121
:102B60006C0280FF0CC06091030170E07595679561
:102B7000759567956115710549F1862F089581FF57
:102B800006C06091030170E075956795F3CF609181
:102B9000030182FD0BC090916A029923A1F060911C
:102BA000020180910301961738F0682F70E06038B9
:102BB000710500F38FE70895899FC001112470E02B
:102BC0000E944031F4CF61E070E0D7CF81E00895FA
:102BD0008D3E31F40E9465158195809370020895B1
:102BE0008E3E19F40E946515F8CF8F3E31F40E9495
:102BF0006515819580936F020895803F19F40E94B6
:102C00006515F8CF893F29F40E94AF1580937102B2
:102C100008958A3F21F40E94AF158195F7CF8B3F2D
:102C200031F40E94AF1581958093720208958C3F14
:102C300019F40E94AF15F8CF9FE0980F983070F408
:102C4000815F990B21E030E001C0220F8A95EAF7FD
:102C500080916E02822B80936E0208958D3F31F435
:102C600080916C02816080936C0208958E3F21F404
:102C700080916C028260F7CF8F3FB9F780916C0230
:102C80008460F1CF40916F028D3E59F480917002C3
:102C900087FF0DC01092700241110BC010926B02A1
:102CA00008C08E3E81F48091700218169CF3442374
:102CB00081F08091710290917202892B09F05AC0C3
:102CC00010926A0208958F3E49F447FFF0CF1092A8
:102CD0006F02809170028111ECCFE0CF803F19F438
:102CE0001416ACF3E4CF90917102893F29F41916C0
:102CF000F4F610927102DBCF8A3F19F497FFD7CF19
:102D0000F8CF909172028B3F29F497FFD0CF1092A9
:102D10007202CDCF8C3F19F41916CCF3C8CF9FE0C7
:102D2000980F983090F4815F990B21E030E0B90161
:102D300002C0660F771F8A95E2F7CB0180959091CC
:102D40006E02892380936E02B2CF8D3F31F4809161
:102D50006C028E7F80936C02AACF8E3F21F480910B
:102D60006C028D7FF7CF8F3F09F0A1CF80916C026D
:102D70008B7FF0CF08950E9411249C0190916F02E7
:102D800080917002982B21F03093690220936802A1
:102D90009091710280917202982B21F0309367021A
:102DA000209366028DE692E00C949422EF92FF92BB
:102DB0000F931F93CF93DF9300D000D000D0CDB7F7
:102DC000DEB786E0EDE6F2E0DE01119601900D92AD
:102DD0008A95E1F7E0906F02F09070020091710225
:102DE0001091720210926F02109270021092710292
:102DF000109272028E2D8F2991F08091680290912D
:102E000069020E942924AC0190916B02992309F474
:102E10003FC0809108018417150608F447C0802F31
:102E2000812B91F080916602909167020E94292483
:102E3000AC0190916A02992309F477C08091040152
:102E40008417150608F47FC080916F02909170027C
:102E5000892B90917102892B90917202892B11F02C
:102E60000E94BB1686E0FE013196ADE6B2E001900D
:102E70000D928A95E1F726960FB6F894DEBF0FBE45
:102E8000CDBFDF91CF911F910F91FF90EF900895EB
:102E9000209109018AE0289F900111242417350709
:102EA00008F0BDCF9F5F90936B0202C09F3FD1F7A8
:102EB000EE2059F00E9465159FEF1E140CF491E06E
:102EC000899F802D112480936F02FF2059F00E946A
:102ED00065159FEF1F140CF491E0899F802D11243C
:102EE0008093700230916F02332309F498CF2091C0
:102EF0007002222309F493CF45EB3403C00111245F
:102F0000992359F090936F0245EB2403900111240B
:102F1000332339F03093700282CF81E080936F02C7
:102F2000F3CF81E0809370027ACF209105018AE08F
:102F3000289F900111242417350708F085CF9F5F43
:102F400090936A0202C09F3FD1F7002359F00E947C
:102F5000AF159FEF10160CF491E0899F802D11247E
:102F600080937102112359F00E94AF159FEF111643
:102F70000CF491E0899F802D11248093720230918E
:102F80007102332309F460CF20917202222309F4E5
:102F90005BCF45EB3403C0011124992359F0909382
:102FA000710245EB240390011124332339F030934F
:102FB00072024ACF81E080937102F3CF81E0809367
:102FC000720242CF86E0EDE6F2E0DF011D928A95C3
:102FD000E9F710926B0210926A0210926C02089547
:102FE000EF92FF920F931F93CF93DF93EB01E82FA4
:102FF000D11110C0442321F0F0E0E755FD4FE491DA
:103000006E2F7E2F8E2FDF91CF911F910F91FF900A
:10301000EF9008950D2F10E0282F30E0442329F081
:1030200027553D4FF901249130E0F6E0CF9FC001D4
:103030001124EFEFF0E0BF010E942C31AB018C2F87
:1030400090E0880F991FA5E5A49FB001A59F700D82
:103050001124861B970B982F990F980FBF01601BA7
:10306000710B629FD001639FB00D729FB00D112450
:103070008B2F9D9FB0011124672F7727EF01C61B6F
:10308000D70BBE01629FE001639FD00D729FD00DF0
:1030900011247F01E91AF108E09EB001E19E700D54
:1030A000F09E700D1124672F7727E61BF70BE29F28
:1030B0008001E39F100DF29F100D1124E12F722F5C
:1030C0004230510599F048F44115510569F04130FD
:1030D000510581F0EB2F8D2F07C04430510569F069
:1030E00080F046305105B1F76E2F8DCFE22F7B2F48
:1030F000812FFACFE22F7D2FF7CFEB2F822F712F69
:10310000F3CF7B2F822FED2FEFCF41E00C94F01700
:1031100008950C948518CF93DF93762FE901682FDB
:10312000842F0E948918798368838A83DF91CF91E5
:1031300008958091E102982F9E7F29F4817082602A
:103140008093E10208958A34E8F381708864F8CFAF
:1031500088E090E00C94DF31CF92DF92EF92FF9203
:103160006B017C010E949918B701A60188E090E0EC
:10317000FF90EF90DF90CF900C94FD31E1EEF2E004
:1031800083E1808311828FEF8283838383E0848352
:1031900060817181828193810C94AC188091E102ED
:1031A00080FF02C08695089580E008959091E50221
:1031B000933018F49F5F9093E502882351F060915B
:1031C000E1027091E2028091E3029091E4020C949A
:1031D000AC18089581E00C94D6189091E5029923DB
:1031E00019F091509093E502882351F06091E1022B
:1031F0007091E2028091E3029091E4020C94AC1889
:10320000089581E00C94ED1870E00C94121F609109
:103210000E018091E10280FF0AC080910D0123E040
:10322000829FC00111248A519D4F0C9404198091F2
:103230000F019091100123E0829FF0011124EA51C7
:10324000FD4F891750F71182108212828F5F3396DB
:10325000F8CF9091E10290FF14C090910F0120915E
:10326000100133E0939FF0011124EA51FD4F9217B2
:1032700010F00C9407198183608342839F5F33961B
:10328000F6CF0895CF93DF9300D00F92CDB7DEB77E
:103290009091E10290FF0AC09E012F5F3F4F0E9474
:1032A0008B184B8169818A810E9429190F900F9098
:1032B0000F90DF91CF910895CF93DF93EC01EC81D4
:1032C000F0E0EC55FE4F4491E1EEF2E06281818145
:1032D0000E9442198C818F5F8C83DF91CF9108957A
:1032E000CF93DF93EC01E1EEF2E0438162818C81C8
:1032F0000E9442198C818F5F8C83DF91CF9108955A
:103300000F931F93CF93DF9300D00F92CDB7DEB70B
:103310008C018091730281110AC09E012F5F3F4F83
:103320004FEF6FEF0E948B188A8180937302F80130
:103330006481613069F08091730240E0662361F03E
:1033400040E0623011F44091730280E060E004C01C
:103350006091730240E080E00E942919F8018481A5
:1033600090E0019663E070E00E94403184830F900A
:103370000F900F90DF91CF911F910F910895AF9211
:10338000BF92CF92DF92EF92FF920F931F93CF9352
:10339000DF9300D00F92CDB7DEB7182FF62E042F93
:1033A000E22E9091E10290FF29C0E92FE695AE2F21
:1033B000B0E0A456BE4F8C9180937F029E7F9230E6
:1033C00059F59E012F5F3F4F812F0E948B184B8133
:1033D00069818A810E9429191093E202F092E30226
:1033E0000093E402EE2051F06091E1027091E2025C
:1033F0008091E3029091E4020E94AC180F900F902C
:103400000F90DF91CF911F910F91FF90EF90DF9080
:10341000CF90BF90AF900895823019F40091E402EC
:10342000DBCF863019F41091E202D6CF8930D9F380
:10343000893191F6E9518E2F8170D82EE695F0E012
:10344000EC55FD4FA590B490C12CBB2460911101A7
:10345000C61618F00E940719BFCF2C2D30E0A29E8F
:10346000C001A39E900DB29E900D112470E00E94A9
:103470002C31812FD11013C0860F40910F01420FC4
:10348000532F511D9A01220F331F240F351F2A512C
:103490003D4F402F6F2D0E948B18C394D7CF861BB2
:1034A000ECCFE1EEF2E09181282F4381628188E048
:1034B000890F0C94BF1981E00C94511AE1EEF2E0EF
:1034C0009181282F4381628188EF890F0C94BF1965
:1034D00081E00C945E1AE1EEF2E0628121E1620F7C
:1034E00008F46FEF282F438181810C94BF1981E08C
:1034F0000C946B1AE1EEF2E0628121E1621B08F4A8
:1035000060E0282F438181810C94BF1981E00C94E5
:103510007A1AE1EEF2E0438121E1420F08F44FEF25
:10352000282F628181810C94BF1981E00C94891A43
:10353000E1EEF2E0438121E1421B08F440E0282F54
:10354000628181810C94BF1981E00C94981A20E06B
:103550000C94BF19EF92FF921F93CF93DF93EC016E
:1035600010E0EE24EA94F12C60911101161770F02E
:103570000E9407199A818C8190FF27C08F5F8C83EE
:10358000DF91CF911F91FF90EF90089520910F014F
:10359000422F410F5527551FCA019A01220F331F91
:1035A000280F391F2A513D4F70E0C7010E9440315A
:1035B000962F8C814091E4026091E302199F800D67
:1035C00011240E948B181F5FCFCF8150D8CFBF929C
:1035D000CF92DF92EF92FF920F931F93CF93DF93DF
:1035E000FC0182810FEF80FF01E010E0809111016A
:1035F0001817C0F00E94071980917502013009F078
:1036000051C0811102C080911101815080937502D7
:10361000DF91CF911F910F91FF90EF90DF90CF90AE
:10362000BF900895C0910F01C12ED12CCC0DDD2D7E
:10363000D11DCE01880F991FC80FD91FCA51DD4F68
:10364000198218821A8234E0E32EF12CB12C809179
:1036500075028B0D853004F18370082E000C990BD8
:10366000C816D90691F48091E4028E9DA0018F9D29
:10367000500D112455954795559547959E0160919C
:10368000E3028091E2020E948B18B00EF1E0EF1A83
:10369000F108E9F61F5FAACF87FFDFCF90911101F4
:1036A000890FDBCF90E001966091110170E00E94DC
:1036B0004031ACCF0F931F93CF93DF9380910F01D5
:1036C0009091100123E0829FF0011124EA51FD4FF7
:1036D000891740F1C0E0D3E060911101C61740F1B5
:1036E0000E94071920910B0180917402820F809330
:1036F000740290910C01920F90930C01191654F4DE
:10370000082E000C990B409111014150550B841764
:1037100095071CF0219520930B01DF91CF911F910C
:103720000F9108951182108212828F5F3396D0CF4D
:103730000C2F10E070E0C8010E94403120910F0171
:10374000820F482F50E020917402022E000C330BA0
:1037500002171307BCF020910C01022E000C330B52
:10376000201731077CF08D9F900111242A513D4F85
:103770004091E4026091E3028091E2020E948B1882
:10378000CF5FAACFFA01EE0FFF1FE40FF51FEA513A
:10379000FD4F118210821282F3CF8F929F92AF92CF
:1037A000BF92CF92DF92EF92FF920F931F93CF932E
:1037B000DF93EC014C81042F10E09801D8010E94A6
:1037C0008B319B01AC010E94A1314B015C01E0E215
:1037D000F0E0E01BF10BA5E5B0E0AC019B010E941D
:1037E000A1316B017C019F01DF010E9483319B01AC
:1037F000AC010E94AC319B01AC01280D391D4A1D62
:103800005B1DC701B6010E945431F22E822F90E059
:1038100039E23F1560F143E0249F90011124359572
:103820002795122F109500E085E5E82EEF1880917E
:103830001101081758F10E9407199C8181E0992312
:1038400019F0903219F48FEF80930A0180910A01E8
:10385000890F8C83DF91CF911F910F91FF90EF9093
:10386000DF90CF90BF90AF909F908F90089525E507
:1038700030E0B901681B790B9B01220F331F260F23
:10388000371F37FFCCCF2F5F3F4FC9CF8E2D01FDA4
:103890008F2D20910F01622F600F7727771F9B01DB
:1038A000220F331F260F371F2A513D4F412F6091A2
:1038B000E3020E948B180F5FBACF0F931F93CF9331
:1038C000DF93EC0110E000E09091110190171106D8
:1038D00009F06CF40E9407198C8190E001968170C8
:1038E00099278C83DF91CF911F910F91089520919B
:1038F0000F01A801420F511D9A01220F331F240FFF
:10390000351F2A513D4F4C816091E3028091E202C4
:1039100096959017110651F04CF0442349F04091D0
:10392000E4020E948B180F5F1F4FCECF4423B9F3E0
:1039300040E0F7CFE1EEF2E080818E7F808360810E
:103940007181828193810E94AC18109280022FEFC6
:1039500080E792E0215080409040E1F700C00000F5
:103960000C940719E1EEF2E080818E7F8083109243
:1039700080022FEF80E792E0215080409040E1F7F5
:1039800000C000000C9407191092800280917D0203
:1039900081110AC081E080937D028091E1028170F3
:1039A00080937C020C94B21C08956091E1026695AC
:1039B00070E04BE050E082E191E00E94B431892B4D
:1039C00019F481E0809380020E9411249093770281
:1039D0008093760208959091E10290FF35C0917036
:1039E000811128C092609093E102662351F06091AA
:1039F000E1027091E2028091E3029091E4020E9460
:103A0000AC186091E102669570E04BE050E082E115
:103A100091E00E94B431892BA1F01092800281E0E4
:103A2000809379024091E4026091E3028091E20286
:103A30000C94A71A853210F09864D5CF880F982B74
:103A4000D2CF0E94D51CEBCF0895682F9091E10250
:103A5000969581E0890F853208F081E00C94EB1C8B
:103A600081E00C94251D682F9091E10296958FEFCF
:103A7000890F09F484E20C94EB1C81E00C94331D53
:103A800061E00C94EB1CE1EEF2E0808181608083C8
:103A900086950C94401D8091E10280FD0C949A1C47
:103AA0000C94431D60E00C94EB1C80917E0281110C
:103AB0002EC00E94F80E811104C00E94A20F0E9425
:103AC000BE180E94A8186093E1027093E2028093EE
:103AD000E3029093E4026E7F61F40E94BE180E949C
:103AE000A8186093E1027093E2028093E30290933E
:103AF000E4020E949918109280028091E10280FFF6
:103B000003C086950E94521D81E080937E02089535
:103B1000E1EEF2E080818160808386950C94521DF5
:103B200010927D0280917C0281110E94881D0C946C
:103B3000D51C0F931F93CF93DF938091800288232E
:103B400009F486C080917F02E091E102E695E81BCE
:103B5000E0937802823091F5F0E0E056FE4FE49178
:103B6000CE2FD0E00CE519E180917902882361F035
:103B7000109279020E94112490937702809376022A
:103B800010927B0210927A020E941124E091760238
:103B9000F09177028E1B9F0B8F3F9F4708F058C014
:103BA000EC0FFD1FF0937702E093760286E792E038
:103BB000F801DF91CF911F910F910994863049F45C
:103BC000F0E0E356FE4FE491CE2FD0E000E719E19C
:103BD000CBCF893051F4E695F0E0E656FE4FE49104
:103BE000CE2FD0E00AEA1AE1BFCF8F3051F4E6952C
:103BF000F0E0E956FE4FE491CE2FD0E007EE1AE157
:103C0000B3CF853149F4F0E0EC56FE4FE491CE2F6E
:103C1000D0E00AE51BE1A8CFC8E2D0E00DEC1BE143
:103C2000883109F4A1CF833239F4E2E9F1E0C5919A
:103C3000D49100E819E198CFC4EFD1E00DE51CE183
:103C4000843209F491CFC0EDD7E008E818E18CCFB9
:103C5000DF91CF911F910F910895FA01811101C059
:103C6000FB010994CF93DF93C82FD62F0E94CE1863
:103C70008C1740F00E94CE188D1720F4DF91CF9161
:103C80000C94301D8C2FDF91CF910C94401D1F930D
:103C9000CF93DF93EC01FB011281112309F4C0C023
:103CA0000E94380E8272CD3CFCE5DF0709F49CC00F
:103CB00008F044C0C73CECE5DE0709F481C0F0F42D
:103CC000C43C9CE5D90709F471C048F4C33CDC4509
:103CD00009F469C0812FDF91CF911F910895C53CF0
:103CE0009CE5D90709F467C048E65AE16BE57AE13B
:103CF000C63CDC4579F70E942D1E53C0CA3CFCE54A
:103D0000DF0709F467C068F4C83CECE5DE0709F496
:103D10005CC047E75AE166E87AE1C93CDC4559F303
:103D2000D9CFCB3C9CE5D90709F459C041E059E112
:103D30006AEE78E1CC3CDC45F1F2CCCFC23DFCE54B
:103D4000DF0709F462C098F4CF3C9CE5D90709F479
:103D500054C008F44EC0C03DFCE5DF0709F452C072
:103D6000C13DDC4509F0B6CF6EE089E048C0C53DF5
:103D70009CE5D90709F44FC058F4C33DFCE5DF07C3
:103D800009F446C0C43DDC4509F0A4CF88E132C047
:103D9000C63D9CE5D90709F441C0CE35DD4509F0A3
:103DA00099CF10E097CF0E944B1DFBCF4DE35DE113
:103DB00060E37DE1A0CF40E35DE16DE37DE19BCF7A
:103DC0004BE55AE168E67AE196CF46E85AE167E7C3
:103DD0007AE191CF44EA5AE165E97AE18CCF45E98D
:103DE0005AE164EA7AE187CF4AEE58E161E079E18D
:103DF00082CF81E00E94401DD4CF65E082E00E9426
:103E0000321ECFCF68E086E0FACF64E18FE0F7CFD3
:103E100067E185E1F4CF62E289E1F1CF83E2EACFA5
:103E200011E058CF279A45B14F7755B15068EFB799
:103E3000F8949B01220F331F260F371F280F391FBD
:103E40002817390741F4EFBF8FE594E00197F1F7A8
:103E500000C000000895DC016D91CD0178E055B9F6
:103E6000000000C067FF45B9660F000000C000C039
:103E700000C045B900C07A9591F7E2CF0C941203C7
:103E80005098589A5198599A89B18170499905C0AA
:103E900090E0892B80938302089592E0FACFE0911D
:103EA0008302EE0FEE0FE093830249B1842F8170FD
:103EB00049B141FB222720F941FF02C022E030E056
:103EC000822BE82BE0938302EF70F0E0EF53FE4F7C
:103ED000808190918202890F8093820220E0843059
:103EE00054F0809181028F5F8093810260E080E0D6
:103EF0000E943E1F21E0809182028D3F54F4809108
:103F0000810281508093810261E080E00E943E1F27
:103F100021E080918202082E000C990B64E070E091
:103F20000E94403180938202822F0895CF93DF93C5
:103F3000EC0197FF0CC0FB018281882341F00E94B5
:103F4000C11FCE019F770E941B200E94FC1F81E0B1
:103F5000DF91CF9108958CE090E00E94D73190E0FE
:103F6000B0E0A0E08093F2029093F302A093F402F9
:103F7000B093F50208956091F2028CE090E00C9409
:103F8000EB310E947722869581708093F7029091A1
:103F9000F202913029F4882319F089E30E94110676
:103FA0000E94380E8093F6020E944B0E8091F2021E
:103FB000813089F0882359F0823091F08430B9F053
:103FC0008FE39CE90197F1F700C00000089582EEAD
:103FD0000E947D05F5CF88E193E00E949803F0CF21
:103FE00082EE0E947D0587E50E941106E9CF86EEEC
:103FF0000E94110688E1F8CF8091F202813071F0C1
:10400000882341F0823031F0843099F08091F602BB
:104010000C94480E82EE0E94CB05F8CF8CE20E94F1
:1040200011068091F702882389F389E30E94110623
:10403000EDCF88E2FBCF0F931F93CF93DF938C01DB
:10404000CCE0D0E0C8010C2E02C0969587950A946A
:10405000E2F78F700E94D3042497CC3F8FEFD807EC
:1040600089F7DF91CF911F910F9108950F931F93BF
:10407000CF93DF93EC018B01FB018281882361F0F8
:104080000E94380ECE01825E9C458530910520F459
:104090008093F2020E94BB1FB801CE01DF91CF9145
:1040A0001F910F910C94961F0F931F93CF93DF9343
:1040B000C42FD22FFC0182818823C9F0409386024D
:1040C0000E941124909385028093840280E28C0FD9
:1040D000883008F050C0C77081E001C0880FCA95D1
:1040E000EAF7DF91CF911F910F910C94190610916F
:1040F0008602141335C080918402909185020E943B
:104100002924883C910560F5C0E2CD0F1D17B9F058
:1041100080E2810F883040F4177081E001C0880F81
:104120001A95EAF70E942006C83048F481E09D2FD6
:10413000977001C0880F9A95EAF70E941906802FA0
:104140000E941106C830B8F4D77081E001C0880F12
:10415000DA95EAF7DF91CF911F910F910C94200629
:1041600080E28C0F883038F4C77081E001C0880F7E
:10417000CA95EAF7EFCFDF91CF911F910F91089584
:104180000F939C01CB01243F4CE5340759F1A8F46F
:10419000293DFCE53F0701F12A3D4CE53407D1F10B
:1041A000283D3C4591F406E221EE41EE68ED7CE5C8
:1041B0000E94542080E00F910895263FFCE53F07C0
:1041C000E9F0B0F0273F3C45F9F0FC0182818823FB
:1041D00039F110928602EFCF07E225EE45EE69ED48
:1041E0007CE5E6CF06E221EE40EE64EF7CE5E0CF31
:1041F00007E225EE44EE65EF7CE5DACF06E221EE3C
:1042000042EE66EF7CE5D4CF07E225EE46EE67EF9F
:104210007CE5CECF08E221E045EE6AED7CE5C8CF33
:1042200081E0C9CFCF93DF93EC01FB01828188232A
:1042300009F420C1C430FDE5DF07C8F5CB3F9CE59C
:10424000D90730F49E0122503C452431310598F5C0
:104250000E94100F9093DA028093D902C031FCE5DE
:10426000DF0709F4E0C008F061C0C8309CE5D90759
:1042700009F4CBC088F5C430FCE5DF0709F4B3C00E
:10428000E8F4C2309CE5D90709F4A7C08091D902AF
:104290008260C330DC4509F4A3C08091D9029091BB
:1042A000DA020E941E0F0E94A00880E004C0C236FD
:1042B000EDE5DE0769F2DF91CF9108958091D90293
:1042C0008061C630FCE5DF0709F48AC008F48FC0BE
:1042D0008091D902806284C08091D9028D7FCC30D8
:1042E0009CE5D90709F47CC070F48091D9028C60F8
:1042F000CA30FCE5DF0709F473C008F48AC0809176
:10430000D9028E7F6DC08091D902877FCE309CE527
:10431000D90709F465C08091D9028B7FCF30DC4585
:1043200008F45EC08091D9028F7E5AC0CD3FFCE573
:10433000DF0709F474C040F5C4319CE5D90709F4DE
:104340008AC058F4C231FCE5DF0709F474C008F4F0
:104350006EC08091D902837F43C0CB3F9CE5D907D3
:1043600009F449C008F04DC0C531DC4509F095CFCE
:104370008091D90282FB992790F921E0922790FB46
:1043800082F990FB83F92CC0C1308DE5D80709F480
:1043900058C088F48091DA028360CF3FECE5DE07F5
:1043A00069F18091DA028D7FC115DD4538F1809188
:1043B000DA028C7F23C0C3308DE5D80709F458C0DA
:1043C00008F452C0C236DD4509F067CF9091D9029A
:1043D000892F8F7E94FF806103C08091D902816014
:1043E0008093D9025ACF8091D9028460F9CF80910D
:1043F000D9028860F5CF8091DA0281608093DA0279
:104400004CCF8091DA028260F9CF8091D90280642A
:10441000E7CF0E94A0088091D9028068E1CF809107
:10442000DA028E7FEBCF8091D9028F7DD9CF809138
:10443000D9028F7BD5CF0E94A0088091D9028F77B7
:10444000CFCF8091DA02982F909591708E7F892B33
:1044500090FB81F9D3CF0E94A0089091D902892FB7
:1044600097FB87F98058BCCF81E00E94A40F15CF3D
:1044700080E0FBCF81E01FCFCF93DF93EB0186314C
:104480009C4511F50E94380E9A81992399F08A7AF9
:1044900091E009F490E090938702811109C089E2CC
:1044A0000E94F20D0E948B0E80E0DF91CF91089563
:1044B00085E3F6CF80918702811104C089E20E94D2
:1044C000F90DF0CF85E3FBCF81E0EFCF90938D0224
:1044D00080938C020895E0918C02F0918D023097C8
:1044E00021F00190F081E02D099480E008950E9470
:1044F0006B220895E0918C02F0918D02309799F033
:1045000020913301222359F02091D90227FF07C0BF
:10451000DC012C9111962C93119725E02C930280AD
:10452000F381E02D09940895E0918C02F0918D02C1
:10453000309739F022E0DC012C930480F581E02DE6
:104540000994089520918A0230918B022817390727
:1045500071F090938B0280938A02E0918C02F0912B
:104560008D02309721F00680F781E02D099408959F
:1045700020918802309189022817390771F09093B1
:10458000890280938802E0918C02F0918D0230972D
:1045900021F00084F185E02D09940895FC01329604
:1045A00080913301882321F08091D9029EE187FF19
:1045B00096E080E0915008F4089521912223D1F3F0
:1045C0008F5FF8CF662301F1209133012223F1F0B0
:1045D0002091D90227FF1AC0462F46954695469549
:1045E0004E3190F4677021E030E002C0220F331F9B
:1045F0006A95E2F7840F911DFC01828190E02823E7
:10460000392381E0232B69F480E00895FC01329680
:1046100008962191261721F0E817F907D1F7F4CF72
:1046200081E008959C01FC0132969FEF80E041916A
:10463000461751F09F3F19F4411101C0982F8F5F29
:104640008630A9F79F3F09F40895290F311D97FD82
:104650003A95F90162830895FC01329608962191FA
:10466000261303C0DF0111971C92E817F907B9F769
:104670000895E62FE695E695E695EE3168F4E80FA5
:10468000F92FF11D677021E030E001C0220F6A951B
:10469000EAF78281822B82830895E62FE695E695DC
:1046A000E695EE3170F4E80FF92FF11D677021E007
:1046B00030E001C0220F6A95EAF720958281282315
:1046C0002283089520913301222329F02091D902D9
:1046D00027FD0C9439230C941223209133012223BB
:1046E00029F02091D90227FD0C944D230C942C2302
:1046F000FC01329680913301882351F08091D902D8
:1047000087FF06C08EE1DF011D928A95E9F70895C3
:1047100086E0F9CF0895089508950C948C23809134
:10472000ED03843059F10E948D2380E00E94320510
:104730000E94C41C10928E0288E190E020E40FB623
:10474000F894A895809360000FBE2093600083B713
:10475000817F846083BF83B7816083BF78948895AD
:1047600083B78E7F83BF0FB6F894A89580916000C1
:10477000886180936000109260000FBE08950895D4
:10478000CF930E948B230E94A4130E94BF23C0E0FA
:104790008C2F0E94E512811105C0CF5FC330C1F795
:1047A000CF91089581E0FCCF08950C94D4230E940A
:1047B000A0080E946B220E9432050E94901D0C945A
:1047C000D5231F921FB61F9211248F939F93AF93EF
:1047D000BF9380918E02811113C08091F802909155
:1047E000F902A091FA02B091FB024196A11DB11D00
:1047F0008093F8029093F902A093FA02B093FB021F
:10480000BF91AF919F918F911F901FBE1F901895E0
:1048100082E084BD93E095BD9AEF97BD80936E00D2
:1048200008952FB7F8948091F8029091F902A09121
:10483000FA02B091FB022FBF08952FB7F894609150
:10484000F8027091F9028091FA029091FB022FBF59
:1048500008959C014FB7F8948091F8029091F90265
:10486000A091FA02B091FB024FBF821B930B0895F7
:1048700078941F921FB61F9211248F939F93AF932A
:10488000BF938091F8029091F902A091FA02B09141
:10489000FB020196A11DB11D8093F8029093F902CD
:1048A000A093FA02B093FB02BF91AF919F918F91B9
:1048B0001F901FBE1F90189581E08093E00080E25A
:1048C0008093D8001092C9008FE19EE40197F1F720
:1048D00000C0000087E090EBDC018093F60390932A
:1048E000F703A093F803B093F90388E19CE00FB6B7
:1048F000F894A895809360000FBE90936000FFCF5E
:104900009093E1018093E0010895881F8827881F14
:10491000089591E0883F08F490E0892F0895982F3A
:10492000907F903BE9F040F49039D1F0903AC1F09B
:104930009038B1F080E00895903D19F020F4903C5B
:10494000C9F782E00895903E59F0903F99F7815F52
:104950008F3080F7E82FF0E0EF52FE4F808108950E
:1049600083E008950F93DC01ED91FC9109950F917F
:1049700008956F927F928F929F92AF92BF92CF9243
:10498000DF92EF92FF920F93CF93DF9300D00F92BD
:10499000CDB7DEB74C015B013A01F12CE12CEA14F2
:1049A000FB0488F00F900F900F90DF91CF910F9143
:1049B000FF90EF90DF90CF90BF90AF909F908F903F
:1049C0007F906F90089519821A821B826501CE181C
:1049D000DF0884E0C816D10418F083E0C82ED12C7B
:1049E000B3016E0D7F1DA601CE0101960E94CE314E
:1049F0000B812A814981B601C4010E94B22483E05F
:104A0000E80EF11CCCCFFC01738362830895FC0196
:104A1000738F628F0895FC01758F648F0895CF9313
:104A2000DF93EC011DA21FA21EA2BC01685D7F4F97
:104A300040EC88519F4F0E941A271B821A821D82C8
:104A40001C821F821E82198618861B861A861D8666
:104A50001C861F861E86198A188A1B8A1A8A1D8A36
:104A60001C8A1F8A1E8A198E188E1B8E1A8E1D8E06
:104A70001C8E1F8E1E8E19A218A2DF91CF91089551
:104A8000EF92FF920F931F93CF93DF93EA018A0176
:104A9000060F111D88519F4F7C01C017D10739F4B3
:104AA000DF91CF911F910F91FF90EF900895699141
:104AB000C7010E942127F1CFFC0171836083089513
:104AC000FC0171A360A30895AF92BF92CF92DF92D1
:104AD000EF92FF920F931F93CF93DF9300D00F922B
:104AE000CDB7DEB77C016B01142FB22EA02EDC01F6
:104AF00095968C9195978430A9F55A96ED91FC91F5
:104B00003097E9F1CB01019763E070E00E942C310E
:104B1000CB01880F991F860F971F4983BA820B8399
:104B20004C2D481B9E012F5F3F4FBC01C7010995CB
:104B3000D7015E96ED91FC91309731F00A2D2B2D27
:104B4000412FB601C70109950F900F900F90DF918B
:104B5000CF911F910F91FF90EF90DF90CF90BF907A
:104B6000AF9008956230710509F455C06330710546
:104B700099F06130710509F481C0D12CC12CD701A5
:104B80005C96ED91FC91309799F20A2D2B2D412FD7
:104B9000B601C7010995CCCF842F807F803A11F1EF
:104BA00048F48038D1F0803951F7D7011496ED914F
:104BB000FC910AC0803ED9F0803FF1F0803BF9F6CD
:104BC000D7011296ED91FC913097C9F2123FE9F0AE
:104BD0002A2D4B2D612F6F701BC0D7011696ED91BA
:104BE000FC91F2CFD7011896ED91FC91EDCFD70152
:104BF0001A96ED91FC91E8CF423F09F6D7011C9639
:104C0000ED91FC91309709F4BACF2A2D4B2D62EF2C
:104C1000C70109958DCF842F807F803DB1F0803F03
:104C2000C9F0803C09F0ABCFD7011E96ED91FC9105
:104C3000309709F4A4CF812F8D7F4B2D612F6F709A
:104C4000813F89F0C701099573CFD7015096ED9147
:104C5000FC91EECF433F51F4D7015296ED91FC9178
:104C6000309709F48CCF4B2D612FECCF413F09F0E9
:104C700086CFD7015496ED91FC91F2CF842F0E94FC
:104C80008924882359F0D7015696ED91FC913097ED
:104C900009F475CF612FC70109954ACF163F09F076
:104CA0006ECFD7015896ED91FC91F1CFFF920F9303
:104CB0001F93CF93DF93EC01162F862F0E94892438
:104CC000882391F0FDA081E08DA300E020E0412F3A
:104CD00061E070E0CE010E946425FDA2DF91CF91DA
:104CE0001F910F91FF900895812F0E9485244DA15F
:104CF000882309F443C0443029F01AA381E090E0EE
:104D00009FA38EA3812F0E948F24813051F088238E
:104D1000A9F0823089F0833079F01DA21FA21EA273
:104D2000DDCF8DA300E020E0412F61E070E0CE01F7
:104D30000E9464251DA2D2CF8DA3D0CF103FB1F029
:104D4000173F59F72EA13FA1C90163E070E00E940F
:104D50002C31FE01E80FF91F12A3B9016F5F7F4FDD
:104D60007FA36EA30CA12BA14AA1E1CF84E08DA368
:104D70001AA381E090E09FA38EA3B0CF442309F44F
:104D8000ADCF2EA13FA1C90163E070E00E942C319C
:104D9000FE01E80FF91F12A3B9016F5F7F4F7FA3D8
:104DA0006EA38130910569F0029709F097CF0CA1AD
:104DB0002BA14AA1CE010E9464258DA18430C9F6A1
:104DC0008DCF00E0423009F089CFF2CFCF92DF9251
:104DD000EF92FF920F931F93CF93DF93EC01E8A123
:104DE000F9A1309709F009956E0188EEC80ED11C23
:104DF000C6010E94502710E000E0E82EF12C0E15AD
:104E00001F0548F0DF91CF911F910F91FF90EF9018
:104E1000DF90CF90089560E0C6010E946427682F5C
:104E2000CE010E94562661E0C6010E9474270F5FE2
:104E30001F4FE5CFFC01428374836383118210828C
:104E400008951F93CF93DF93EC01162F0E948B27B9
:104E5000482F298130E0C90101966A8170E00E94E3
:104E6000403158815817190641F4842F0E948E272B
:104E700080E0DF91CF911F9108958B819C81280F55
:104E8000391FF9011083898190E001966A8170E0F1
:104E90000E9440318983842F0E948E2781E0E9CFD0
:104EA000CF93DF93EC010E948B2799812881921781
:104EB00040F0C92FC21B0E948E278C2FDF91CF910B
:104EC0000895CA819C0FF5CFFC018081860F992738
:104ED000991F628170E00E94403123813481280F44
:104EE000391FF901808108951F93CF93DF93EC015F
:104EF000162F0E948B27282F8881810F9927991FB1
:104F00006A8170E00E9440318883822FDF91CF91C7
:104F10001F910C948E278FB7F89408958FBF089532
:104F2000482F47709C0183E0369527958A95E1F7D5
:104F300057E0529FC001539F900D1124442319F054
:104F40000197840F911D08958F929F92BF92CF92E7
:104F5000DF92EF92FF920F931F93CF93DF934C0159
:104F6000EB017A01CA0167E070E00E942C318E01EA
:104F7000D40130E020E02617370709F046C0C7010A
:104F800067E070E00E942C31D90143E0AA0FBB1FFB
:104F90004A95E1F7009761F1F401EA0FFB1F1082D7
:104FA00067E0629FA001639F500D11248E01040FE2
:104FB000151F30E020E0E80179918E012F5F3F4F0F
:104FC000472F407850E0022E02C0559547950A942D
:104FD000E2F75081452B4083AF01420F531F7F778B
:104FE000EA0178838217930731F70196A80FB91F5A
:104FF000CD01DF91CF911F910F91FF90EF90DF9046
:10500000CF90BF909F908F9008951C92A80190E040
:1050100080E0FA01B190AF010196FB2DF078CF2E20
:10502000D12C082E02C0D594C7940A94E2F7DC90E4
:10503000CD28CC926D01C80ED91EE894B7F8F601C0
:10504000B0828730910529F72F5F3F4F095F1F4FCF
:10505000189691CF6F927F929F92AF92BF92CF920C
:10506000DF92EF92FF920F931F93CF93DF933C0158
:1050700090E080E04230510560F15A0183E0B6943F
:10508000A7948A95E1F78301EB01B0E0A0E0AA15AF
:10509000BB0569F5242F277037E03A9FC0013B9F7D
:1050A000900D11242223A9F0487F640F751FEB0196
:1050B0005301A80EB91EB0E0A0E0422F50E08A01D3
:1050C000015011092196A017B107B0F10197840F83
:1050D000951FDF91CF911F910F91FF90EF90DF907F
:1050E000CF90BF90AF909F907F906F900895780180
:1050F00081E090E09E01280F391FF9012081922E56
:10510000E89497F8F70191927F016F01F1E0CF1ACF
:10511000D1082881082E01C0220F0A94EAF72078CE
:105120002929F601208301968830910519F71196F7
:10513000095F1F4F2896ABCF2881D22EE894D7F86D
:10514000F501D1925F0111967F01F1E0EF1AF108AC
:10515000FB013081232F0A2E01C0220F0A94EAF7A7
:1051600020782D29F7012083ADCF08950895EF927F
:10517000FF920F931F93CF93DF93CDB7DEB7A09726
:105180000FB6F894DEBF0FBECDBFF9018B010450FE
:10519000110990E080E08417C8F417FD2BC0DF01EF
:1051A000A80FB91F3C91373FF1F4C8010E94902726
:1051B0007C01A8016FE872E0CE0101960E942A28C6
:1051C000BE016F5F7F4FC7010E949C14A0960FB66F
:1051D000F894DEBF0FBECDBFDF91CF911F910F912D
:1051E000FF90EF9008950532110584F7D801A1577B
:1051F000BD4F3C930F5F1F4F0196CDCF0F931F9371
:10520000CF93DF9300D000D000D00F92CDB7DEB7A0
:105210008C01CE0101960E948B2B81110BC0279629
:105220000FB6F894DEBF0FBECDBFDF91CF911F91B7
:105230000F9108958A810E948F249A819D839B817A
:105240009E839C819F8381110AC08981843079F07B
:10525000873069F0863069F08530D9F681E0AE019B
:105260004B5F5F4F682FC8010E944025D2CF83E07B
:10527000F6CF82E0F4CFDF92EF92FF920F931F936D
:10528000CF93DF9300D000D0CDB7DEB77B01142FD2
:10529000D22E4A832B830C83842F0E948F2481116A
:1052A00029C082E0E816F10401F183E0E816F10478
:1052B00039F0EA94EF2869F485E0173F21F404C03F
:1052C00087E0073F09F084E08983CE0101960E94C0
:1052D000862B0F900F900F900F90DF91CF911F9121
:1052E0000F91FF90EF90DF90089587EFD812EBCFEA
:1052F00086E0EACF12951F701983E7CF8CEF92E01A
:105300000E940F256BE379E28CEF92E00E945C250E
:105310006EEF78E28CEF92E00E94602565EB78E218
:105320008CEF92E00E940B2566EB78E28CEF92E026
:105330000E94032567EB78E28CEF92E00C9407253E
:105340009B014091ED034430C1F4FC0191819F70B9
:105350009093E90050E040E064E070E0C9010E94F1
:105360004C2C81110BC09091E80095FD07C09091E5
:10537000E8009E779093E800089582E008952091D8
:10538000ED03243091F4FC0181818F708093E9005A
:105390009091F3008091F200892B49F08091E80010
:1053A0008E778093E8000C94FA2D82E0089580E0D7
:1053B0000895FC018091ED03843059F491819F7030
:1053C0009093E9008091E80080FF03C0CF010C9426
:1053D000BF2908959B014091ED03443011F080E016
:1053E0000895FC0196819F709093E9008091E800F8
:1053F00082FFF5CF8091E80085FFF1CF50E040E0DB
:1054000064E070E0C9010E949B2C8091E80085FD5A
:1054100005C08091E8008B778093E80081E00895D3
:105420008091D70208959091ED03943031F58093E7
:10543000B4027093B6026093B50282E08093E900F3
:105440008FEF9091E800815095FD06C095ED9A95FB
:10545000F1F700008111F5CF8091E80085FF0DC0C4
:1054600050E040E063E070E084EB92E00E944C2C5E
:105470008091E8008E778093E8000895BC0184E075
:105480000C94132ABC0183E00C94132A9C0182E043
:105490008093E9009FEF8091E800915085FD06C060
:1054A00085ED8A95F1F700009111F5CF8091E80024
:1054B00085FF0CC050E040E066E070E0C9010E944A
:1054C0004C2C8091E8008E778093E8000895CF936C
:1054D000DF93EC01809133018823B1F18091D902EF
:1054E00087FF32C060E282E08093E9008FEF909105
:1054F000E800815095FD06C095ED9A95F1F7000002
:105500008111F5CF8091E80085FF1BC080913301A8
:1055100070E050E040E0811104C050E040E068E0FD
:1055200070E0CE010E944C2C8091E8008E77809331
:10553000E80080E2FE01A7EBB2E001900D928A95AF
:10554000E1F7DF91CF91089568E081E0CDCF8091C0
:10555000EC03811109C00E942B2E0E94882E80919D
:10556000E20084608093E20008951092EC030895B5
:1055700008950895089542E061EC81E00E94A72D0E
:1055800042E261EC82E00E94A72D42E361E883E001
:105590000E94A72D42E361E884E00C94A72D80913E
:1055A000EF03833009F45FC030F48130C1F1823001
:1055B00009F49BC008958A3009F487C08B3009F440
:1055C0006DC0893009F04EC08091EE03813209F040
:1055D00049C08091F2039091F303029708F042C012
:1055E0008091E800877F8093E8008091E80082FF47
:1055F00035C09091F3008091F200029729F48091D8
:10560000F1008B7F813021F48091F1008093D702EB
:105610008091E8008B778093E8000C94DB2D8091DB
:10562000EE03813AF9F48091E800877F8093E800E7
:105630008091F2039091F303892B61F460E287EB90
:1056400092E070E00E94EA2C8091E8008B778093D2
:10565000E800089560E090E080E0F3CF8091ED03F2
:105660008111C3CF08958091EE03813AD9F78091DB
:10567000F2039091F303892BA9F78091E800877FCB
:105680008093E8008091E80080FFFCCF8091330197
:105690008093F1008091E8008E77BDCF8091EE037A
:1056A000813201F78091F2039091F303892BD1F6B7
:1056B0008091E800877F8093E8000E94DB2D809135
:1056C000F003809333010C94A0088091EE038132A3
:1056D00049F68091E800877F8093E8000E94DB2DE7
:1056E0008091F1038093D80208958091EE03813A6E
:1056F00009F0B8CF8091E800877F8093E80080911F
:10570000E80080FFFCCF8091D802C2CFBC018DE1C0
:1057100091E00C94A029BC018DE191E00C94EA2960
:105720000E947E2984B7877F84BF0FB6F894A8951E
:1057300080916000886180936000109260000FBECD
:1057400080E890E00FB6F894809361009093610038
:105750000FBE0C94DD0F0E942B2E0E94882EE2EECD
:10576000F0E080818460808378940E9411310E94EF
:10577000F10F89E291E00C9466228091ED0385306F
:1057800031F48091ED03853041F00E94D7230E94CF
:10579000FB0F8DE191E00C94D9290E948F23809119
:1057A000EB03882371F30E94C023882351F30E94E6
:1057B000362C0E94A008E5CF0C94DE2B292F33272E
:1057C0002330310519F168F42130310509F444C062
:1057D0002230310509F445C090E080E030E020E05F
:1057E00025C02132310549F122323105A9F780E483
:1057F00090E022E535E061157105C1F086EB90E09F
:105800002CE934E06130710589F0E6CF99278130C9
:10581000910581F0009729F00297F1F6E9EAF3E0AB
:1058200002C0E7EEF3E0849190E09F01FA0131833A
:1058300020830895E7ECF3E0F6CF89E090E02DEFC8
:1058400033E06115710591F389E090E026E134E0E1
:105850006130710559F3C0CF82E190E02AE834E06D
:10586000E5CF8FE990E02BEE33E0E0CF80E189BD1A
:1058700082E189BD09B400FEFDCF8091D8008F7D03
:105880008093D8008091E00082608093E000809156
:10589000E00081FDFCCF0895AF92BF92CF92DF92DE
:1058A000FF920F931F93CF93DF936C01EB018A015B
:1058B0000E94FA2DF82E811123C00115110539F02F
:1058C000F80180819181C81BD90BC80ED91EB12C5B
:1058D000A12C2097A9F08091E80085FD22C080913D
:1058E000E8008E778093E80001151105A1F0F8011A
:1058F00080819181A80EB91EB182A08285E0F82E28
:105900008F2DDF91CF911F910F91FF90DF90CF905E
:10591000BF90AF9008950E94FA2D8823D1F2F82EFF
:10592000EFCFF60181916F018093F1002197FFEF96
:10593000AF1ABF0ACECFAF92BF92CF92DF92FF9243
:105940000F931F93CF93DF936C01EB018A010E94A9
:10595000FA2DF82E811123C00115110539F0F80137
:1059600080819181C81BD90BC80ED91EB12CA12CE6
:105970002097A9F08091E80085FD22C08091E80081
:105980008B778093E80001151105A1F0F801808163
:105990009181A80EB91EB182A08285E0F82E8F2DCC
:1059A000DF91CF911F910F91FF90DF90CF90BF902B
:1059B000AF9008950E94FA2D8823D1F2F82EEFCFF0
:1059C0008091F100F60181936F012197FFEFAF1AEB
:1059D000BF0ACECFFC018091F4039091F5038617A6
:1059E0009707A0F06115710529F49091E8009E7762
:1059F0009093E80090E06115710551F4911108C091
:105A00008091E80082FF34C080E00895BC01F2CFAD
:105A10008091ED038823C1F18530C1F18091E800C8
:105A200083FD30C08091E80082FDEACF8091E800DC
:105A300080FFE1CF8091F3002091F200382F6115B3
:105A4000710519F02830310558F091E02830310502
:105A500009F090E02091E8002E772093E800CBCF6A
:105A600081918093F100615071092F5F3F4FE7CF23
:105A70008091ED03882341F0853041F08091E8006A
:105A800083FFBECF81E0089582E0089583E008950A
:105A9000FC018091F4039091F50386179707A0F01D
:105AA0006115710529F48091E8008E778093E800F4
:105AB00090E06115710551F4911108C08091E800E2
:105AC00082FF35C080E00895BC01F2CF8091ED03E4
:105AD0008823C9F18530C9F18091E80083FD31C088
